{
	"contracts/kipubank.sol": {
		"KipuBank": {
			"abi": [
				{
					"inputs": [],
					"stateMutability": "nonpayable",
					"type": "constructor"
				},
				{
					"inputs": [
						{
							"internalType": "uint256",
							"name": "attempted",
							"type": "uint256"
						},
						{
							"internalType": "uint256",
							"name": "available",
							"type": "uint256"
						}
					],
					"name": "BankCapExceeded",
					"type": "error"
				},
				{
					"inputs": [
						{
							"internalType": "uint256",
							"name": "sent",
							"type": "uint256"
						},
						{
							"internalType": "uint256",
							"name": "minimum",
							"type": "uint256"
						}
					],
					"name": "DepositTooSmall",
					"type": "error"
				},
				{
					"inputs": [
						{
							"internalType": "uint256",
							"name": "requested",
							"type": "uint256"
						},
						{
							"internalType": "uint256",
							"name": "available",
							"type": "uint256"
						}
					],
					"name": "InsufficientBalance",
					"type": "error"
				},
				{
					"inputs": [
						{
							"internalType": "uint256",
							"name": "requested",
							"type": "uint256"
						},
						{
							"internalType": "uint256",
							"name": "available",
							"type": "uint256"
						}
					],
					"name": "InsufficientBankLiquidity",
					"type": "error"
				},
				{
					"inputs": [],
					"name": "TransferFailed",
					"type": "error"
				},
				{
					"inputs": [
						{
							"internalType": "uint256",
							"name": "requested",
							"type": "uint256"
						},
						{
							"internalType": "uint256",
							"name": "limit",
							"type": "uint256"
						}
					],
					"name": "WithdrawalLimitExceeded",
					"type": "error"
				},
				{
					"inputs": [],
					"name": "ZeroAmount",
					"type": "error"
				},
				{
					"anonymous": false,
					"inputs": [
						{
							"indexed": true,
							"internalType": "address",
							"name": "user",
							"type": "address"
						},
						{
							"indexed": false,
							"internalType": "uint256",
							"name": "amount",
							"type": "uint256"
						},
						{
							"indexed": false,
							"internalType": "uint256",
							"name": "newBalance",
							"type": "uint256"
						}
					],
					"name": "Deposit",
					"type": "event"
				},
				{
					"anonymous": false,
					"inputs": [
						{
							"indexed": true,
							"internalType": "address",
							"name": "user",
							"type": "address"
						},
						{
							"indexed": false,
							"internalType": "uint256",
							"name": "amount",
							"type": "uint256"
						},
						{
							"indexed": false,
							"internalType": "uint256",
							"name": "remainingBalance",
							"type": "uint256"
						}
					],
					"name": "Withdrawal",
					"type": "event"
				},
				{
					"inputs": [],
					"name": "MINIMUM_DEPOSIT",
					"outputs": [
						{
							"internalType": "uint256",
							"name": "",
							"type": "uint256"
						}
					],
					"stateMutability": "view",
					"type": "function"
				},
				{
					"inputs": [],
					"name": "bankCap",
					"outputs": [
						{
							"internalType": "uint256",
							"name": "",
							"type": "uint256"
						}
					],
					"stateMutability": "view",
					"type": "function"
				},
				{
					"inputs": [],
					"name": "deposit",
					"outputs": [],
					"stateMutability": "payable",
					"type": "function"
				},
				{
					"inputs": [],
					"name": "getBankStats",
					"outputs": [
						{
							"internalType": "uint256",
							"name": "totalBalance",
							"type": "uint256"
						},
						{
							"internalType": "uint256",
							"name": "depositsCount",
							"type": "uint256"
						},
						{
							"internalType": "uint256",
							"name": "withdrawalsCount",
							"type": "uint256"
						},
						{
							"internalType": "uint256",
							"name": "remainingCapacity",
							"type": "uint256"
						}
					],
					"stateMutability": "view",
					"type": "function"
				},
				{
					"inputs": [
						{
							"internalType": "address",
							"name": "user",
							"type": "address"
						}
					],
					"name": "getUserInfo",
					"outputs": [
						{
							"internalType": "uint256",
							"name": "userBalance",
							"type": "uint256"
						},
						{
							"internalType": "uint256",
							"name": "maxWithdrawal",
							"type": "uint256"
						},
						{
							"internalType": "bool",
							"name": "canWithdrawFully",
							"type": "bool"
						}
					],
					"stateMutability": "view",
					"type": "function"
				},
				{
					"inputs": [],
					"name": "totalBankBalance",
					"outputs": [
						{
							"internalType": "uint256",
							"name": "",
							"type": "uint256"
						}
					],
					"stateMutability": "view",
					"type": "function"
				},
				{
					"inputs": [],
					"name": "totalDeposits",
					"outputs": [
						{
							"internalType": "uint256",
							"name": "",
							"type": "uint256"
						}
					],
					"stateMutability": "view",
					"type": "function"
				},
				{
					"inputs": [],
					"name": "totalWithdrawals",
					"outputs": [
						{
							"internalType": "uint256",
							"name": "",
							"type": "uint256"
						}
					],
					"stateMutability": "view",
					"type": "function"
				},
				{
					"inputs": [
						{
							"internalType": "address",
							"name": "",
							"type": "address"
						}
					],
					"name": "vaults",
					"outputs": [
						{
							"internalType": "uint256",
							"name": "",
							"type": "uint256"
						}
					],
					"stateMutability": "view",
					"type": "function"
				},
				{
					"inputs": [
						{
							"internalType": "uint256",
							"name": "amount",
							"type": "uint256"
						}
					],
					"name": "withdraw",
					"outputs": [],
					"stateMutability": "nonpayable",
					"type": "function"
				},
				{
					"inputs": [],
					"name": "withdrawalLimit",
					"outputs": [
						{
							"internalType": "uint256",
							"name": "",
							"type": "uint256"
						}
					],
					"stateMutability": "view",
					"type": "function"
				},
				{
					"stateMutability": "payable",
					"type": "receive"
				}
			],
			"devdoc": {
				"kind": "dev",
				"methods": {},
				"version": 1
			},
			"evm": {
				"assembly": "    /* \"contracts/kipubank.sol\":224:9402  contract KipuBank {... */\n  mstore(0x40, 0xc0)\n    /* \"contracts/kipubank.sol\":3039:3127  constructor() {... */\n  callvalue\n  dup1\n  iszero\n  tag_1\n  jumpi\n  revert(0x00, 0x00)\ntag_1:\n  pop\n    /* \"contracts/kipubank.sol\":3082:3089  1 ether */\n  0x0de0b6b3a7640000\n    /* \"contracts/kipubank.sol\":3064:3089  withdrawalLimit = 1 ether */\n  0x80\n  dup2\n  dup2\n  mstore\n  pop\n  pop\n    /* \"contracts/kipubank.sol\":3110:3119  100 ether */\n  0x056bc75e2d63100000\n    /* \"contracts/kipubank.sol\":3100:3119  bankCap = 100 ether */\n  0xa0\n  dup2\n  dup2\n  mstore\n  pop\n  pop\n    /* \"contracts/kipubank.sol\":224:9402  contract KipuBank {... */\n  mload(0x80)\n  mload(0xa0)\n  codecopy(0x00, dataOffset(sub_0), dataSize(sub_0))\n  0x00\n  assignImmutable(\"0x52f1a9b320cab38e5da8a8f97989383aab0a49165fc91c737310e4f7e9821021\")\n  0x00\n  assignImmutable(\"0x13600b294191fc92924bb3ce4b969c1e7e2bab8f4c93c3fc6d0a51733df3c060\")\n  return(0x00, dataSize(sub_0))\nstop\n\nsub_0: assembly {\n        /* \"contracts/kipubank.sol\":224:9402  contract KipuBank {... */\n      mstore(0x40, 0x80)\n      jumpi(tag_1, lt(calldatasize, 0x04))\n      shr(0xe0, calldataload(0x00))\n      dup1\n      0x7ddfe78d\n      gt\n      tag_14\n      jumpi\n      dup1\n      0x7ddfe78d\n      eq\n      tag_8\n      jumpi\n      dup1\n      0xa622ee7c\n      eq\n      tag_9\n      jumpi\n      dup1\n      0xc6e8e38c\n      eq\n      tag_10\n      jumpi\n      dup1\n      0xd0e30db0\n      eq\n      tag_11\n      jumpi\n      dup1\n      0xecbea24d\n      eq\n      tag_12\n      jumpi\n      dup1\n      0xf19451d8\n      eq\n      tag_13\n      jumpi\n      jump(tag_2)\n    tag_14:\n      dup1\n      0x1977e938\n      eq\n      tag_3\n      jumpi\n      dup1\n      0x2e1a7d4d\n      eq\n      tag_4\n      jumpi\n      dup1\n      0x60464627\n      eq\n      tag_5\n      jumpi\n      dup1\n      0x6386c1c7\n      eq\n      tag_6\n      jumpi\n      dup1\n      0x7d882097\n      eq\n      tag_7\n      jumpi\n      jump(tag_2)\n    tag_1:\n      jumpi(tag_2, calldatasize)\n        /* \"contracts/kipubank.sol\":8636:8637  0 */\n      0x00\n        /* \"contracts/kipubank.sol\":8623:8632  msg.value */\n      callvalue\n        /* \"contracts/kipubank.sol\":8623:8637  msg.value == 0 */\n      sub\n        /* \"contracts/kipubank.sol\":8619:8685  if (msg.value == 0) {... */\n      tag_17\n      jumpi\n        /* \"contracts/kipubank.sol\":8661:8673  ZeroAmount() */\n      mload(0x40)\n      0x1f2a200500000000000000000000000000000000000000000000000000000000\n      dup2\n      mstore\n      0x04\n      add\n      mload(0x40)\n      dup1\n      swap2\n      sub\n      swap1\n      revert\n        /* \"contracts/kipubank.sol\":8619:8685  if (msg.value == 0) {... */\n    tag_17:\n        /* \"contracts/kipubank.sol\":734:745  0.001 ether */\n      0x038d7ea4c68000\n        /* \"contracts/kipubank.sol\":8766:8775  msg.value */\n      callvalue\n        /* \"contracts/kipubank.sol\":8766:8793  msg.value < MINIMUM_DEPOSIT */\n      lt\n        /* \"contracts/kipubank.sol\":8762:8872  if (msg.value < MINIMUM_DEPOSIT) {... */\n      iszero\n      tag_18\n      jumpi\n        /* \"contracts/kipubank.sol\":8833:8842  msg.value */\n      callvalue\n        /* \"contracts/kipubank.sol\":734:745  0.001 ether */\n      0x038d7ea4c68000\n        /* \"contracts/kipubank.sol\":8817:8860  DepositTooSmall(msg.value, MINIMUM_DEPOSIT) */\n      mload(0x40)\n      0x4a77f2fa00000000000000000000000000000000000000000000000000000000\n      dup2\n      mstore\n      0x04\n      add\n      tag_19\n      swap3\n      swap2\n      swap1\n      tag_20\n      jump\t// in\n    tag_19:\n      mload(0x40)\n      dup1\n      swap2\n      sub\n      swap1\n      revert\n        /* \"contracts/kipubank.sol\":8762:8872  if (msg.value < MINIMUM_DEPOSIT) {... */\n    tag_18:\n        /* \"contracts/kipubank.sol\":8951:8973  uint256 availableSpace */\n      0x00\n        /* \"contracts/kipubank.sol\":8986:9002  totalBankBalance */\n      sload(0x00)\n        /* \"contracts/kipubank.sol\":8976:8983  bankCap */\n      immutable(\"0x52f1a9b320cab38e5da8a8f97989383aab0a49165fc91c737310e4f7e9821021\")\n        /* \"contracts/kipubank.sol\":8976:9002  bankCap - totalBankBalance */\n      tag_21\n      swap2\n      swap1\n      tag_22\n      jump\t// in\n    tag_21:\n        /* \"contracts/kipubank.sol\":8951:9002  uint256 availableSpace = bankCap - totalBankBalance */\n      swap1\n      pop\n        /* \"contracts/kipubank.sol\":9029:9043  availableSpace */\n      dup1\n        /* \"contracts/kipubank.sol\":9017:9026  msg.value */\n      callvalue\n        /* \"contracts/kipubank.sol\":9017:9043  msg.value > availableSpace */\n      gt\n        /* \"contracts/kipubank.sol\":9013:9121  if (msg.value > availableSpace) {... */\n      iszero\n      tag_23\n      jumpi\n        /* \"contracts/kipubank.sol\":9083:9092  msg.value */\n      callvalue\n        /* \"contracts/kipubank.sol\":9094:9108  availableSpace */\n      dup2\n        /* \"contracts/kipubank.sol\":9067:9109  BankCapExceeded(msg.value, availableSpace) */\n      mload(0x40)\n      0x31728a0500000000000000000000000000000000000000000000000000000000\n      dup2\n      mstore\n      0x04\n      add\n      tag_24\n      swap3\n      swap2\n      swap1\n      tag_20\n      jump\t// in\n    tag_24:\n      mload(0x40)\n      dup1\n      swap2\n      sub\n      swap1\n      revert\n        /* \"contracts/kipubank.sol\":9013:9121  if (msg.value > availableSpace) {... */\n    tag_23:\n        /* \"contracts/kipubank.sol\":9212:9221  msg.value */\n      callvalue\n        /* \"contracts/kipubank.sol\":9190:9196  vaults */\n      0x03\n        /* \"contracts/kipubank.sol\":9190:9208  vaults[msg.sender] */\n      0x00\n        /* \"contracts/kipubank.sol\":9197:9207  msg.sender */\n      caller\n        /* \"contracts/kipubank.sol\":9190:9208  vaults[msg.sender] */\n      0xffffffffffffffffffffffffffffffffffffffff\n      and\n      0xffffffffffffffffffffffffffffffffffffffff\n      and\n      dup2\n      mstore\n      0x20\n      add\n      swap1\n      dup2\n      mstore\n      0x20\n      add\n      0x00\n      keccak256\n      0x00\n        /* \"contracts/kipubank.sol\":9190:9221  vaults[msg.sender] += msg.value */\n      dup3\n      dup3\n      sload\n      tag_25\n      swap2\n      swap1\n      tag_26\n      jump\t// in\n    tag_25:\n      swap3\n      pop\n      pop\n      dup2\n      swap1\n      sstore\n      pop\n        /* \"contracts/kipubank.sol\":9252:9261  msg.value */\n      callvalue\n        /* \"contracts/kipubank.sol\":9232:9248  totalBankBalance */\n      0x00\n      0x00\n        /* \"contracts/kipubank.sol\":9232:9261  totalBankBalance += msg.value */\n      dup3\n      dup3\n      sload\n      tag_27\n      swap2\n      swap1\n      tag_26\n      jump\t// in\n    tag_27:\n      swap3\n      pop\n      pop\n      dup2\n      swap1\n      sstore\n      pop\n        /* \"contracts/kipubank.sol\":9272:9285  totalDeposits */\n      0x01\n      0x00\n        /* \"contracts/kipubank.sol\":9272:9287  totalDeposits++ */\n      dup2\n      sload\n      dup1\n      swap3\n      swap2\n      swap1\n      tag_28\n      swap1\n      tag_29\n      jump\t// in\n    tag_28:\n      swap2\n      swap1\n      pop\n      sstore\n      pop\n        /* \"contracts/kipubank.sol\":9349:9359  msg.sender */\n      caller\n        /* \"contracts/kipubank.sol\":9341:9391  Deposit(msg.sender, msg.value, vaults[msg.sender]) */\n      0xffffffffffffffffffffffffffffffffffffffff\n      and\n      0x90890809c654f11d6e72a28fa60149770a0d11ec6c92319d6ceb2bb0a4ea1a15\n        /* \"contracts/kipubank.sol\":9361:9370  msg.value */\n      callvalue\n        /* \"contracts/kipubank.sol\":9372:9378  vaults */\n      0x03\n        /* \"contracts/kipubank.sol\":9372:9390  vaults[msg.sender] */\n      0x00\n        /* \"contracts/kipubank.sol\":9379:9389  msg.sender */\n      caller\n        /* \"contracts/kipubank.sol\":9372:9390  vaults[msg.sender] */\n      0xffffffffffffffffffffffffffffffffffffffff\n      and\n      0xffffffffffffffffffffffffffffffffffffffff\n      and\n      dup2\n      mstore\n      0x20\n      add\n      swap1\n      dup2\n      mstore\n      0x20\n      add\n      0x00\n      keccak256\n      sload\n        /* \"contracts/kipubank.sol\":9341:9391  Deposit(msg.sender, msg.value, vaults[msg.sender]) */\n      mload(0x40)\n      tag_30\n      swap3\n      swap2\n      swap1\n      tag_20\n      jump\t// in\n    tag_30:\n      mload(0x40)\n      dup1\n      swap2\n      sub\n      swap1\n      log2\n        /* \"contracts/kipubank.sol\":8550:9399  {... */\n      stop\n        /* \"contracts/kipubank.sol\":224:9402  contract KipuBank {... */\n    tag_2:\n      revert(0x00, 0x00)\n        /* \"contracts/kipubank.sol\":888:919  uint256 public totalBankBalance */\n    tag_3:\n      callvalue\n      dup1\n      iszero\n      tag_31\n      jumpi\n      revert(0x00, 0x00)\n    tag_31:\n      pop\n      tag_32\n      tag_33\n      jump\t// in\n    tag_32:\n      mload(0x40)\n      tag_34\n      swap2\n      swap1\n      tag_35\n      jump\t// in\n    tag_34:\n      mload(0x40)\n      dup1\n      swap2\n      sub\n      swap1\n      return\n        /* \"contracts/kipubank.sol\":4505:5950  function withdraw(uint256 amount) external nonZeroAmount(amount) {... */\n    tag_4:\n      callvalue\n      dup1\n      iszero\n      tag_36\n      jumpi\n      revert(0x00, 0x00)\n    tag_36:\n      pop\n      tag_37\n      0x04\n      dup1\n      calldatasize\n      sub\n      dup2\n      add\n      swap1\n      tag_38\n      swap2\n      swap1\n      tag_39\n      jump\t// in\n    tag_38:\n      tag_40\n      jump\t// in\n    tag_37:\n      stop\n        /* \"contracts/kipubank.sol\":1182:1213  uint256 public totalWithdrawals */\n    tag_5:\n      callvalue\n      dup1\n      iszero\n      tag_41\n      jumpi\n      revert(0x00, 0x00)\n    tag_41:\n      pop\n      tag_42\n      tag_43\n      jump\t// in\n    tag_42:\n      mload(0x40)\n      tag_44\n      swap2\n      swap1\n      tag_35\n      jump\t// in\n    tag_44:\n      mload(0x40)\n      dup1\n      swap2\n      sub\n      swap1\n      return\n        /* \"contracts/kipubank.sol\":6106:6770  function getUserInfo(address user) ... */\n    tag_6:\n      callvalue\n      dup1\n      iszero\n      tag_45\n      jumpi\n      revert(0x00, 0x00)\n    tag_45:\n      pop\n      tag_46\n      0x04\n      dup1\n      calldatasize\n      sub\n      dup2\n      add\n      swap1\n      tag_47\n      swap2\n      swap1\n      tag_48\n      jump\t// in\n    tag_47:\n      tag_49\n      jump\t// in\n    tag_46:\n      mload(0x40)\n      tag_50\n      swap4\n      swap3\n      swap2\n      swap1\n      tag_51\n      jump\t// in\n    tag_50:\n      mload(0x40)\n      dup1\n      swap2\n      sub\n      swap1\n      return\n        /* \"contracts/kipubank.sol\":1038:1066  uint256 public totalDeposits */\n    tag_7:\n      callvalue\n      dup1\n      iszero\n      tag_52\n      jumpi\n      revert(0x00, 0x00)\n    tag_52:\n      pop\n      tag_53\n      tag_54\n      jump\t// in\n    tag_53:\n      mload(0x40)\n      tag_55\n      swap2\n      swap1\n      tag_35\n      jump\t// in\n    tag_55:\n      mload(0x40)\n      dup1\n      swap2\n      sub\n      swap1\n      return\n        /* \"contracts/kipubank.sol\":407:447  uint256 public immutable withdrawalLimit */\n    tag_8:\n      callvalue\n      dup1\n      iszero\n      tag_56\n      jumpi\n      revert(0x00, 0x00)\n    tag_56:\n      pop\n      tag_57\n      tag_58\n      jump\t// in\n    tag_57:\n      mload(0x40)\n      tag_59\n      swap2\n      swap1\n      tag_35\n      jump\t// in\n    tag_59:\n      mload(0x40)\n      dup1\n      swap2\n      sub\n      swap1\n      return\n        /* \"contracts/kipubank.sol\":1354:1395  mapping(address => uint256) public vaults */\n    tag_9:\n      callvalue\n      dup1\n      iszero\n      tag_60\n      jumpi\n      revert(0x00, 0x00)\n    tag_60:\n      pop\n      tag_61\n      0x04\n      dup1\n      calldatasize\n      sub\n      dup2\n      add\n      swap1\n      tag_62\n      swap2\n      swap1\n      tag_48\n      jump\t// in\n    tag_62:\n      tag_63\n      jump\t// in\n    tag_61:\n      mload(0x40)\n      tag_64\n      swap2\n      swap1\n      tag_35\n      jump\t// in\n    tag_64:\n      mload(0x40)\n      dup1\n      swap2\n      sub\n      swap1\n      return\n        /* \"contracts/kipubank.sol\":6860:7440  function getBankStats() ... */\n    tag_10:\n      callvalue\n      dup1\n      iszero\n      tag_65\n      jumpi\n      revert(0x00, 0x00)\n    tag_65:\n      pop\n      tag_66\n      tag_67\n      jump\t// in\n    tag_66:\n      mload(0x40)\n      tag_68\n      swap5\n      swap4\n      swap3\n      swap2\n      swap1\n      tag_69\n      jump\t// in\n    tag_68:\n      mload(0x40)\n      dup1\n      swap2\n      sub\n      swap1\n      return\n        /* \"contracts/kipubank.sol\":3547:4374  function deposit() external payable nonZeroAmount(msg.value) {... */\n    tag_11:\n      tag_70\n      tag_71\n      jump\t// in\n    tag_70:\n      stop\n        /* \"contracts/kipubank.sol\":554:586  uint256 public immutable bankCap */\n    tag_12:\n      callvalue\n      dup1\n      iszero\n      tag_72\n      jumpi\n      revert(0x00, 0x00)\n    tag_72:\n      pop\n      tag_73\n      tag_74\n      jump\t// in\n    tag_73:\n      mload(0x40)\n      tag_75\n      swap2\n      swap1\n      tag_35\n      jump\t// in\n    tag_75:\n      mload(0x40)\n      dup1\n      swap2\n      sub\n      swap1\n      return\n        /* \"contracts/kipubank.sol\":692:745  uint256 public constant MINIMUM_DEPOSIT = 0.001 ether */\n    tag_13:\n      callvalue\n      dup1\n      iszero\n      tag_76\n      jumpi\n      revert(0x00, 0x00)\n    tag_76:\n      pop\n      tag_77\n      tag_78\n      jump\t// in\n    tag_77:\n      mload(0x40)\n      tag_79\n      swap2\n      swap1\n      tag_35\n      jump\t// in\n    tag_79:\n      mload(0x40)\n      dup1\n      swap2\n      sub\n      swap1\n      return\n        /* \"contracts/kipubank.sol\":888:919  uint256 public totalBankBalance */\n    tag_33:\n      sload(0x00)\n      dup2\n      jump\t// out\n        /* \"contracts/kipubank.sol\":4505:5950  function withdraw(uint256 amount) external nonZeroAmount(amount) {... */\n    tag_40:\n        /* \"contracts/kipubank.sol\":4562:4568  amount */\n      dup1\n        /* \"contracts/kipubank.sol\":3332:3333  0 */\n      0x00\n        /* \"contracts/kipubank.sol\":3322:3328  amount */\n      dup2\n        /* \"contracts/kipubank.sol\":3322:3333  amount == 0 */\n      sub\n        /* \"contracts/kipubank.sol\":3318:3381  if (amount == 0) {... */\n      tag_81\n      jumpi\n        /* \"contracts/kipubank.sol\":3357:3369  ZeroAmount() */\n      mload(0x40)\n      0x1f2a200500000000000000000000000000000000000000000000000000000000\n      dup2\n      mstore\n      0x04\n      add\n      mload(0x40)\n      dup1\n      swap2\n      sub\n      swap1\n      revert\n        /* \"contracts/kipubank.sol\":3318:3381  if (amount == 0) {... */\n    tag_81:\n        /* \"contracts/kipubank.sol\":4664:4670  vaults */\n      0x03\n        /* \"contracts/kipubank.sol\":4664:4682  vaults[msg.sender] */\n      0x00\n        /* \"contracts/kipubank.sol\":4671:4681  msg.sender */\n      caller\n        /* \"contracts/kipubank.sol\":4664:4682  vaults[msg.sender] */\n      0xffffffffffffffffffffffffffffffffffffffff\n      and\n      0xffffffffffffffffffffffffffffffffffffffff\n      and\n      dup2\n      mstore\n      0x20\n      add\n      swap1\n      dup2\n      mstore\n      0x20\n      add\n      0x00\n      keccak256\n      sload\n        /* \"contracts/kipubank.sol\":4655:4661  amount */\n      dup3\n        /* \"contracts/kipubank.sol\":4655:4682  amount > vaults[msg.sender] */\n      gt\n        /* \"contracts/kipubank.sol\":4651:4765  if (amount > vaults[msg.sender]) {... */\n      iszero\n      tag_83\n      jumpi\n        /* \"contracts/kipubank.sol\":4726:4732  amount */\n      dup2\n        /* \"contracts/kipubank.sol\":4734:4740  vaults */\n      0x03\n        /* \"contracts/kipubank.sol\":4734:4752  vaults[msg.sender] */\n      0x00\n        /* \"contracts/kipubank.sol\":4741:4751  msg.sender */\n      caller\n        /* \"contracts/kipubank.sol\":4734:4752  vaults[msg.sender] */\n      0xffffffffffffffffffffffffffffffffffffffff\n      and\n      0xffffffffffffffffffffffffffffffffffffffff\n      and\n      dup2\n      mstore\n      0x20\n      add\n      swap1\n      dup2\n      mstore\n      0x20\n      add\n      0x00\n      keccak256\n      sload\n        /* \"contracts/kipubank.sol\":4706:4753  InsufficientBalance(amount, vaults[msg.sender]) */\n      mload(0x40)\n      0xcf47918100000000000000000000000000000000000000000000000000000000\n      dup2\n      mstore\n      0x04\n      add\n      tag_84\n      swap3\n      swap2\n      swap1\n      tag_20\n      jump\t// in\n    tag_84:\n      mload(0x40)\n      dup1\n      swap2\n      sub\n      swap1\n      revert\n        /* \"contracts/kipubank.sol\":4651:4765  if (amount > vaults[msg.sender]) {... */\n    tag_83:\n        /* \"contracts/kipubank.sol\":4874:4889  withdrawalLimit */\n      immutable(\"0x13600b294191fc92924bb3ce4b969c1e7e2bab8f4c93c3fc6d0a51733df3c060\")\n        /* \"contracts/kipubank.sol\":4865:4871  amount */\n      dup3\n        /* \"contracts/kipubank.sol\":4865:4889  amount > withdrawalLimit */\n      gt\n        /* \"contracts/kipubank.sol\":4861:4973  if (amount > withdrawalLimit) {... */\n      iszero\n      tag_85\n      jumpi\n        /* \"contracts/kipubank.sol\":4937:4943  amount */\n      dup2\n        /* \"contracts/kipubank.sol\":4945:4960  withdrawalLimit */\n      immutable(\"0x13600b294191fc92924bb3ce4b969c1e7e2bab8f4c93c3fc6d0a51733df3c060\")\n        /* \"contracts/kipubank.sol\":4913:4961  WithdrawalLimitExceeded(amount, withdrawalLimit) */\n      mload(0x40)\n      0xb945e2d800000000000000000000000000000000000000000000000000000000\n      dup2\n      mstore\n      0x04\n      add\n      tag_86\n      swap3\n      swap2\n      swap1\n      tag_20\n      jump\t// in\n    tag_86:\n      mload(0x40)\n      dup1\n      swap2\n      sub\n      swap1\n      revert\n        /* \"contracts/kipubank.sol\":4861:4973  if (amount > withdrawalLimit) {... */\n    tag_85:\n        /* \"contracts/kipubank.sol\":5078:5099  address(this).balance */\n      selfbalance\n        /* \"contracts/kipubank.sol\":5069:5075  amount */\n      dup3\n        /* \"contracts/kipubank.sol\":5069:5099  amount > address(this).balance */\n      gt\n        /* \"contracts/kipubank.sol\":5065:5191  if (amount > address(this).balance) {... */\n      iszero\n      tag_87\n      jumpi\n        /* \"contracts/kipubank.sol\":5149:5155  amount */\n      dup2\n        /* \"contracts/kipubank.sol\":5157:5178  address(this).balance */\n      selfbalance\n        /* \"contracts/kipubank.sol\":5123:5179  InsufficientBankLiquidity(amount, address(this).balance) */\n      mload(0x40)\n      0x26af0c2400000000000000000000000000000000000000000000000000000000\n      dup2\n      mstore\n      0x04\n      add\n      tag_88\n      swap3\n      swap2\n      swap1\n      tag_20\n      jump\t// in\n    tag_88:\n      mload(0x40)\n      dup1\n      swap2\n      sub\n      swap1\n      revert\n        /* \"contracts/kipubank.sol\":5065:5191  if (amount > address(this).balance) {... */\n    tag_87:\n        /* \"contracts/kipubank.sol\":5298:5304  amount */\n      dup2\n        /* \"contracts/kipubank.sol\":5276:5282  vaults */\n      0x03\n        /* \"contracts/kipubank.sol\":5276:5294  vaults[msg.sender] */\n      0x00\n        /* \"contracts/kipubank.sol\":5283:5293  msg.sender */\n      caller\n        /* \"contracts/kipubank.sol\":5276:5294  vaults[msg.sender] */\n      0xffffffffffffffffffffffffffffffffffffffff\n      and\n      0xffffffffffffffffffffffffffffffffffffffff\n      and\n      dup2\n      mstore\n      0x20\n      add\n      swap1\n      dup2\n      mstore\n      0x20\n      add\n      0x00\n      keccak256\n      0x00\n        /* \"contracts/kipubank.sol\":5276:5304  vaults[msg.sender] -= amount */\n      dup3\n      dup3\n      sload\n      tag_89\n      swap2\n      swap1\n      tag_22\n      jump\t// in\n    tag_89:\n      swap3\n      pop\n      pop\n      dup2\n      swap1\n      sstore\n      pop\n        /* \"contracts/kipubank.sol\":5335:5341  amount */\n      dup2\n        /* \"contracts/kipubank.sol\":5315:5331  totalBankBalance */\n      0x00\n      0x00\n        /* \"contracts/kipubank.sol\":5315:5341  totalBankBalance -= amount */\n      dup3\n      dup3\n      sload\n      tag_90\n      swap2\n      swap1\n      tag_22\n      jump\t// in\n    tag_90:\n      swap3\n      pop\n      pop\n      dup2\n      swap1\n      sstore\n      pop\n        /* \"contracts/kipubank.sol\":5360:5376  totalWithdrawals */\n      0x02\n      0x00\n        /* \"contracts/kipubank.sol\":5360:5378  totalWithdrawals++ */\n      dup2\n      sload\n      dup1\n      swap3\n      swap2\n      swap1\n      tag_91\n      swap1\n      tag_29\n      jump\t// in\n    tag_91:\n      swap2\n      swap1\n      pop\n      sstore\n      pop\n        /* \"contracts/kipubank.sol\":5471:5495  uint256 remainingBalance */\n      0x00\n        /* \"contracts/kipubank.sol\":5498:5504  vaults */\n      0x03\n        /* \"contracts/kipubank.sol\":5498:5516  vaults[msg.sender] */\n      0x00\n        /* \"contracts/kipubank.sol\":5505:5515  msg.sender */\n      caller\n        /* \"contracts/kipubank.sol\":5498:5516  vaults[msg.sender] */\n      0xffffffffffffffffffffffffffffffffffffffff\n      and\n      0xffffffffffffffffffffffffffffffffffffffff\n      and\n      dup2\n      mstore\n      0x20\n      add\n      swap1\n      dup2\n      mstore\n      0x20\n      add\n      0x00\n      keccak256\n      sload\n        /* \"contracts/kipubank.sol\":5471:5516  uint256 remainingBalance = vaults[msg.sender] */\n      swap1\n      pop\n        /* \"contracts/kipubank.sol\":5601:5613  bool success */\n      0x00\n        /* \"contracts/kipubank.sol\":5627:5637  msg.sender */\n      caller\n        /* \"contracts/kipubank.sol\":5619:5643  payable(msg.sender).call */\n      0xffffffffffffffffffffffffffffffffffffffff\n      and\n        /* \"contracts/kipubank.sol\":5651:5657  amount */\n      dup5\n        /* \"contracts/kipubank.sol\":5619:5662  payable(msg.sender).call{value: amount}(\"\") */\n      mload(0x40)\n      tag_92\n      swap1\n      tag_93\n      jump\t// in\n    tag_92:\n      0x00\n      mload(0x40)\n      dup1\n      dup4\n      sub\n      dup2\n      dup6\n      dup8\n      gas\n      call\n      swap3\n      pop\n      pop\n      pop\n      returndatasize\n      dup1\n      0x00\n      dup2\n      eq\n      tag_96\n      jumpi\n      mload(0x40)\n      swap2\n      pop\n      and(add(returndatasize, 0x3f), not(0x1f))\n      dup3\n      add\n      0x40\n      mstore\n      returndatasize\n      dup3\n      mstore\n      returndatasize\n      0x00\n      0x20\n      dup5\n      add\n      returndatacopy\n      jump(tag_95)\n    tag_96:\n      0x60\n      swap2\n      pop\n    tag_95:\n      pop\n        /* \"contracts/kipubank.sol\":5600:5662  (bool success, ) = payable(msg.sender).call{value: amount}(\"\") */\n      pop\n      swap1\n      pop\n        /* \"contracts/kipubank.sol\":5745:5752  success */\n      dup1\n        /* \"contracts/kipubank.sol\":5740:5804  if (!success) {... */\n      tag_97\n      jumpi\n        /* \"contracts/kipubank.sol\":5776:5792  TransferFailed() */\n      mload(0x40)\n      0x90b8ec1800000000000000000000000000000000000000000000000000000000\n      dup2\n      mstore\n      0x04\n      add\n      mload(0x40)\n      dup1\n      swap2\n      sub\n      swap1\n      revert\n        /* \"contracts/kipubank.sol\":5740:5804  if (!success) {... */\n    tag_97:\n        /* \"contracts/kipubank.sol\":5905:5915  msg.sender */\n      caller\n        /* \"contracts/kipubank.sol\":5894:5942  Withdrawal(msg.sender, amount, remainingBalance) */\n      0xffffffffffffffffffffffffffffffffffffffff\n      and\n      0xdf273cb619d95419a9cd0ec88123a0538c85064229baa6363788f743fff90deb\n        /* \"contracts/kipubank.sol\":5917:5923  amount */\n      dup6\n        /* \"contracts/kipubank.sol\":5925:5941  remainingBalance */\n      dup5\n        /* \"contracts/kipubank.sol\":5894:5942  Withdrawal(msg.sender, amount, remainingBalance) */\n      mload(0x40)\n      tag_98\n      swap3\n      swap2\n      swap1\n      tag_20\n      jump\t// in\n    tag_98:\n      mload(0x40)\n      dup1\n      swap2\n      sub\n      swap1\n      log2\n        /* \"contracts/kipubank.sol\":4570:5950  {... */\n      pop\n      pop\n        /* \"contracts/kipubank.sol\":4505:5950  function withdraw(uint256 amount) external nonZeroAmount(amount) {... */\n      pop\n      pop\n      jump\t// out\n        /* \"contracts/kipubank.sol\":1182:1213  uint256 public totalWithdrawals */\n    tag_43:\n      sload(0x02)\n      dup2\n      jump\t// out\n        /* \"contracts/kipubank.sol\":6106:6770  function getUserInfo(address user) ... */\n    tag_49:\n        /* \"contracts/kipubank.sol\":6208:6227  uint256 userBalance */\n      0x00\n        /* \"contracts/kipubank.sol\":6243:6264  uint256 maxWithdrawal */\n      0x00\n        /* \"contracts/kipubank.sol\":6280:6301  bool canWithdrawFully */\n      0x00\n        /* \"contracts/kipubank.sol\":6411:6417  vaults */\n      0x03\n        /* \"contracts/kipubank.sol\":6411:6423  vaults[user] */\n      0x00\n        /* \"contracts/kipubank.sol\":6418:6422  user */\n      dup6\n        /* \"contracts/kipubank.sol\":6411:6423  vaults[user] */\n      0xffffffffffffffffffffffffffffffffffffffff\n      and\n      0xffffffffffffffffffffffffffffffffffffffff\n      and\n      dup2\n      mstore\n      0x20\n      add\n      swap1\n      dup2\n      mstore\n      0x20\n      add\n      0x00\n      keccak256\n      sload\n        /* \"contracts/kipubank.sol\":6397:6423  userBalance = vaults[user] */\n      swap3\n      pop\n        /* \"contracts/kipubank.sol\":6528:6557  _calculateMaxWithdrawal(user) */\n      tag_100\n        /* \"contracts/kipubank.sol\":6552:6556  user */\n      dup5\n        /* \"contracts/kipubank.sol\":6528:6551  _calculateMaxWithdrawal */\n      tag_101\n        /* \"contracts/kipubank.sol\":6528:6557  _calculateMaxWithdrawal(user) */\n      jump\t// in\n    tag_100:\n        /* \"contracts/kipubank.sol\":6512:6557  maxWithdrawal = _calculateMaxWithdrawal(user) */\n      swap2\n      pop\n        /* \"contracts/kipubank.sol\":6673:6688  withdrawalLimit */\n      immutable(\"0x13600b294191fc92924bb3ce4b969c1e7e2bab8f4c93c3fc6d0a51733df3c060\")\n        /* \"contracts/kipubank.sol\":6658:6669  userBalance */\n      dup4\n        /* \"contracts/kipubank.sol\":6658:6688  userBalance <= withdrawalLimit */\n      gt\n      iszero\n        /* \"contracts/kipubank.sol\":6639:6688  canWithdrawFully = userBalance <= withdrawalLimit */\n      swap1\n      pop\n        /* \"contracts/kipubank.sol\":6106:6770  function getUserInfo(address user) ... */\n      swap2\n      swap4\n      swap1\n      swap3\n      pop\n      jump\t// out\n        /* \"contracts/kipubank.sol\":1038:1066  uint256 public totalDeposits */\n    tag_54:\n      sload(0x01)\n      dup2\n      jump\t// out\n        /* \"contracts/kipubank.sol\":407:447  uint256 public immutable withdrawalLimit */\n    tag_58:\n      immutable(\"0x13600b294191fc92924bb3ce4b969c1e7e2bab8f4c93c3fc6d0a51733df3c060\")\n      dup2\n      jump\t// out\n        /* \"contracts/kipubank.sol\":1354:1395  mapping(address => uint256) public vaults */\n    tag_63:\n      mstore(0x20, 0x03)\n      dup1\n      0x00\n      mstore\n      keccak256(0x00, 0x40)\n      0x00\n      swap2\n      pop\n      swap1\n      pop\n      sload\n      dup2\n      jump\t// out\n        /* \"contracts/kipubank.sol\":6860:7440  function getBankStats() ... */\n    tag_67:\n        /* \"contracts/kipubank.sol\":6951:6971  uint256 totalBalance */\n      0x00\n        /* \"contracts/kipubank.sol\":6986:7007  uint256 depositsCount */\n      0x00\n        /* \"contracts/kipubank.sol\":7022:7046  uint256 withdrawalsCount */\n      0x00\n        /* \"contracts/kipubank.sol\":7061:7086  uint256 remainingCapacity */\n      0x00\n        /* \"contracts/kipubank.sol\":7129:7145  totalBankBalance */\n      sload(0x00)\n        /* \"contracts/kipubank.sol\":7114:7145  totalBalance = totalBankBalance */\n      swap4\n      pop\n        /* \"contracts/kipubank.sol\":7172:7185  totalDeposits */\n      sload(0x01)\n        /* \"contracts/kipubank.sol\":7156:7185  depositsCount = totalDeposits */\n      swap3\n      pop\n        /* \"contracts/kipubank.sol\":7215:7231  totalWithdrawals */\n      sload(0x02)\n        /* \"contracts/kipubank.sol\":7196:7231  withdrawalsCount = totalWithdrawals */\n      swap2\n      pop\n        /* \"contracts/kipubank.sol\":7322:7338  totalBankBalance */\n      sload(0x00)\n        /* \"contracts/kipubank.sol\":7312:7319  bankCap */\n      immutable(\"0x52f1a9b320cab38e5da8a8f97989383aab0a49165fc91c737310e4f7e9821021\")\n        /* \"contracts/kipubank.sol\":7312:7338  bankCap - totalBankBalance */\n      tag_103\n      swap2\n      swap1\n      tag_22\n      jump\t// in\n    tag_103:\n        /* \"contracts/kipubank.sol\":7292:7338  remainingCapacity = bankCap - totalBankBalance */\n      swap1\n      pop\n        /* \"contracts/kipubank.sol\":6860:7440  function getBankStats() ... */\n      swap1\n      swap2\n      swap3\n      swap4\n      jump\t// out\n        /* \"contracts/kipubank.sol\":3547:4374  function deposit() external payable nonZeroAmount(msg.value) {... */\n    tag_71:\n        /* \"contracts/kipubank.sol\":3597:3606  msg.value */\n      callvalue\n        /* \"contracts/kipubank.sol\":3332:3333  0 */\n      0x00\n        /* \"contracts/kipubank.sol\":3322:3328  amount */\n      dup2\n        /* \"contracts/kipubank.sol\":3322:3333  amount == 0 */\n      sub\n        /* \"contracts/kipubank.sol\":3318:3381  if (amount == 0) {... */\n      tag_105\n      jumpi\n        /* \"contracts/kipubank.sol\":3357:3369  ZeroAmount() */\n      mload(0x40)\n      0x1f2a200500000000000000000000000000000000000000000000000000000000\n      dup2\n      mstore\n      0x04\n      add\n      mload(0x40)\n      dup1\n      swap2\n      sub\n      swap1\n      revert\n        /* \"contracts/kipubank.sol\":3318:3381  if (amount == 0) {... */\n    tag_105:\n        /* \"contracts/kipubank.sol\":734:745  0.001 ether */\n      0x038d7ea4c68000\n        /* \"contracts/kipubank.sol\":3687:3696  msg.value */\n      callvalue\n        /* \"contracts/kipubank.sol\":3687:3714  msg.value < MINIMUM_DEPOSIT */\n      lt\n        /* \"contracts/kipubank.sol\":3683:3793  if (msg.value < MINIMUM_DEPOSIT) {... */\n      iszero\n      tag_107\n      jumpi\n        /* \"contracts/kipubank.sol\":3754:3763  msg.value */\n      callvalue\n        /* \"contracts/kipubank.sol\":734:745  0.001 ether */\n      0x038d7ea4c68000\n        /* \"contracts/kipubank.sol\":3738:3781  DepositTooSmall(msg.value, MINIMUM_DEPOSIT) */\n      mload(0x40)\n      0x4a77f2fa00000000000000000000000000000000000000000000000000000000\n      dup2\n      mstore\n      0x04\n      add\n      tag_108\n      swap3\n      swap2\n      swap1\n      tag_20\n      jump\t// in\n    tag_108:\n      mload(0x40)\n      dup1\n      swap2\n      sub\n      swap1\n      revert\n        /* \"contracts/kipubank.sol\":3683:3793  if (msg.value < MINIMUM_DEPOSIT) {... */\n    tag_107:\n        /* \"contracts/kipubank.sol\":3884:3906  uint256 availableSpace */\n      0x00\n        /* \"contracts/kipubank.sol\":3919:3935  totalBankBalance */\n      sload(0x00)\n        /* \"contracts/kipubank.sol\":3909:3916  bankCap */\n      immutable(\"0x52f1a9b320cab38e5da8a8f97989383aab0a49165fc91c737310e4f7e9821021\")\n        /* \"contracts/kipubank.sol\":3909:3935  bankCap - totalBankBalance */\n      tag_109\n      swap2\n      swap1\n      tag_22\n      jump\t// in\n    tag_109:\n        /* \"contracts/kipubank.sol\":3884:3935  uint256 availableSpace = bankCap - totalBankBalance */\n      swap1\n      pop\n        /* \"contracts/kipubank.sol\":3962:3976  availableSpace */\n      dup1\n        /* \"contracts/kipubank.sol\":3950:3959  msg.value */\n      callvalue\n        /* \"contracts/kipubank.sol\":3950:3976  msg.value > availableSpace */\n      gt\n        /* \"contracts/kipubank.sol\":3946:4054  if (msg.value > availableSpace) {... */\n      iszero\n      tag_110\n      jumpi\n        /* \"contracts/kipubank.sol\":4016:4025  msg.value */\n      callvalue\n        /* \"contracts/kipubank.sol\":4027:4041  availableSpace */\n      dup2\n        /* \"contracts/kipubank.sol\":4000:4042  BankCapExceeded(msg.value, availableSpace) */\n      mload(0x40)\n      0x31728a0500000000000000000000000000000000000000000000000000000000\n      dup2\n      mstore\n      0x04\n      add\n      tag_111\n      swap3\n      swap2\n      swap1\n      tag_20\n      jump\t// in\n    tag_111:\n      mload(0x40)\n      dup1\n      swap2\n      sub\n      swap1\n      revert\n        /* \"contracts/kipubank.sol\":3946:4054  if (msg.value > availableSpace) {... */\n    tag_110:\n        /* \"contracts/kipubank.sol\":4165:4174  msg.value */\n      callvalue\n        /* \"contracts/kipubank.sol\":4143:4149  vaults */\n      0x03\n        /* \"contracts/kipubank.sol\":4143:4161  vaults[msg.sender] */\n      0x00\n        /* \"contracts/kipubank.sol\":4150:4160  msg.sender */\n      caller\n        /* \"contracts/kipubank.sol\":4143:4161  vaults[msg.sender] */\n      0xffffffffffffffffffffffffffffffffffffffff\n      and\n      0xffffffffffffffffffffffffffffffffffffffff\n      and\n      dup2\n      mstore\n      0x20\n      add\n      swap1\n      dup2\n      mstore\n      0x20\n      add\n      0x00\n      keccak256\n      0x00\n        /* \"contracts/kipubank.sol\":4143:4174  vaults[msg.sender] += msg.value */\n      dup3\n      dup3\n      sload\n      tag_112\n      swap2\n      swap1\n      tag_26\n      jump\t// in\n    tag_112:\n      swap3\n      pop\n      pop\n      dup2\n      swap1\n      sstore\n      pop\n        /* \"contracts/kipubank.sol\":4206:4215  msg.value */\n      callvalue\n        /* \"contracts/kipubank.sol\":4186:4202  totalBankBalance */\n      0x00\n      0x00\n        /* \"contracts/kipubank.sol\":4186:4215  totalBankBalance += msg.value */\n      dup3\n      dup3\n      sload\n      tag_113\n      swap2\n      swap1\n      tag_26\n      jump\t// in\n    tag_113:\n      swap3\n      pop\n      pop\n      dup2\n      swap1\n      sstore\n      pop\n        /* \"contracts/kipubank.sol\":4230:4243  totalDeposits */\n      0x01\n      0x00\n        /* \"contracts/kipubank.sol\":4230:4245  totalDeposits++ */\n      dup2\n      sload\n      dup1\n      swap3\n      swap2\n      swap1\n      tag_114\n      swap1\n      tag_29\n      jump\t// in\n    tag_114:\n      swap2\n      swap1\n      pop\n      sstore\n      pop\n        /* \"contracts/kipubank.sol\":4324:4334  msg.sender */\n      caller\n        /* \"contracts/kipubank.sol\":4316:4366  Deposit(msg.sender, msg.value, vaults[msg.sender]) */\n      0xffffffffffffffffffffffffffffffffffffffff\n      and\n      0x90890809c654f11d6e72a28fa60149770a0d11ec6c92319d6ceb2bb0a4ea1a15\n        /* \"contracts/kipubank.sol\":4336:4345  msg.value */\n      callvalue\n        /* \"contracts/kipubank.sol\":4347:4353  vaults */\n      0x03\n        /* \"contracts/kipubank.sol\":4347:4365  vaults[msg.sender] */\n      0x00\n        /* \"contracts/kipubank.sol\":4354:4364  msg.sender */\n      caller\n        /* \"contracts/kipubank.sol\":4347:4365  vaults[msg.sender] */\n      0xffffffffffffffffffffffffffffffffffffffff\n      and\n      0xffffffffffffffffffffffffffffffffffffffff\n      and\n      dup2\n      mstore\n      0x20\n      add\n      swap1\n      dup2\n      mstore\n      0x20\n      add\n      0x00\n      keccak256\n      sload\n        /* \"contracts/kipubank.sol\":4316:4366  Deposit(msg.sender, msg.value, vaults[msg.sender]) */\n      mload(0x40)\n      tag_115\n      swap3\n      swap2\n      swap1\n      tag_20\n      jump\t// in\n    tag_115:\n      mload(0x40)\n      dup1\n      swap2\n      sub\n      swap1\n      log2\n        /* \"contracts/kipubank.sol\":3608:4374  {... */\n      pop\n        /* \"contracts/kipubank.sol\":3547:4374  function deposit() external payable nonZeroAmount(msg.value) {... */\n      pop\n      jump\t// out\n        /* \"contracts/kipubank.sol\":554:586  uint256 public immutable bankCap */\n    tag_74:\n      immutable(\"0x52f1a9b320cab38e5da8a8f97989383aab0a49165fc91c737310e4f7e9821021\")\n      dup2\n      jump\t// out\n        /* \"contracts/kipubank.sol\":692:745  uint256 public constant MINIMUM_DEPOSIT = 0.001 ether */\n    tag_78:\n        /* \"contracts/kipubank.sol\":734:745  0.001 ether */\n      0x038d7ea4c68000\n        /* \"contracts/kipubank.sol\":692:745  uint256 public constant MINIMUM_DEPOSIT = 0.001 ether */\n      dup2\n      jump\t// out\n        /* \"contracts/kipubank.sol\":7607:8369  function _calculateMaxWithdrawal(address user) private view returns (uint256) {... */\n    tag_101:\n        /* \"contracts/kipubank.sol\":7676:7683  uint256 */\n      0x00\n        /* \"contracts/kipubank.sol\":7740:7759  uint256 userBalance */\n      0x00\n        /* \"contracts/kipubank.sol\":7762:7768  vaults */\n      0x03\n        /* \"contracts/kipubank.sol\":7762:7774  vaults[user] */\n      0x00\n        /* \"contracts/kipubank.sol\":7769:7773  user */\n      dup5\n        /* \"contracts/kipubank.sol\":7762:7774  vaults[user] */\n      0xffffffffffffffffffffffffffffffffffffffff\n      and\n      0xffffffffffffffffffffffffffffffffffffffff\n      and\n      dup2\n      mstore\n      0x20\n      add\n      swap1\n      dup2\n      mstore\n      0x20\n      add\n      0x00\n      keccak256\n      sload\n        /* \"contracts/kipubank.sol\":7740:7774  uint256 userBalance = vaults[user] */\n      swap1\n      pop\n        /* \"contracts/kipubank.sol\":7838:7859  uint256 bankLiquidity */\n      0x00\n        /* \"contracts/kipubank.sol\":7862:7883  address(this).balance */\n      selfbalance\n        /* \"contracts/kipubank.sol\":7838:7883  uint256 bankLiquidity = address(this).balance */\n      swap1\n      pop\n        /* \"contracts/kipubank.sol\":7974:7991  uint256 maxAmount */\n      0x00\n        /* \"contracts/kipubank.sol\":7994:8005  userBalance */\n      dup3\n        /* \"contracts/kipubank.sol\":7974:8005  uint256 maxAmount = userBalance */\n      swap1\n      pop\n        /* \"contracts/kipubank.sol\":8099:8114  withdrawalLimit */\n      immutable(\"0x13600b294191fc92924bb3ce4b969c1e7e2bab8f4c93c3fc6d0a51733df3c060\")\n        /* \"contracts/kipubank.sol\":8087:8096  maxAmount */\n      dup2\n        /* \"contracts/kipubank.sol\":8087:8114  maxAmount > withdrawalLimit */\n      gt\n        /* \"contracts/kipubank.sol\":8083:8170  if (maxAmount > withdrawalLimit) {... */\n      iszero\n      tag_117\n      jumpi\n        /* \"contracts/kipubank.sol\":8143:8158  withdrawalLimit */\n      immutable(\"0x13600b294191fc92924bb3ce4b969c1e7e2bab8f4c93c3fc6d0a51733df3c060\")\n        /* \"contracts/kipubank.sol\":8131:8158  maxAmount = withdrawalLimit */\n      swap1\n      pop\n        /* \"contracts/kipubank.sol\":8083:8170  if (maxAmount > withdrawalLimit) {... */\n    tag_117:\n        /* \"contracts/kipubank.sol\":8258:8271  bankLiquidity */\n      dup2\n        /* \"contracts/kipubank.sol\":8246:8255  maxAmount */\n      dup2\n        /* \"contracts/kipubank.sol\":8246:8271  maxAmount > bankLiquidity */\n      gt\n        /* \"contracts/kipubank.sol\":8242:8325  if (maxAmount > bankLiquidity) {... */\n      iszero\n      tag_118\n      jumpi\n        /* \"contracts/kipubank.sol\":8300:8313  bankLiquidity */\n      dup2\n        /* \"contracts/kipubank.sol\":8288:8313  maxAmount = bankLiquidity */\n      swap1\n      pop\n        /* \"contracts/kipubank.sol\":8242:8325  if (maxAmount > bankLiquidity) {... */\n    tag_118:\n        /* \"contracts/kipubank.sol\":8352:8361  maxAmount */\n      dup1\n        /* \"contracts/kipubank.sol\":8345:8361  return maxAmount */\n      swap4\n      pop\n      pop\n      pop\n      pop\n        /* \"contracts/kipubank.sol\":7607:8369  function _calculateMaxWithdrawal(address user) private view returns (uint256) {... */\n      swap2\n      swap1\n      pop\n      jump\t// out\n        /* \"#utility.yul\":7:84   */\n    tag_119:\n        /* \"#utility.yul\":44:51   */\n      0x00\n        /* \"#utility.yul\":73:78   */\n      dup2\n        /* \"#utility.yul\":62:78   */\n      swap1\n      pop\n        /* \"#utility.yul\":7:84   */\n      swap2\n      swap1\n      pop\n      jump\t// out\n        /* \"#utility.yul\":90:208   */\n    tag_120:\n        /* \"#utility.yul\":177:201   */\n      tag_139\n        /* \"#utility.yul\":195:200   */\n      dup2\n        /* \"#utility.yul\":177:201   */\n      tag_119\n      jump\t// in\n    tag_139:\n        /* \"#utility.yul\":172:175   */\n      dup3\n        /* \"#utility.yul\":165:202   */\n      mstore\n        /* \"#utility.yul\":90:208   */\n      pop\n      pop\n      jump\t// out\n        /* \"#utility.yul\":214:546   */\n    tag_20:\n        /* \"#utility.yul\":335:339   */\n      0x00\n        /* \"#utility.yul\":373:375   */\n      0x40\n        /* \"#utility.yul\":362:371   */\n      dup3\n        /* \"#utility.yul\":358:376   */\n      add\n        /* \"#utility.yul\":350:376   */\n      swap1\n      pop\n        /* \"#utility.yul\":386:457   */\n      tag_141\n        /* \"#utility.yul\":454:455   */\n      0x00\n        /* \"#utility.yul\":443:452   */\n      dup4\n        /* \"#utility.yul\":439:456   */\n      add\n        /* \"#utility.yul\":430:436   */\n      dup6\n        /* \"#utility.yul\":386:457   */\n      tag_120\n      jump\t// in\n    tag_141:\n        /* \"#utility.yul\":467:539   */\n      tag_142\n        /* \"#utility.yul\":535:537   */\n      0x20\n        /* \"#utility.yul\":524:533   */\n      dup4\n        /* \"#utility.yul\":520:538   */\n      add\n        /* \"#utility.yul\":511:517   */\n      dup5\n        /* \"#utility.yul\":467:539   */\n      tag_120\n      jump\t// in\n    tag_142:\n        /* \"#utility.yul\":214:546   */\n      swap4\n      swap3\n      pop\n      pop\n      pop\n      jump\t// out\n        /* \"#utility.yul\":552:732   */\n    tag_121:\n        /* \"#utility.yul\":600:677   */\n      0x4e487b7100000000000000000000000000000000000000000000000000000000\n        /* \"#utility.yul\":597:598   */\n      0x00\n        /* \"#utility.yul\":590:678   */\n      mstore\n        /* \"#utility.yul\":697:701   */\n      0x11\n        /* \"#utility.yul\":694:695   */\n      0x04\n        /* \"#utility.yul\":687:702   */\n      mstore\n        /* \"#utility.yul\":721:725   */\n      0x24\n        /* \"#utility.yul\":718:719   */\n      0x00\n        /* \"#utility.yul\":711:726   */\n      revert\n        /* \"#utility.yul\":738:932   */\n    tag_22:\n        /* \"#utility.yul\":778:782   */\n      0x00\n        /* \"#utility.yul\":798:818   */\n      tag_145\n        /* \"#utility.yul\":816:817   */\n      dup3\n        /* \"#utility.yul\":798:818   */\n      tag_119\n      jump\t// in\n    tag_145:\n        /* \"#utility.yul\":793:818   */\n      swap2\n      pop\n        /* \"#utility.yul\":832:852   */\n      tag_146\n        /* \"#utility.yul\":850:851   */\n      dup4\n        /* \"#utility.yul\":832:852   */\n      tag_119\n      jump\t// in\n    tag_146:\n        /* \"#utility.yul\":827:852   */\n      swap3\n      pop\n        /* \"#utility.yul\":876:877   */\n      dup3\n        /* \"#utility.yul\":873:874   */\n      dup3\n        /* \"#utility.yul\":869:878   */\n      sub\n        /* \"#utility.yul\":861:878   */\n      swap1\n      pop\n        /* \"#utility.yul\":900:901   */\n      dup2\n        /* \"#utility.yul\":894:898   */\n      dup2\n        /* \"#utility.yul\":891:902   */\n      gt\n        /* \"#utility.yul\":888:925   */\n      iszero\n      tag_147\n      jumpi\n        /* \"#utility.yul\":905:923   */\n      tag_148\n      tag_121\n      jump\t// in\n    tag_148:\n        /* \"#utility.yul\":888:925   */\n    tag_147:\n        /* \"#utility.yul\":738:932   */\n      swap3\n      swap2\n      pop\n      pop\n      jump\t// out\n        /* \"#utility.yul\":938:1129   */\n    tag_26:\n        /* \"#utility.yul\":978:981   */\n      0x00\n        /* \"#utility.yul\":997:1017   */\n      tag_150\n        /* \"#utility.yul\":1015:1016   */\n      dup3\n        /* \"#utility.yul\":997:1017   */\n      tag_119\n      jump\t// in\n    tag_150:\n        /* \"#utility.yul\":992:1017   */\n      swap2\n      pop\n        /* \"#utility.yul\":1031:1051   */\n      tag_151\n        /* \"#utility.yul\":1049:1050   */\n      dup4\n        /* \"#utility.yul\":1031:1051   */\n      tag_119\n      jump\t// in\n    tag_151:\n        /* \"#utility.yul\":1026:1051   */\n      swap3\n      pop\n        /* \"#utility.yul\":1074:1075   */\n      dup3\n        /* \"#utility.yul\":1071:1072   */\n      dup3\n        /* \"#utility.yul\":1067:1076   */\n      add\n        /* \"#utility.yul\":1060:1076   */\n      swap1\n      pop\n        /* \"#utility.yul\":1095:1098   */\n      dup1\n        /* \"#utility.yul\":1092:1093   */\n      dup3\n        /* \"#utility.yul\":1089:1099   */\n      gt\n        /* \"#utility.yul\":1086:1122   */\n      iszero\n      tag_152\n      jumpi\n        /* \"#utility.yul\":1102:1120   */\n      tag_153\n      tag_121\n      jump\t// in\n    tag_153:\n        /* \"#utility.yul\":1086:1122   */\n    tag_152:\n        /* \"#utility.yul\":938:1129   */\n      swap3\n      swap2\n      pop\n      pop\n      jump\t// out\n        /* \"#utility.yul\":1135:1368   */\n    tag_29:\n        /* \"#utility.yul\":1174:1177   */\n      0x00\n        /* \"#utility.yul\":1197:1221   */\n      tag_155\n        /* \"#utility.yul\":1215:1220   */\n      dup3\n        /* \"#utility.yul\":1197:1221   */\n      tag_119\n      jump\t// in\n    tag_155:\n        /* \"#utility.yul\":1188:1221   */\n      swap2\n      pop\n        /* \"#utility.yul\":1243:1309   */\n      0xffffffffffffffffffffffffffffffffffffffffffffffffffffffffffffffff\n        /* \"#utility.yul\":1236:1241   */\n      dup3\n        /* \"#utility.yul\":1233:1310   */\n      sub\n        /* \"#utility.yul\":1230:1333   */\n      tag_156\n      jumpi\n        /* \"#utility.yul\":1313:1331   */\n      tag_157\n      tag_121\n      jump\t// in\n    tag_157:\n        /* \"#utility.yul\":1230:1333   */\n    tag_156:\n        /* \"#utility.yul\":1360:1361   */\n      0x01\n        /* \"#utility.yul\":1353:1358   */\n      dup3\n        /* \"#utility.yul\":1349:1362   */\n      add\n        /* \"#utility.yul\":1342:1362   */\n      swap1\n      pop\n        /* \"#utility.yul\":1135:1368   */\n      swap2\n      swap1\n      pop\n      jump\t// out\n        /* \"#utility.yul\":1374:1596   */\n    tag_35:\n        /* \"#utility.yul\":1467:1471   */\n      0x00\n        /* \"#utility.yul\":1505:1507   */\n      0x20\n        /* \"#utility.yul\":1494:1503   */\n      dup3\n        /* \"#utility.yul\":1490:1508   */\n      add\n        /* \"#utility.yul\":1482:1508   */\n      swap1\n      pop\n        /* \"#utility.yul\":1518:1589   */\n      tag_159\n        /* \"#utility.yul\":1586:1587   */\n      0x00\n        /* \"#utility.yul\":1575:1584   */\n      dup4\n        /* \"#utility.yul\":1571:1588   */\n      add\n        /* \"#utility.yul\":1562:1568   */\n      dup5\n        /* \"#utility.yul\":1518:1589   */\n      tag_120\n      jump\t// in\n    tag_159:\n        /* \"#utility.yul\":1374:1596   */\n      swap3\n      swap2\n      pop\n      pop\n      jump\t// out\n        /* \"#utility.yul\":1683:1800   */\n    tag_123:\n        /* \"#utility.yul\":1792:1793   */\n      0x00\n        /* \"#utility.yul\":1789:1790   */\n      0x00\n        /* \"#utility.yul\":1782:1794   */\n      revert\n        /* \"#utility.yul\":1929:2051   */\n    tag_125:\n        /* \"#utility.yul\":2002:2026   */\n      tag_164\n        /* \"#utility.yul\":2020:2025   */\n      dup2\n        /* \"#utility.yul\":2002:2026   */\n      tag_119\n      jump\t// in\n    tag_164:\n        /* \"#utility.yul\":1995:2000   */\n      dup2\n        /* \"#utility.yul\":1992:2027   */\n      eq\n        /* \"#utility.yul\":1982:2045   */\n      tag_165\n      jumpi\n        /* \"#utility.yul\":2041:2042   */\n      0x00\n        /* \"#utility.yul\":2038:2039   */\n      0x00\n        /* \"#utility.yul\":2031:2043   */\n      revert\n        /* \"#utility.yul\":1982:2045   */\n    tag_165:\n        /* \"#utility.yul\":1929:2051   */\n      pop\n      jump\t// out\n        /* \"#utility.yul\":2057:2196   */\n    tag_126:\n        /* \"#utility.yul\":2103:2108   */\n      0x00\n        /* \"#utility.yul\":2141:2147   */\n      dup2\n        /* \"#utility.yul\":2128:2148   */\n      calldataload\n        /* \"#utility.yul\":2119:2148   */\n      swap1\n      pop\n        /* \"#utility.yul\":2157:2190   */\n      tag_167\n        /* \"#utility.yul\":2184:2189   */\n      dup2\n        /* \"#utility.yul\":2157:2190   */\n      tag_125\n      jump\t// in\n    tag_167:\n        /* \"#utility.yul\":2057:2196   */\n      swap3\n      swap2\n      pop\n      pop\n      jump\t// out\n        /* \"#utility.yul\":2202:2531   */\n    tag_39:\n        /* \"#utility.yul\":2261:2267   */\n      0x00\n        /* \"#utility.yul\":2310:2312   */\n      0x20\n        /* \"#utility.yul\":2298:2307   */\n      dup3\n        /* \"#utility.yul\":2289:2296   */\n      dup5\n        /* \"#utility.yul\":2285:2308   */\n      sub\n        /* \"#utility.yul\":2281:2313   */\n      slt\n        /* \"#utility.yul\":2278:2397   */\n      iszero\n      tag_169\n      jumpi\n        /* \"#utility.yul\":2316:2395   */\n      tag_170\n      tag_123\n      jump\t// in\n    tag_170:\n        /* \"#utility.yul\":2278:2397   */\n    tag_169:\n        /* \"#utility.yul\":2436:2437   */\n      0x00\n        /* \"#utility.yul\":2461:2514   */\n      tag_171\n        /* \"#utility.yul\":2506:2513   */\n      dup5\n        /* \"#utility.yul\":2497:2503   */\n      dup3\n        /* \"#utility.yul\":2486:2495   */\n      dup6\n        /* \"#utility.yul\":2482:2504   */\n      add\n        /* \"#utility.yul\":2461:2514   */\n      tag_126\n      jump\t// in\n    tag_171:\n        /* \"#utility.yul\":2451:2514   */\n      swap2\n      pop\n        /* \"#utility.yul\":2407:2524   */\n      pop\n        /* \"#utility.yul\":2202:2531   */\n      swap3\n      swap2\n      pop\n      pop\n      jump\t// out\n        /* \"#utility.yul\":2537:2663   */\n    tag_127:\n        /* \"#utility.yul\":2574:2581   */\n      0x00\n        /* \"#utility.yul\":2614:2656   */\n      0xffffffffffffffffffffffffffffffffffffffff\n        /* \"#utility.yul\":2607:2612   */\n      dup3\n        /* \"#utility.yul\":2603:2657   */\n      and\n        /* \"#utility.yul\":2592:2657   */\n      swap1\n      pop\n        /* \"#utility.yul\":2537:2663   */\n      swap2\n      swap1\n      pop\n      jump\t// out\n        /* \"#utility.yul\":2669:2765   */\n    tag_128:\n        /* \"#utility.yul\":2706:2713   */\n      0x00\n        /* \"#utility.yul\":2735:2759   */\n      tag_174\n        /* \"#utility.yul\":2753:2758   */\n      dup3\n        /* \"#utility.yul\":2735:2759   */\n      tag_127\n      jump\t// in\n    tag_174:\n        /* \"#utility.yul\":2724:2759   */\n      swap1\n      pop\n        /* \"#utility.yul\":2669:2765   */\n      swap2\n      swap1\n      pop\n      jump\t// out\n        /* \"#utility.yul\":2771:2893   */\n    tag_129:\n        /* \"#utility.yul\":2844:2868   */\n      tag_176\n        /* \"#utility.yul\":2862:2867   */\n      dup2\n        /* \"#utility.yul\":2844:2868   */\n      tag_128\n      jump\t// in\n    tag_176:\n        /* \"#utility.yul\":2837:2842   */\n      dup2\n        /* \"#utility.yul\":2834:2869   */\n      eq\n        /* \"#utility.yul\":2824:2887   */\n      tag_177\n      jumpi\n        /* \"#utility.yul\":2883:2884   */\n      0x00\n        /* \"#utility.yul\":2880:2881   */\n      0x00\n        /* \"#utility.yul\":2873:2885   */\n      revert\n        /* \"#utility.yul\":2824:2887   */\n    tag_177:\n        /* \"#utility.yul\":2771:2893   */\n      pop\n      jump\t// out\n        /* \"#utility.yul\":2899:3038   */\n    tag_130:\n        /* \"#utility.yul\":2945:2950   */\n      0x00\n        /* \"#utility.yul\":2983:2989   */\n      dup2\n        /* \"#utility.yul\":2970:2990   */\n      calldataload\n        /* \"#utility.yul\":2961:2990   */\n      swap1\n      pop\n        /* \"#utility.yul\":2999:3032   */\n      tag_179\n        /* \"#utility.yul\":3026:3031   */\n      dup2\n        /* \"#utility.yul\":2999:3032   */\n      tag_129\n      jump\t// in\n    tag_179:\n        /* \"#utility.yul\":2899:3038   */\n      swap3\n      swap2\n      pop\n      pop\n      jump\t// out\n        /* \"#utility.yul\":3044:3373   */\n    tag_48:\n        /* \"#utility.yul\":3103:3109   */\n      0x00\n        /* \"#utility.yul\":3152:3154   */\n      0x20\n        /* \"#utility.yul\":3140:3149   */\n      dup3\n        /* \"#utility.yul\":3131:3138   */\n      dup5\n        /* \"#utility.yul\":3127:3150   */\n      sub\n        /* \"#utility.yul\":3123:3155   */\n      slt\n        /* \"#utility.yul\":3120:3239   */\n      iszero\n      tag_181\n      jumpi\n        /* \"#utility.yul\":3158:3237   */\n      tag_182\n      tag_123\n      jump\t// in\n    tag_182:\n        /* \"#utility.yul\":3120:3239   */\n    tag_181:\n        /* \"#utility.yul\":3278:3279   */\n      0x00\n        /* \"#utility.yul\":3303:3356   */\n      tag_183\n        /* \"#utility.yul\":3348:3355   */\n      dup5\n        /* \"#utility.yul\":3339:3345   */\n      dup3\n        /* \"#utility.yul\":3328:3337   */\n      dup6\n        /* \"#utility.yul\":3324:3346   */\n      add\n        /* \"#utility.yul\":3303:3356   */\n      tag_130\n      jump\t// in\n    tag_183:\n        /* \"#utility.yul\":3293:3356   */\n      swap2\n      pop\n        /* \"#utility.yul\":3249:3366   */\n      pop\n        /* \"#utility.yul\":3044:3373   */\n      swap3\n      swap2\n      pop\n      pop\n      jump\t// out\n        /* \"#utility.yul\":3379:3469   */\n    tag_131:\n        /* \"#utility.yul\":3413:3420   */\n      0x00\n        /* \"#utility.yul\":3456:3461   */\n      dup2\n        /* \"#utility.yul\":3449:3462   */\n      iszero\n        /* \"#utility.yul\":3442:3463   */\n      iszero\n        /* \"#utility.yul\":3431:3463   */\n      swap1\n      pop\n        /* \"#utility.yul\":3379:3469   */\n      swap2\n      swap1\n      pop\n      jump\t// out\n        /* \"#utility.yul\":3475:3584   */\n    tag_132:\n        /* \"#utility.yul\":3556:3577   */\n      tag_186\n        /* \"#utility.yul\":3571:3576   */\n      dup2\n        /* \"#utility.yul\":3556:3577   */\n      tag_131\n      jump\t// in\n    tag_186:\n        /* \"#utility.yul\":3551:3554   */\n      dup3\n        /* \"#utility.yul\":3544:3578   */\n      mstore\n        /* \"#utility.yul\":3475:3584   */\n      pop\n      pop\n      jump\t// out\n        /* \"#utility.yul\":3590:4020   */\n    tag_51:\n        /* \"#utility.yul\":3733:3737   */\n      0x00\n        /* \"#utility.yul\":3771:3773   */\n      0x60\n        /* \"#utility.yul\":3760:3769   */\n      dup3\n        /* \"#utility.yul\":3756:3774   */\n      add\n        /* \"#utility.yul\":3748:3774   */\n      swap1\n      pop\n        /* \"#utility.yul\":3784:3855   */\n      tag_188\n        /* \"#utility.yul\":3852:3853   */\n      0x00\n        /* \"#utility.yul\":3841:3850   */\n      dup4\n        /* \"#utility.yul\":3837:3854   */\n      add\n        /* \"#utility.yul\":3828:3834   */\n      dup7\n        /* \"#utility.yul\":3784:3855   */\n      tag_120\n      jump\t// in\n    tag_188:\n        /* \"#utility.yul\":3865:3937   */\n      tag_189\n        /* \"#utility.yul\":3933:3935   */\n      0x20\n        /* \"#utility.yul\":3922:3931   */\n      dup4\n        /* \"#utility.yul\":3918:3936   */\n      add\n        /* \"#utility.yul\":3909:3915   */\n      dup6\n        /* \"#utility.yul\":3865:3937   */\n      tag_120\n      jump\t// in\n    tag_189:\n        /* \"#utility.yul\":3947:4013   */\n      tag_190\n        /* \"#utility.yul\":4009:4011   */\n      0x40\n        /* \"#utility.yul\":3998:4007   */\n      dup4\n        /* \"#utility.yul\":3994:4012   */\n      add\n        /* \"#utility.yul\":3985:3991   */\n      dup5\n        /* \"#utility.yul\":3947:4013   */\n      tag_132\n      jump\t// in\n    tag_190:\n        /* \"#utility.yul\":3590:4020   */\n      swap5\n      swap4\n      pop\n      pop\n      pop\n      pop\n      jump\t// out\n        /* \"#utility.yul\":4026:4579   */\n    tag_69:\n        /* \"#utility.yul\":4203:4207   */\n      0x00\n        /* \"#utility.yul\":4241:4244   */\n      0x80\n        /* \"#utility.yul\":4230:4239   */\n      dup3\n        /* \"#utility.yul\":4226:4245   */\n      add\n        /* \"#utility.yul\":4218:4245   */\n      swap1\n      pop\n        /* \"#utility.yul\":4255:4326   */\n      tag_192\n        /* \"#utility.yul\":4323:4324   */\n      0x00\n        /* \"#utility.yul\":4312:4321   */\n      dup4\n        /* \"#utility.yul\":4308:4325   */\n      add\n        /* \"#utility.yul\":4299:4305   */\n      dup8\n        /* \"#utility.yul\":4255:4326   */\n      tag_120\n      jump\t// in\n    tag_192:\n        /* \"#utility.yul\":4336:4408   */\n      tag_193\n        /* \"#utility.yul\":4404:4406   */\n      0x20\n        /* \"#utility.yul\":4393:4402   */\n      dup4\n        /* \"#utility.yul\":4389:4407   */\n      add\n        /* \"#utility.yul\":4380:4386   */\n      dup7\n        /* \"#utility.yul\":4336:4408   */\n      tag_120\n      jump\t// in\n    tag_193:\n        /* \"#utility.yul\":4418:4490   */\n      tag_194\n        /* \"#utility.yul\":4486:4488   */\n      0x40\n        /* \"#utility.yul\":4475:4484   */\n      dup4\n        /* \"#utility.yul\":4471:4489   */\n      add\n        /* \"#utility.yul\":4462:4468   */\n      dup6\n        /* \"#utility.yul\":4418:4490   */\n      tag_120\n      jump\t// in\n    tag_194:\n        /* \"#utility.yul\":4500:4572   */\n      tag_195\n        /* \"#utility.yul\":4568:4570   */\n      0x60\n        /* \"#utility.yul\":4557:4566   */\n      dup4\n        /* \"#utility.yul\":4553:4571   */\n      add\n        /* \"#utility.yul\":4544:4550   */\n      dup5\n        /* \"#utility.yul\":4500:4572   */\n      tag_120\n      jump\t// in\n    tag_195:\n        /* \"#utility.yul\":4026:4579   */\n      swap6\n      swap5\n      pop\n      pop\n      pop\n      pop\n      pop\n      jump\t// out\n        /* \"#utility.yul\":4585:4732   */\n    tag_133:\n        /* \"#utility.yul\":4686:4697   */\n      0x00\n        /* \"#utility.yul\":4723:4726   */\n      dup2\n        /* \"#utility.yul\":4708:4726   */\n      swap1\n      pop\n        /* \"#utility.yul\":4585:4732   */\n      swap3\n      swap2\n      pop\n      pop\n      jump\t// out\n        /* \"#utility.yul\":4738:4852   */\n    tag_134:\n      pop\n      jump\t// out\n        /* \"#utility.yul\":4858:5256   */\n    tag_135:\n        /* \"#utility.yul\":5017:5020   */\n      0x00\n        /* \"#utility.yul\":5038:5121   */\n      tag_199\n        /* \"#utility.yul\":5119:5120   */\n      0x00\n        /* \"#utility.yul\":5114:5117   */\n      dup4\n        /* \"#utility.yul\":5038:5121   */\n      tag_133\n      jump\t// in\n    tag_199:\n        /* \"#utility.yul\":5031:5121   */\n      swap2\n      pop\n        /* \"#utility.yul\":5130:5223   */\n      tag_200\n        /* \"#utility.yul\":5219:5222   */\n      dup3\n        /* \"#utility.yul\":5130:5223   */\n      tag_134\n      jump\t// in\n    tag_200:\n        /* \"#utility.yul\":5248:5249   */\n      0x00\n        /* \"#utility.yul\":5243:5246   */\n      dup3\n        /* \"#utility.yul\":5239:5250   */\n      add\n        /* \"#utility.yul\":5232:5250   */\n      swap1\n      pop\n        /* \"#utility.yul\":4858:5256   */\n      swap2\n      swap1\n      pop\n      jump\t// out\n        /* \"#utility.yul\":5262:5641   */\n    tag_93:\n        /* \"#utility.yul\":5446:5449   */\n      0x00\n        /* \"#utility.yul\":5468:5615   */\n      tag_202\n        /* \"#utility.yul\":5611:5614   */\n      dup3\n        /* \"#utility.yul\":5468:5615   */\n      tag_135\n      jump\t// in\n    tag_202:\n        /* \"#utility.yul\":5461:5615   */\n      swap2\n      pop\n        /* \"#utility.yul\":5632:5635   */\n      dup2\n        /* \"#utility.yul\":5625:5635   */\n      swap1\n      pop\n        /* \"#utility.yul\":5262:5641   */\n      swap2\n      swap1\n      pop\n      jump\t// out\n\n    auxdata: 0xa26469706673582212202e8524ec9ee904b5174dc9ef69513b17cca61e4aabe23fb149411589d334658d64736f6c634300081e0033\n}\n",
				"bytecode": {
					"linkReferences": {},
					"object": "60c060405234801561000f575f5ffd5b50670de0b6b3a76400006080818152505068056bc75e2d6310000060a0818152505060805160a051610f2b61008a5f395f8181610137015281816108ed015281816109b20152610b3801525f8181610594015281816105bd0152818161086d015281816108a001528181610bb10152610bd90152610f2b5ff3fe60806040526004361061009f575f3560e01c80637ddfe78d116100635780637ddfe78d146103a1578063a622ee7c146103cb578063c6e8e38c14610407578063d0e30db014610434578063ecbea24d1461043e578063f19451d814610468576102b9565b80631977e938146102bd5780632e1a7d4d146102e7578063604646271461030f5780636386c1c7146103395780637d88209714610377576102b9565b366102b9575f34036100dd576040517f1f2a200500000000000000000000000000000000000000000000000000000000815260040160405180910390fd5b66038d7ea4c68000341015610132573466038d7ea4c680006040517f4a77f2fa000000000000000000000000000000000000000000000000000000008152600401610129929190610c2a565b60405180910390fd5b5f5f547f00000000000000000000000000000000000000000000000000000000000000006101609190610c7e565b9050803411156101a95734816040517f31728a050000000000000000000000000000000000000000000000000000000081526004016101a0929190610c2a565b60405180910390fd5b3460035f3373ffffffffffffffffffffffffffffffffffffffff1673ffffffffffffffffffffffffffffffffffffffff1681526020019081526020015f205f8282546101f59190610cb1565b92505081905550345f5f82825461020c9190610cb1565b9250508190555060015f81548092919061022590610ce4565b91905055503373ffffffffffffffffffffffffffffffffffffffff167f90890809c654f11d6e72a28fa60149770a0d11ec6c92319d6ceb2bb0a4ea1a153460035f3373ffffffffffffffffffffffffffffffffffffffff1673ffffffffffffffffffffffffffffffffffffffff1681526020019081526020015f20546040516102af929190610c2a565b60405180910390a2005b5f5ffd5b3480156102c8575f5ffd5b506102d1610492565b6040516102de9190610d2b565b60405180910390f35b3480156102f2575f5ffd5b5061030d60048036038101906103089190610d72565b610497565b005b34801561031a575f5ffd5b50610323610817565b6040516103309190610d2b565b60405180910390f35b348015610344575f5ffd5b5061035f600480360381019061035a9190610df7565b61081d565b60405161036e93929190610e3c565b60405180910390f35b348015610382575f5ffd5b5061038b610898565b6040516103989190610d2b565b60405180910390f35b3480156103ac575f5ffd5b506103b561089e565b6040516103c29190610d2b565b60405180910390f35b3480156103d6575f5ffd5b506103f160048036038101906103ec9190610df7565b6108c2565b6040516103fe9190610d2b565b60405180910390f35b348015610412575f5ffd5b5061041b6108d7565b60405161042b9493929190610e71565b60405180910390f35b61043c61091e565b005b348015610449575f5ffd5b50610452610b36565b60405161045f9190610d2b565b60405180910390f35b348015610473575f5ffd5b5061047c610b5a565b6040516104899190610d2b565b60405180910390f35b5f5481565b805f81036104d1576040517f1f2a200500000000000000000000000000000000000000000000000000000000815260040160405180910390fd5b60035f3373ffffffffffffffffffffffffffffffffffffffff1673ffffffffffffffffffffffffffffffffffffffff1681526020019081526020015f2054821115610592578160035f3373ffffffffffffffffffffffffffffffffffffffff1673ffffffffffffffffffffffffffffffffffffffff1681526020019081526020015f20546040517fcf479181000000000000000000000000000000000000000000000000000000008152600401610589929190610c2a565b60405180910390fd5b7f000000000000000000000000000000000000000000000000000000000000000082111561061957817f00000000000000000000000000000000000000000000000000000000000000006040517fb945e2d8000000000000000000000000000000000000000000000000000000008152600401610610929190610c2a565b60405180910390fd5b478211156106605781476040517f26af0c24000000000000000000000000000000000000000000000000000000008152600401610657929190610c2a565b60405180910390fd5b8160035f3373ffffffffffffffffffffffffffffffffffffffff1673ffffffffffffffffffffffffffffffffffffffff1681526020019081526020015f205f8282546106ac9190610c7e565b92505081905550815f5f8282546106c39190610c7e565b9250508190555060025f8154809291906106dc90610ce4565b91905055505f60035f3373ffffffffffffffffffffffffffffffffffffffff1673ffffffffffffffffffffffffffffffffffffffff1681526020019081526020015f205490505f3373ffffffffffffffffffffffffffffffffffffffff168460405161074790610ee1565b5f6040518083038185875af1925050503d805f8114610781576040519150601f19603f3d011682016040523d82523d5f602084013e610786565b606091505b50509050806107c1576040517f90b8ec1800000000000000000000000000000000000000000000000000000000815260040160405180910390fd5b3373ffffffffffffffffffffffffffffffffffffffff167fdf273cb619d95419a9cd0ec88123a0538c85064229baa6363788f743fff90deb8584604051610809929190610c2a565b60405180910390a250505050565b60025481565b5f5f5f60035f8573ffffffffffffffffffffffffffffffffffffffff1673ffffffffffffffffffffffffffffffffffffffff1681526020019081526020015f2054925061086984610b65565b91507f000000000000000000000000000000000000000000000000000000000000000083111590509193909250565b60015481565b7f000000000000000000000000000000000000000000000000000000000000000081565b6003602052805f5260405f205f915090505481565b5f5f5f5f5f549350600154925060025491505f547f00000000000000000000000000000000000000000000000000000000000000006109169190610c7e565b905090919293565b345f8103610958576040517f1f2a200500000000000000000000000000000000000000000000000000000000815260040160405180910390fd5b66038d7ea4c680003410156109ad573466038d7ea4c680006040517f4a77f2fa0000000000000000000000000000000000000000000000000000000081526004016109a4929190610c2a565b60405180910390fd5b5f5f547f00000000000000000000000000000000000000000000000000000000000000006109db9190610c7e565b905080341115610a245734816040517f31728a05000000000000000000000000000000000000000000000000000000008152600401610a1b929190610c2a565b60405180910390fd5b3460035f3373ffffffffffffffffffffffffffffffffffffffff1673ffffffffffffffffffffffffffffffffffffffff1681526020019081526020015f205f828254610a709190610cb1565b92505081905550345f5f828254610a879190610cb1565b9250508190555060015f815480929190610aa090610ce4565b91905055503373ffffffffffffffffffffffffffffffffffffffff167f90890809c654f11d6e72a28fa60149770a0d11ec6c92319d6ceb2bb0a4ea1a153460035f3373ffffffffffffffffffffffffffffffffffffffff1673ffffffffffffffffffffffffffffffffffffffff1681526020019081526020015f2054604051610b2a929190610c2a565b60405180910390a25050565b7f000000000000000000000000000000000000000000000000000000000000000081565b66038d7ea4c6800081565b5f5f60035f8473ffffffffffffffffffffffffffffffffffffffff1673ffffffffffffffffffffffffffffffffffffffff1681526020019081526020015f205490505f4790505f8290507f0000000000000000000000000000000000000000000000000000000000000000811115610bfb577f000000000000000000000000000000000000000000000000000000000000000090505b81811115610c07578190505b809350505050919050565b5f819050919050565b610c2481610c12565b82525050565b5f604082019050610c3d5f830185610c1b565b610c4a6020830184610c1b565b9392505050565b7f4e487b71000000000000000000000000000000000000000000000000000000005f52601160045260245ffd5b5f610c8882610c12565b9150610c9383610c12565b9250828203905081811115610cab57610caa610c51565b5b92915050565b5f610cbb82610c12565b9150610cc683610c12565b9250828201905080821115610cde57610cdd610c51565b5b92915050565b5f610cee82610c12565b91507fffffffffffffffffffffffffffffffffffffffffffffffffffffffffffffffff8203610d2057610d1f610c51565b5b600182019050919050565b5f602082019050610d3e5f830184610c1b565b92915050565b5f5ffd5b610d5181610c12565b8114610d5b575f5ffd5b50565b5f81359050610d6c81610d48565b92915050565b5f60208284031215610d8757610d86610d44565b5b5f610d9484828501610d5e565b91505092915050565b5f73ffffffffffffffffffffffffffffffffffffffff82169050919050565b5f610dc682610d9d565b9050919050565b610dd681610dbc565b8114610de0575f5ffd5b50565b5f81359050610df181610dcd565b92915050565b5f60208284031215610e0c57610e0b610d44565b5b5f610e1984828501610de3565b91505092915050565b5f8115159050919050565b610e3681610e22565b82525050565b5f606082019050610e4f5f830186610c1b565b610e5c6020830185610c1b565b610e696040830184610e2d565b949350505050565b5f608082019050610e845f830187610c1b565b610e916020830186610c1b565b610e9e6040830185610c1b565b610eab6060830184610c1b565b95945050505050565b5f81905092915050565b50565b5f610ecc5f83610eb4565b9150610ed782610ebe565b5f82019050919050565b5f610eeb82610ec1565b915081905091905056fea26469706673582212202e8524ec9ee904b5174dc9ef69513b17cca61e4aabe23fb149411589d334658d64736f6c634300081e0033",
					"opcodes": "PUSH1 0xC0 PUSH1 0x40 MSTORE CALLVALUE DUP1 ISZERO PUSH2 0xF JUMPI PUSH0 PUSH0 REVERT JUMPDEST POP PUSH8 0xDE0B6B3A7640000 PUSH1 0x80 DUP2 DUP2 MSTORE POP POP PUSH9 0x56BC75E2D63100000 PUSH1 0xA0 DUP2 DUP2 MSTORE POP POP PUSH1 0x80 MLOAD PUSH1 0xA0 MLOAD PUSH2 0xF2B PUSH2 0x8A PUSH0 CODECOPY PUSH0 DUP2 DUP2 PUSH2 0x137 ADD MSTORE DUP2 DUP2 PUSH2 0x8ED ADD MSTORE DUP2 DUP2 PUSH2 0x9B2 ADD MSTORE PUSH2 0xB38 ADD MSTORE PUSH0 DUP2 DUP2 PUSH2 0x594 ADD MSTORE DUP2 DUP2 PUSH2 0x5BD ADD MSTORE DUP2 DUP2 PUSH2 0x86D ADD MSTORE DUP2 DUP2 PUSH2 0x8A0 ADD MSTORE DUP2 DUP2 PUSH2 0xBB1 ADD MSTORE PUSH2 0xBD9 ADD MSTORE PUSH2 0xF2B PUSH0 RETURN INVALID PUSH1 0x80 PUSH1 0x40 MSTORE PUSH1 0x4 CALLDATASIZE LT PUSH2 0x9F JUMPI PUSH0 CALLDATALOAD PUSH1 0xE0 SHR DUP1 PUSH4 0x7DDFE78D GT PUSH2 0x63 JUMPI DUP1 PUSH4 0x7DDFE78D EQ PUSH2 0x3A1 JUMPI DUP1 PUSH4 0xA622EE7C EQ PUSH2 0x3CB JUMPI DUP1 PUSH4 0xC6E8E38C EQ PUSH2 0x407 JUMPI DUP1 PUSH4 0xD0E30DB0 EQ PUSH2 0x434 JUMPI DUP1 PUSH4 0xECBEA24D EQ PUSH2 0x43E JUMPI DUP1 PUSH4 0xF19451D8 EQ PUSH2 0x468 JUMPI PUSH2 0x2B9 JUMP JUMPDEST DUP1 PUSH4 0x1977E938 EQ PUSH2 0x2BD JUMPI DUP1 PUSH4 0x2E1A7D4D EQ PUSH2 0x2E7 JUMPI DUP1 PUSH4 0x60464627 EQ PUSH2 0x30F JUMPI DUP1 PUSH4 0x6386C1C7 EQ PUSH2 0x339 JUMPI DUP1 PUSH4 0x7D882097 EQ PUSH2 0x377 JUMPI PUSH2 0x2B9 JUMP JUMPDEST CALLDATASIZE PUSH2 0x2B9 JUMPI PUSH0 CALLVALUE SUB PUSH2 0xDD JUMPI PUSH1 0x40 MLOAD PUSH32 0x1F2A200500000000000000000000000000000000000000000000000000000000 DUP2 MSTORE PUSH1 0x4 ADD PUSH1 0x40 MLOAD DUP1 SWAP2 SUB SWAP1 REVERT JUMPDEST PUSH7 0x38D7EA4C68000 CALLVALUE LT ISZERO PUSH2 0x132 JUMPI CALLVALUE PUSH7 0x38D7EA4C68000 PUSH1 0x40 MLOAD PUSH32 0x4A77F2FA00000000000000000000000000000000000000000000000000000000 DUP2 MSTORE PUSH1 0x4 ADD PUSH2 0x129 SWAP3 SWAP2 SWAP1 PUSH2 0xC2A JUMP JUMPDEST PUSH1 0x40 MLOAD DUP1 SWAP2 SUB SWAP1 REVERT JUMPDEST PUSH0 PUSH0 SLOAD PUSH32 0x0 PUSH2 0x160 SWAP2 SWAP1 PUSH2 0xC7E JUMP JUMPDEST SWAP1 POP DUP1 CALLVALUE GT ISZERO PUSH2 0x1A9 JUMPI CALLVALUE DUP2 PUSH1 0x40 MLOAD PUSH32 0x31728A0500000000000000000000000000000000000000000000000000000000 DUP2 MSTORE PUSH1 0x4 ADD PUSH2 0x1A0 SWAP3 SWAP2 SWAP1 PUSH2 0xC2A JUMP JUMPDEST PUSH1 0x40 MLOAD DUP1 SWAP2 SUB SWAP1 REVERT JUMPDEST CALLVALUE PUSH1 0x3 PUSH0 CALLER PUSH20 0xFFFFFFFFFFFFFFFFFFFFFFFFFFFFFFFFFFFFFFFF AND PUSH20 0xFFFFFFFFFFFFFFFFFFFFFFFFFFFFFFFFFFFFFFFF AND DUP2 MSTORE PUSH1 0x20 ADD SWAP1 DUP2 MSTORE PUSH1 0x20 ADD PUSH0 KECCAK256 PUSH0 DUP3 DUP3 SLOAD PUSH2 0x1F5 SWAP2 SWAP1 PUSH2 0xCB1 JUMP JUMPDEST SWAP3 POP POP DUP2 SWAP1 SSTORE POP CALLVALUE PUSH0 PUSH0 DUP3 DUP3 SLOAD PUSH2 0x20C SWAP2 SWAP1 PUSH2 0xCB1 JUMP JUMPDEST SWAP3 POP POP DUP2 SWAP1 SSTORE POP PUSH1 0x1 PUSH0 DUP2 SLOAD DUP1 SWAP3 SWAP2 SWAP1 PUSH2 0x225 SWAP1 PUSH2 0xCE4 JUMP JUMPDEST SWAP2 SWAP1 POP SSTORE POP CALLER PUSH20 0xFFFFFFFFFFFFFFFFFFFFFFFFFFFFFFFFFFFFFFFF AND PUSH32 0x90890809C654F11D6E72A28FA60149770A0D11EC6C92319D6CEB2BB0A4EA1A15 CALLVALUE PUSH1 0x3 PUSH0 CALLER PUSH20 0xFFFFFFFFFFFFFFFFFFFFFFFFFFFFFFFFFFFFFFFF AND PUSH20 0xFFFFFFFFFFFFFFFFFFFFFFFFFFFFFFFFFFFFFFFF AND DUP2 MSTORE PUSH1 0x20 ADD SWAP1 DUP2 MSTORE PUSH1 0x20 ADD PUSH0 KECCAK256 SLOAD PUSH1 0x40 MLOAD PUSH2 0x2AF SWAP3 SWAP2 SWAP1 PUSH2 0xC2A JUMP JUMPDEST PUSH1 0x40 MLOAD DUP1 SWAP2 SUB SWAP1 LOG2 STOP JUMPDEST PUSH0 PUSH0 REVERT JUMPDEST CALLVALUE DUP1 ISZERO PUSH2 0x2C8 JUMPI PUSH0 PUSH0 REVERT JUMPDEST POP PUSH2 0x2D1 PUSH2 0x492 JUMP JUMPDEST PUSH1 0x40 MLOAD PUSH2 0x2DE SWAP2 SWAP1 PUSH2 0xD2B JUMP JUMPDEST PUSH1 0x40 MLOAD DUP1 SWAP2 SUB SWAP1 RETURN JUMPDEST CALLVALUE DUP1 ISZERO PUSH2 0x2F2 JUMPI PUSH0 PUSH0 REVERT JUMPDEST POP PUSH2 0x30D PUSH1 0x4 DUP1 CALLDATASIZE SUB DUP2 ADD SWAP1 PUSH2 0x308 SWAP2 SWAP1 PUSH2 0xD72 JUMP JUMPDEST PUSH2 0x497 JUMP JUMPDEST STOP JUMPDEST CALLVALUE DUP1 ISZERO PUSH2 0x31A JUMPI PUSH0 PUSH0 REVERT JUMPDEST POP PUSH2 0x323 PUSH2 0x817 JUMP JUMPDEST PUSH1 0x40 MLOAD PUSH2 0x330 SWAP2 SWAP1 PUSH2 0xD2B JUMP JUMPDEST PUSH1 0x40 MLOAD DUP1 SWAP2 SUB SWAP1 RETURN JUMPDEST CALLVALUE DUP1 ISZERO PUSH2 0x344 JUMPI PUSH0 PUSH0 REVERT JUMPDEST POP PUSH2 0x35F PUSH1 0x4 DUP1 CALLDATASIZE SUB DUP2 ADD SWAP1 PUSH2 0x35A SWAP2 SWAP1 PUSH2 0xDF7 JUMP JUMPDEST PUSH2 0x81D JUMP JUMPDEST PUSH1 0x40 MLOAD PUSH2 0x36E SWAP4 SWAP3 SWAP2 SWAP1 PUSH2 0xE3C JUMP JUMPDEST PUSH1 0x40 MLOAD DUP1 SWAP2 SUB SWAP1 RETURN JUMPDEST CALLVALUE DUP1 ISZERO PUSH2 0x382 JUMPI PUSH0 PUSH0 REVERT JUMPDEST POP PUSH2 0x38B PUSH2 0x898 JUMP JUMPDEST PUSH1 0x40 MLOAD PUSH2 0x398 SWAP2 SWAP1 PUSH2 0xD2B JUMP JUMPDEST PUSH1 0x40 MLOAD DUP1 SWAP2 SUB SWAP1 RETURN JUMPDEST CALLVALUE DUP1 ISZERO PUSH2 0x3AC JUMPI PUSH0 PUSH0 REVERT JUMPDEST POP PUSH2 0x3B5 PUSH2 0x89E JUMP JUMPDEST PUSH1 0x40 MLOAD PUSH2 0x3C2 SWAP2 SWAP1 PUSH2 0xD2B JUMP JUMPDEST PUSH1 0x40 MLOAD DUP1 SWAP2 SUB SWAP1 RETURN JUMPDEST CALLVALUE DUP1 ISZERO PUSH2 0x3D6 JUMPI PUSH0 PUSH0 REVERT JUMPDEST POP PUSH2 0x3F1 PUSH1 0x4 DUP1 CALLDATASIZE SUB DUP2 ADD SWAP1 PUSH2 0x3EC SWAP2 SWAP1 PUSH2 0xDF7 JUMP JUMPDEST PUSH2 0x8C2 JUMP JUMPDEST PUSH1 0x40 MLOAD PUSH2 0x3FE SWAP2 SWAP1 PUSH2 0xD2B JUMP JUMPDEST PUSH1 0x40 MLOAD DUP1 SWAP2 SUB SWAP1 RETURN JUMPDEST CALLVALUE DUP1 ISZERO PUSH2 0x412 JUMPI PUSH0 PUSH0 REVERT JUMPDEST POP PUSH2 0x41B PUSH2 0x8D7 JUMP JUMPDEST PUSH1 0x40 MLOAD PUSH2 0x42B SWAP5 SWAP4 SWAP3 SWAP2 SWAP1 PUSH2 0xE71 JUMP JUMPDEST PUSH1 0x40 MLOAD DUP1 SWAP2 SUB SWAP1 RETURN JUMPDEST PUSH2 0x43C PUSH2 0x91E JUMP JUMPDEST STOP JUMPDEST CALLVALUE DUP1 ISZERO PUSH2 0x449 JUMPI PUSH0 PUSH0 REVERT JUMPDEST POP PUSH2 0x452 PUSH2 0xB36 JUMP JUMPDEST PUSH1 0x40 MLOAD PUSH2 0x45F SWAP2 SWAP1 PUSH2 0xD2B JUMP JUMPDEST PUSH1 0x40 MLOAD DUP1 SWAP2 SUB SWAP1 RETURN JUMPDEST CALLVALUE DUP1 ISZERO PUSH2 0x473 JUMPI PUSH0 PUSH0 REVERT JUMPDEST POP PUSH2 0x47C PUSH2 0xB5A JUMP JUMPDEST PUSH1 0x40 MLOAD PUSH2 0x489 SWAP2 SWAP1 PUSH2 0xD2B JUMP JUMPDEST PUSH1 0x40 MLOAD DUP1 SWAP2 SUB SWAP1 RETURN JUMPDEST PUSH0 SLOAD DUP2 JUMP JUMPDEST DUP1 PUSH0 DUP2 SUB PUSH2 0x4D1 JUMPI PUSH1 0x40 MLOAD PUSH32 0x1F2A200500000000000000000000000000000000000000000000000000000000 DUP2 MSTORE PUSH1 0x4 ADD PUSH1 0x40 MLOAD DUP1 SWAP2 SUB SWAP1 REVERT JUMPDEST PUSH1 0x3 PUSH0 CALLER PUSH20 0xFFFFFFFFFFFFFFFFFFFFFFFFFFFFFFFFFFFFFFFF AND PUSH20 0xFFFFFFFFFFFFFFFFFFFFFFFFFFFFFFFFFFFFFFFF AND DUP2 MSTORE PUSH1 0x20 ADD SWAP1 DUP2 MSTORE PUSH1 0x20 ADD PUSH0 KECCAK256 SLOAD DUP3 GT ISZERO PUSH2 0x592 JUMPI DUP2 PUSH1 0x3 PUSH0 CALLER PUSH20 0xFFFFFFFFFFFFFFFFFFFFFFFFFFFFFFFFFFFFFFFF AND PUSH20 0xFFFFFFFFFFFFFFFFFFFFFFFFFFFFFFFFFFFFFFFF AND DUP2 MSTORE PUSH1 0x20 ADD SWAP1 DUP2 MSTORE PUSH1 0x20 ADD PUSH0 KECCAK256 SLOAD PUSH1 0x40 MLOAD PUSH32 0xCF47918100000000000000000000000000000000000000000000000000000000 DUP2 MSTORE PUSH1 0x4 ADD PUSH2 0x589 SWAP3 SWAP2 SWAP1 PUSH2 0xC2A JUMP JUMPDEST PUSH1 0x40 MLOAD DUP1 SWAP2 SUB SWAP1 REVERT JUMPDEST PUSH32 0x0 DUP3 GT ISZERO PUSH2 0x619 JUMPI DUP2 PUSH32 0x0 PUSH1 0x40 MLOAD PUSH32 0xB945E2D800000000000000000000000000000000000000000000000000000000 DUP2 MSTORE PUSH1 0x4 ADD PUSH2 0x610 SWAP3 SWAP2 SWAP1 PUSH2 0xC2A JUMP JUMPDEST PUSH1 0x40 MLOAD DUP1 SWAP2 SUB SWAP1 REVERT JUMPDEST SELFBALANCE DUP3 GT ISZERO PUSH2 0x660 JUMPI DUP2 SELFBALANCE PUSH1 0x40 MLOAD PUSH32 0x26AF0C2400000000000000000000000000000000000000000000000000000000 DUP2 MSTORE PUSH1 0x4 ADD PUSH2 0x657 SWAP3 SWAP2 SWAP1 PUSH2 0xC2A JUMP JUMPDEST PUSH1 0x40 MLOAD DUP1 SWAP2 SUB SWAP1 REVERT JUMPDEST DUP2 PUSH1 0x3 PUSH0 CALLER PUSH20 0xFFFFFFFFFFFFFFFFFFFFFFFFFFFFFFFFFFFFFFFF AND PUSH20 0xFFFFFFFFFFFFFFFFFFFFFFFFFFFFFFFFFFFFFFFF AND DUP2 MSTORE PUSH1 0x20 ADD SWAP1 DUP2 MSTORE PUSH1 0x20 ADD PUSH0 KECCAK256 PUSH0 DUP3 DUP3 SLOAD PUSH2 0x6AC SWAP2 SWAP1 PUSH2 0xC7E JUMP JUMPDEST SWAP3 POP POP DUP2 SWAP1 SSTORE POP DUP2 PUSH0 PUSH0 DUP3 DUP3 SLOAD PUSH2 0x6C3 SWAP2 SWAP1 PUSH2 0xC7E JUMP JUMPDEST SWAP3 POP POP DUP2 SWAP1 SSTORE POP PUSH1 0x2 PUSH0 DUP2 SLOAD DUP1 SWAP3 SWAP2 SWAP1 PUSH2 0x6DC SWAP1 PUSH2 0xCE4 JUMP JUMPDEST SWAP2 SWAP1 POP SSTORE POP PUSH0 PUSH1 0x3 PUSH0 CALLER PUSH20 0xFFFFFFFFFFFFFFFFFFFFFFFFFFFFFFFFFFFFFFFF AND PUSH20 0xFFFFFFFFFFFFFFFFFFFFFFFFFFFFFFFFFFFFFFFF AND DUP2 MSTORE PUSH1 0x20 ADD SWAP1 DUP2 MSTORE PUSH1 0x20 ADD PUSH0 KECCAK256 SLOAD SWAP1 POP PUSH0 CALLER PUSH20 0xFFFFFFFFFFFFFFFFFFFFFFFFFFFFFFFFFFFFFFFF AND DUP5 PUSH1 0x40 MLOAD PUSH2 0x747 SWAP1 PUSH2 0xEE1 JUMP JUMPDEST PUSH0 PUSH1 0x40 MLOAD DUP1 DUP4 SUB DUP2 DUP6 DUP8 GAS CALL SWAP3 POP POP POP RETURNDATASIZE DUP1 PUSH0 DUP2 EQ PUSH2 0x781 JUMPI PUSH1 0x40 MLOAD SWAP2 POP PUSH1 0x1F NOT PUSH1 0x3F RETURNDATASIZE ADD AND DUP3 ADD PUSH1 0x40 MSTORE RETURNDATASIZE DUP3 MSTORE RETURNDATASIZE PUSH0 PUSH1 0x20 DUP5 ADD RETURNDATACOPY PUSH2 0x786 JUMP JUMPDEST PUSH1 0x60 SWAP2 POP JUMPDEST POP POP SWAP1 POP DUP1 PUSH2 0x7C1 JUMPI PUSH1 0x40 MLOAD PUSH32 0x90B8EC1800000000000000000000000000000000000000000000000000000000 DUP2 MSTORE PUSH1 0x4 ADD PUSH1 0x40 MLOAD DUP1 SWAP2 SUB SWAP1 REVERT JUMPDEST CALLER PUSH20 0xFFFFFFFFFFFFFFFFFFFFFFFFFFFFFFFFFFFFFFFF AND PUSH32 0xDF273CB619D95419A9CD0EC88123A0538C85064229BAA6363788F743FFF90DEB DUP6 DUP5 PUSH1 0x40 MLOAD PUSH2 0x809 SWAP3 SWAP2 SWAP1 PUSH2 0xC2A JUMP JUMPDEST PUSH1 0x40 MLOAD DUP1 SWAP2 SUB SWAP1 LOG2 POP POP POP POP JUMP JUMPDEST PUSH1 0x2 SLOAD DUP2 JUMP JUMPDEST PUSH0 PUSH0 PUSH0 PUSH1 0x3 PUSH0 DUP6 PUSH20 0xFFFFFFFFFFFFFFFFFFFFFFFFFFFFFFFFFFFFFFFF AND PUSH20 0xFFFFFFFFFFFFFFFFFFFFFFFFFFFFFFFFFFFFFFFF AND DUP2 MSTORE PUSH1 0x20 ADD SWAP1 DUP2 MSTORE PUSH1 0x20 ADD PUSH0 KECCAK256 SLOAD SWAP3 POP PUSH2 0x869 DUP5 PUSH2 0xB65 JUMP JUMPDEST SWAP2 POP PUSH32 0x0 DUP4 GT ISZERO SWAP1 POP SWAP2 SWAP4 SWAP1 SWAP3 POP JUMP JUMPDEST PUSH1 0x1 SLOAD DUP2 JUMP JUMPDEST PUSH32 0x0 DUP2 JUMP JUMPDEST PUSH1 0x3 PUSH1 0x20 MSTORE DUP1 PUSH0 MSTORE PUSH1 0x40 PUSH0 KECCAK256 PUSH0 SWAP2 POP SWAP1 POP SLOAD DUP2 JUMP JUMPDEST PUSH0 PUSH0 PUSH0 PUSH0 PUSH0 SLOAD SWAP4 POP PUSH1 0x1 SLOAD SWAP3 POP PUSH1 0x2 SLOAD SWAP2 POP PUSH0 SLOAD PUSH32 0x0 PUSH2 0x916 SWAP2 SWAP1 PUSH2 0xC7E JUMP JUMPDEST SWAP1 POP SWAP1 SWAP2 SWAP3 SWAP4 JUMP JUMPDEST CALLVALUE PUSH0 DUP2 SUB PUSH2 0x958 JUMPI PUSH1 0x40 MLOAD PUSH32 0x1F2A200500000000000000000000000000000000000000000000000000000000 DUP2 MSTORE PUSH1 0x4 ADD PUSH1 0x40 MLOAD DUP1 SWAP2 SUB SWAP1 REVERT JUMPDEST PUSH7 0x38D7EA4C68000 CALLVALUE LT ISZERO PUSH2 0x9AD JUMPI CALLVALUE PUSH7 0x38D7EA4C68000 PUSH1 0x40 MLOAD PUSH32 0x4A77F2FA00000000000000000000000000000000000000000000000000000000 DUP2 MSTORE PUSH1 0x4 ADD PUSH2 0x9A4 SWAP3 SWAP2 SWAP1 PUSH2 0xC2A JUMP JUMPDEST PUSH1 0x40 MLOAD DUP1 SWAP2 SUB SWAP1 REVERT JUMPDEST PUSH0 PUSH0 SLOAD PUSH32 0x0 PUSH2 0x9DB SWAP2 SWAP1 PUSH2 0xC7E JUMP JUMPDEST SWAP1 POP DUP1 CALLVALUE GT ISZERO PUSH2 0xA24 JUMPI CALLVALUE DUP2 PUSH1 0x40 MLOAD PUSH32 0x31728A0500000000000000000000000000000000000000000000000000000000 DUP2 MSTORE PUSH1 0x4 ADD PUSH2 0xA1B SWAP3 SWAP2 SWAP1 PUSH2 0xC2A JUMP JUMPDEST PUSH1 0x40 MLOAD DUP1 SWAP2 SUB SWAP1 REVERT JUMPDEST CALLVALUE PUSH1 0x3 PUSH0 CALLER PUSH20 0xFFFFFFFFFFFFFFFFFFFFFFFFFFFFFFFFFFFFFFFF AND PUSH20 0xFFFFFFFFFFFFFFFFFFFFFFFFFFFFFFFFFFFFFFFF AND DUP2 MSTORE PUSH1 0x20 ADD SWAP1 DUP2 MSTORE PUSH1 0x20 ADD PUSH0 KECCAK256 PUSH0 DUP3 DUP3 SLOAD PUSH2 0xA70 SWAP2 SWAP1 PUSH2 0xCB1 JUMP JUMPDEST SWAP3 POP POP DUP2 SWAP1 SSTORE POP CALLVALUE PUSH0 PUSH0 DUP3 DUP3 SLOAD PUSH2 0xA87 SWAP2 SWAP1 PUSH2 0xCB1 JUMP JUMPDEST SWAP3 POP POP DUP2 SWAP1 SSTORE POP PUSH1 0x1 PUSH0 DUP2 SLOAD DUP1 SWAP3 SWAP2 SWAP1 PUSH2 0xAA0 SWAP1 PUSH2 0xCE4 JUMP JUMPDEST SWAP2 SWAP1 POP SSTORE POP CALLER PUSH20 0xFFFFFFFFFFFFFFFFFFFFFFFFFFFFFFFFFFFFFFFF AND PUSH32 0x90890809C654F11D6E72A28FA60149770A0D11EC6C92319D6CEB2BB0A4EA1A15 CALLVALUE PUSH1 0x3 PUSH0 CALLER PUSH20 0xFFFFFFFFFFFFFFFFFFFFFFFFFFFFFFFFFFFFFFFF AND PUSH20 0xFFFFFFFFFFFFFFFFFFFFFFFFFFFFFFFFFFFFFFFF AND DUP2 MSTORE PUSH1 0x20 ADD SWAP1 DUP2 MSTORE PUSH1 0x20 ADD PUSH0 KECCAK256 SLOAD PUSH1 0x40 MLOAD PUSH2 0xB2A SWAP3 SWAP2 SWAP1 PUSH2 0xC2A JUMP JUMPDEST PUSH1 0x40 MLOAD DUP1 SWAP2 SUB SWAP1 LOG2 POP POP JUMP JUMPDEST PUSH32 0x0 DUP2 JUMP JUMPDEST PUSH7 0x38D7EA4C68000 DUP2 JUMP JUMPDEST PUSH0 PUSH0 PUSH1 0x3 PUSH0 DUP5 PUSH20 0xFFFFFFFFFFFFFFFFFFFFFFFFFFFFFFFFFFFFFFFF AND PUSH20 0xFFFFFFFFFFFFFFFFFFFFFFFFFFFFFFFFFFFFFFFF AND DUP2 MSTORE PUSH1 0x20 ADD SWAP1 DUP2 MSTORE PUSH1 0x20 ADD PUSH0 KECCAK256 SLOAD SWAP1 POP PUSH0 SELFBALANCE SWAP1 POP PUSH0 DUP3 SWAP1 POP PUSH32 0x0 DUP2 GT ISZERO PUSH2 0xBFB JUMPI PUSH32 0x0 SWAP1 POP JUMPDEST DUP2 DUP2 GT ISZERO PUSH2 0xC07 JUMPI DUP2 SWAP1 POP JUMPDEST DUP1 SWAP4 POP POP POP POP SWAP2 SWAP1 POP JUMP JUMPDEST PUSH0 DUP2 SWAP1 POP SWAP2 SWAP1 POP JUMP JUMPDEST PUSH2 0xC24 DUP2 PUSH2 0xC12 JUMP JUMPDEST DUP3 MSTORE POP POP JUMP JUMPDEST PUSH0 PUSH1 0x40 DUP3 ADD SWAP1 POP PUSH2 0xC3D PUSH0 DUP4 ADD DUP6 PUSH2 0xC1B JUMP JUMPDEST PUSH2 0xC4A PUSH1 0x20 DUP4 ADD DUP5 PUSH2 0xC1B JUMP JUMPDEST SWAP4 SWAP3 POP POP POP JUMP JUMPDEST PUSH32 0x4E487B7100000000000000000000000000000000000000000000000000000000 PUSH0 MSTORE PUSH1 0x11 PUSH1 0x4 MSTORE PUSH1 0x24 PUSH0 REVERT JUMPDEST PUSH0 PUSH2 0xC88 DUP3 PUSH2 0xC12 JUMP JUMPDEST SWAP2 POP PUSH2 0xC93 DUP4 PUSH2 0xC12 JUMP JUMPDEST SWAP3 POP DUP3 DUP3 SUB SWAP1 POP DUP2 DUP2 GT ISZERO PUSH2 0xCAB JUMPI PUSH2 0xCAA PUSH2 0xC51 JUMP JUMPDEST JUMPDEST SWAP3 SWAP2 POP POP JUMP JUMPDEST PUSH0 PUSH2 0xCBB DUP3 PUSH2 0xC12 JUMP JUMPDEST SWAP2 POP PUSH2 0xCC6 DUP4 PUSH2 0xC12 JUMP JUMPDEST SWAP3 POP DUP3 DUP3 ADD SWAP1 POP DUP1 DUP3 GT ISZERO PUSH2 0xCDE JUMPI PUSH2 0xCDD PUSH2 0xC51 JUMP JUMPDEST JUMPDEST SWAP3 SWAP2 POP POP JUMP JUMPDEST PUSH0 PUSH2 0xCEE DUP3 PUSH2 0xC12 JUMP JUMPDEST SWAP2 POP PUSH32 0xFFFFFFFFFFFFFFFFFFFFFFFFFFFFFFFFFFFFFFFFFFFFFFFFFFFFFFFFFFFFFFFF DUP3 SUB PUSH2 0xD20 JUMPI PUSH2 0xD1F PUSH2 0xC51 JUMP JUMPDEST JUMPDEST PUSH1 0x1 DUP3 ADD SWAP1 POP SWAP2 SWAP1 POP JUMP JUMPDEST PUSH0 PUSH1 0x20 DUP3 ADD SWAP1 POP PUSH2 0xD3E PUSH0 DUP4 ADD DUP5 PUSH2 0xC1B JUMP JUMPDEST SWAP3 SWAP2 POP POP JUMP JUMPDEST PUSH0 PUSH0 REVERT JUMPDEST PUSH2 0xD51 DUP2 PUSH2 0xC12 JUMP JUMPDEST DUP2 EQ PUSH2 0xD5B JUMPI PUSH0 PUSH0 REVERT JUMPDEST POP JUMP JUMPDEST PUSH0 DUP2 CALLDATALOAD SWAP1 POP PUSH2 0xD6C DUP2 PUSH2 0xD48 JUMP JUMPDEST SWAP3 SWAP2 POP POP JUMP JUMPDEST PUSH0 PUSH1 0x20 DUP3 DUP5 SUB SLT ISZERO PUSH2 0xD87 JUMPI PUSH2 0xD86 PUSH2 0xD44 JUMP JUMPDEST JUMPDEST PUSH0 PUSH2 0xD94 DUP5 DUP3 DUP6 ADD PUSH2 0xD5E JUMP JUMPDEST SWAP2 POP POP SWAP3 SWAP2 POP POP JUMP JUMPDEST PUSH0 PUSH20 0xFFFFFFFFFFFFFFFFFFFFFFFFFFFFFFFFFFFFFFFF DUP3 AND SWAP1 POP SWAP2 SWAP1 POP JUMP JUMPDEST PUSH0 PUSH2 0xDC6 DUP3 PUSH2 0xD9D JUMP JUMPDEST SWAP1 POP SWAP2 SWAP1 POP JUMP JUMPDEST PUSH2 0xDD6 DUP2 PUSH2 0xDBC JUMP JUMPDEST DUP2 EQ PUSH2 0xDE0 JUMPI PUSH0 PUSH0 REVERT JUMPDEST POP JUMP JUMPDEST PUSH0 DUP2 CALLDATALOAD SWAP1 POP PUSH2 0xDF1 DUP2 PUSH2 0xDCD JUMP JUMPDEST SWAP3 SWAP2 POP POP JUMP JUMPDEST PUSH0 PUSH1 0x20 DUP3 DUP5 SUB SLT ISZERO PUSH2 0xE0C JUMPI PUSH2 0xE0B PUSH2 0xD44 JUMP JUMPDEST JUMPDEST PUSH0 PUSH2 0xE19 DUP5 DUP3 DUP6 ADD PUSH2 0xDE3 JUMP JUMPDEST SWAP2 POP POP SWAP3 SWAP2 POP POP JUMP JUMPDEST PUSH0 DUP2 ISZERO ISZERO SWAP1 POP SWAP2 SWAP1 POP JUMP JUMPDEST PUSH2 0xE36 DUP2 PUSH2 0xE22 JUMP JUMPDEST DUP3 MSTORE POP POP JUMP JUMPDEST PUSH0 PUSH1 0x60 DUP3 ADD SWAP1 POP PUSH2 0xE4F PUSH0 DUP4 ADD DUP7 PUSH2 0xC1B JUMP JUMPDEST PUSH2 0xE5C PUSH1 0x20 DUP4 ADD DUP6 PUSH2 0xC1B JUMP JUMPDEST PUSH2 0xE69 PUSH1 0x40 DUP4 ADD DUP5 PUSH2 0xE2D JUMP JUMPDEST SWAP5 SWAP4 POP POP POP POP JUMP JUMPDEST PUSH0 PUSH1 0x80 DUP3 ADD SWAP1 POP PUSH2 0xE84 PUSH0 DUP4 ADD DUP8 PUSH2 0xC1B JUMP JUMPDEST PUSH2 0xE91 PUSH1 0x20 DUP4 ADD DUP7 PUSH2 0xC1B JUMP JUMPDEST PUSH2 0xE9E PUSH1 0x40 DUP4 ADD DUP6 PUSH2 0xC1B JUMP JUMPDEST PUSH2 0xEAB PUSH1 0x60 DUP4 ADD DUP5 PUSH2 0xC1B JUMP JUMPDEST SWAP6 SWAP5 POP POP POP POP POP JUMP JUMPDEST PUSH0 DUP2 SWAP1 POP SWAP3 SWAP2 POP POP JUMP JUMPDEST POP JUMP JUMPDEST PUSH0 PUSH2 0xECC PUSH0 DUP4 PUSH2 0xEB4 JUMP JUMPDEST SWAP2 POP PUSH2 0xED7 DUP3 PUSH2 0xEBE JUMP JUMPDEST PUSH0 DUP3 ADD SWAP1 POP SWAP2 SWAP1 POP JUMP JUMPDEST PUSH0 PUSH2 0xEEB DUP3 PUSH2 0xEC1 JUMP JUMPDEST SWAP2 POP DUP2 SWAP1 POP SWAP2 SWAP1 POP JUMP INVALID LOG2 PUSH5 0x6970667358 0x22 SLT KECCAK256 0x2E DUP6 0x24 EOFCREATE 0x9E 0xE9 DIV 0xB5 OR 0x4D 0xC9 0xEF PUSH10 0x513B17CCA61E4AABE23F 0xB1 BLOBHASH COINBASE ISZERO DUP10 0xD3 CALLVALUE PUSH6 0x8D64736F6C63 NUMBER STOP ADDMOD 0x1E STOP CALLER "
				},
				"gasEstimates": {
					"creation": {
						"codeDepositCost": "776600",
						"executionCost": "infinite",
						"totalCost": "infinite"
					},
					"external": {
						"MINIMUM_DEPOSIT()": "435",
						"bankCap()": "infinite",
						"deposit()": "infinite",
						"getBankStats()": "infinite",
						"getUserInfo(address)": "infinite",
						"totalBankBalance()": "2425",
						"totalDeposits()": "2514",
						"totalWithdrawals()": "2470",
						"vaults(address)": "2824",
						"withdraw(uint256)": "infinite",
						"withdrawalLimit()": "infinite"
					},
					"internal": {
						"_calculateMaxWithdrawal(address)": "infinite"
					}
				},
				"methodIdentifiers": {
					"MINIMUM_DEPOSIT()": "f19451d8",
					"bankCap()": "ecbea24d",
					"deposit()": "d0e30db0",
					"getBankStats()": "c6e8e38c",
					"getUserInfo(address)": "6386c1c7",
					"totalBankBalance()": "1977e938",
					"totalDeposits()": "7d882097",
					"totalWithdrawals()": "60464627",
					"vaults(address)": "a622ee7c",
					"withdraw(uint256)": "2e1a7d4d",
					"withdrawalLimit()": "7ddfe78d"
				}
			},
			"storageLayout": {
				"storage": [
					{
						"astId": 14,
						"contract": "contracts/kipubank.sol:KipuBank",
						"label": "totalBankBalance",
						"offset": 0,
						"slot": "0",
						"type": "t_uint256"
					},
					{
						"astId": 17,
						"contract": "contracts/kipubank.sol:KipuBank",
						"label": "totalDeposits",
						"offset": 0,
						"slot": "1",
						"type": "t_uint256"
					},
					{
						"astId": 20,
						"contract": "contracts/kipubank.sol:KipuBank",
						"label": "totalWithdrawals",
						"offset": 0,
						"slot": "2",
						"type": "t_uint256"
					},
					{
						"astId": 25,
						"contract": "contracts/kipubank.sol:KipuBank",
						"label": "vaults",
						"offset": 0,
						"slot": "3",
						"type": "t_mapping(t_address,t_uint256)"
					}
				],
				"types": {
					"t_address": {
						"encoding": "inplace",
						"label": "address",
						"numberOfBytes": "20"
					},
					"t_mapping(t_address,t_uint256)": {
						"encoding": "mapping",
						"key": "t_address",
						"label": "mapping(address => uint256)",
						"numberOfBytes": "32",
						"value": "t_uint256"
					},
					"t_uint256": {
						"encoding": "inplace",
						"label": "uint256",
						"numberOfBytes": "32"
					}
				}
			},
			"userdoc": {
				"errors": {
					"BankCapExceeded(uint256,uint256)": [
						{
							"notice": "Error cuando un depósito excedería la capacidad máxima del banco"
						}
					],
					"DepositTooSmall(uint256,uint256)": [
						{
							"notice": "Error cuando el depósito es menor al mínimo requerido"
						}
					],
					"InsufficientBalance(uint256,uint256)": [
						{
							"notice": "Error cuando el usuario no tiene suficiente balance para retirar"
						}
					],
					"InsufficientBankLiquidity(uint256,uint256)": [
						{
							"notice": "Error cuando el banco no tiene suficiente ETH líquido"
						}
					],
					"TransferFailed()": [
						{
							"notice": "Error cuando falla la transferencia de ETH al usuario"
						}
					],
					"WithdrawalLimitExceeded(uint256,uint256)": [
						{
							"notice": "Error cuando el retiro supera el límite permitido por transacción"
						}
					],
					"ZeroAmount()": [
						{
							"notice": "Error cuando se intenta operar con cantidad cero"
						}
					]
				},
				"events": {
					"Deposit(address,uint256,uint256)": {
						"notice": "Emitido cuando un usuario deposita ETH exitosamente"
					},
					"Withdrawal(address,uint256,uint256)": {
						"notice": "Emitido cuando un usuario retira ETH exitosamente"
					}
				},
				"kind": "user",
				"methods": {
					"MINIMUM_DEPOSIT()": {
						"notice": "Depósito mínimo requerido para realizar una transacción"
					},
					"bankCap()": {
						"notice": "Capacidad máxima total de ETH que puede almacenar el banco"
					},
					"constructor": {
						"notice": "Inicializa el contrato con los límites del banco predefinidos"
					},
					"deposit()": {
						"notice": "Permite a los usuarios depositar ETH en su bóveda personal"
					},
					"getBankStats()": {
						"notice": "Obtiene estadísticas generales del banco"
					},
					"getUserInfo(address)": {
						"notice": "Obtiene información completa sobre la cuenta de un usuario"
					},
					"totalBankBalance()": {
						"notice": "Balance total de ETH actualmente almacenado en el banco"
					},
					"totalDeposits()": {
						"notice": "Contador del número total de depósitos realizados desde el despliegue"
					},
					"totalWithdrawals()": {
						"notice": "Contador del número total de retiros realizados desde el despliegue"
					},
					"vaults(address)": {
						"notice": "Mapeo que almacena el balance de cada usuario en su bóveda personal"
					},
					"withdraw(uint256)": {
						"notice": "Permite a los usuarios retirar ETH de su bóveda"
					},
					"withdrawalLimit()": {
						"notice": "Límite máximo que un usuario puede retirar en una sola transacción"
					}
				},
				"version": 1
			}
		}
	}
}