{
	"contracts/kipubank.sol": {
		"KipuBank": {
			"abi": [
				{
					"inputs": [
						{
							"internalType": "uint256",
							"name": "_withdrawalLimit",
							"type": "uint256"
						},
						{
							"internalType": "uint256",
							"name": "_bankCap",
							"type": "uint256"
						}
					],
					"stateMutability": "nonpayable",
					"type": "constructor"
				},
				{
					"inputs": [
						{
							"internalType": "uint256",
							"name": "attempted",
							"type": "uint256"
						},
						{
							"internalType": "uint256",
							"name": "available",
							"type": "uint256"
						}
					],
					"name": "BankCapExceeded",
					"type": "error"
				},
				{
					"inputs": [
						{
							"internalType": "uint256",
							"name": "sent",
							"type": "uint256"
						},
						{
							"internalType": "uint256",
							"name": "minimum",
							"type": "uint256"
						}
					],
					"name": "DepositTooSmall",
					"type": "error"
				},
				{
					"inputs": [
						{
							"internalType": "uint256",
							"name": "requested",
							"type": "uint256"
						},
						{
							"internalType": "uint256",
							"name": "available",
							"type": "uint256"
						}
					],
					"name": "InsufficientBalance",
					"type": "error"
				},
				{
					"inputs": [
						{
							"internalType": "uint256",
							"name": "requested",
							"type": "uint256"
						},
						{
							"internalType": "uint256",
							"name": "available",
							"type": "uint256"
						}
					],
					"name": "InsufficientBankLiquidity",
					"type": "error"
				},
				{
					"inputs": [],
					"name": "TransferFailed",
					"type": "error"
				},
				{
					"inputs": [
						{
							"internalType": "uint256",
							"name": "requested",
							"type": "uint256"
						},
						{
							"internalType": "uint256",
							"name": "limit",
							"type": "uint256"
						}
					],
					"name": "WithdrawalLimitExceeded",
					"type": "error"
				},
				{
					"inputs": [],
					"name": "ZeroAmount",
					"type": "error"
				},
				{
					"anonymous": false,
					"inputs": [
						{
							"indexed": true,
							"internalType": "address",
							"name": "user",
							"type": "address"
						},
						{
							"indexed": false,
							"internalType": "uint256",
							"name": "amount",
							"type": "uint256"
						},
						{
							"indexed": false,
							"internalType": "uint256",
							"name": "newBalance",
							"type": "uint256"
						}
					],
					"name": "Deposit",
					"type": "event"
				},
				{
					"anonymous": false,
					"inputs": [
						{
							"indexed": true,
							"internalType": "address",
							"name": "user",
							"type": "address"
						},
						{
							"indexed": false,
							"internalType": "uint256",
							"name": "amount",
							"type": "uint256"
						},
						{
							"indexed": false,
							"internalType": "uint256",
							"name": "remainingBalance",
							"type": "uint256"
						}
					],
					"name": "Withdrawal",
					"type": "event"
				},
				{
					"inputs": [],
					"name": "MINIMUM_DEPOSIT",
					"outputs": [
						{
							"internalType": "uint256",
							"name": "",
							"type": "uint256"
						}
					],
					"stateMutability": "view",
					"type": "function"
				},
				{
					"inputs": [],
					"name": "bankCap",
					"outputs": [
						{
							"internalType": "uint256",
							"name": "",
							"type": "uint256"
						}
					],
					"stateMutability": "view",
					"type": "function"
				},
				{
					"inputs": [],
					"name": "deposit",
					"outputs": [],
					"stateMutability": "payable",
					"type": "function"
				},
				{
					"inputs": [],
					"name": "getBankStats",
					"outputs": [
						{
							"internalType": "uint256",
							"name": "totalBalance",
							"type": "uint256"
						},
						{
							"internalType": "uint256",
							"name": "depositsCount",
							"type": "uint256"
						},
						{
							"internalType": "uint256",
							"name": "withdrawalsCount",
							"type": "uint256"
						},
						{
							"internalType": "uint256",
							"name": "remainingCapacity",
							"type": "uint256"
						}
					],
					"stateMutability": "view",
					"type": "function"
				},
				{
					"inputs": [
						{
							"internalType": "address",
							"name": "user",
							"type": "address"
						}
					],
					"name": "getUserInfo",
					"outputs": [
						{
							"internalType": "uint256",
							"name": "userBalance",
							"type": "uint256"
						},
						{
							"internalType": "uint256",
							"name": "maxWithdrawal",
							"type": "uint256"
						},
						{
							"internalType": "bool",
							"name": "canWithdrawFully",
							"type": "bool"
						}
					],
					"stateMutability": "view",
					"type": "function"
				},
				{
					"inputs": [],
					"name": "totalBankBalance",
					"outputs": [
						{
							"internalType": "uint256",
							"name": "",
							"type": "uint256"
						}
					],
					"stateMutability": "view",
					"type": "function"
				},
				{
					"inputs": [],
					"name": "totalDeposits",
					"outputs": [
						{
							"internalType": "uint256",
							"name": "",
							"type": "uint256"
						}
					],
					"stateMutability": "view",
					"type": "function"
				},
				{
					"inputs": [],
					"name": "totalWithdrawals",
					"outputs": [
						{
							"internalType": "uint256",
							"name": "",
							"type": "uint256"
						}
					],
					"stateMutability": "view",
					"type": "function"
				},
				{
					"inputs": [
						{
							"internalType": "address",
							"name": "",
							"type": "address"
						}
					],
					"name": "vaults",
					"outputs": [
						{
							"internalType": "uint256",
							"name": "",
							"type": "uint256"
						}
					],
					"stateMutability": "view",
					"type": "function"
				},
				{
					"inputs": [
						{
							"internalType": "uint256",
							"name": "amount",
							"type": "uint256"
						}
					],
					"name": "withdraw",
					"outputs": [],
					"stateMutability": "nonpayable",
					"type": "function"
				},
				{
					"inputs": [],
					"name": "withdrawalLimit",
					"outputs": [
						{
							"internalType": "uint256",
							"name": "",
							"type": "uint256"
						}
					],
					"stateMutability": "view",
					"type": "function"
				},
				{
					"stateMutability": "payable",
					"type": "receive"
				}
			],
			"devdoc": {
				"author": "Rodriguez Santiago",
				"errors": {
					"BankCapExceeded(uint256,uint256)": [
						{
							"details": "Protege al banco de crecer sin límite",
							"params": {
								"attempted": "Cantidad que se intentó depositar",
								"available": "Espacio disponible en el banco antes de alcanzar el cap"
							}
						}
					],
					"DepositTooSmall(uint256,uint256)": [
						{
							"details": "Los errores personalizados ahorran gas comparado con require con strings Solidity 0.8.4+ soporta errores personalizados",
							"params": {
								"minimum": "Cantidad mínima requerida (MINIMUM_DEPOSIT)",
								"sent": "Cantidad que el usuario intentó depositar"
							}
						}
					],
					"InsufficientBalance(uint256,uint256)": [
						{
							"details": "Previene retiros que dejarían el balance negativo",
							"params": {
								"available": "Balance actual del usuario en su bóveda",
								"requested": "Cantidad que el usuario quiere retirar"
							}
						}
					],
					"InsufficientBankLiquidity(uint256,uint256)": [
						{
							"details": "Situación poco común, pero puede ocurrir en casos extremos",
							"params": {
								"available": "ETH disponible en el contrato",
								"requested": "Cantidad solicitada para retirar"
							}
						}
					],
					"TransferFailed()": [
						{
							"details": "Se lanza cuando la llamada de bajo nivel (call) falla Puede ocurrir si: - El destinatario es un contrato sin función receive/fallback - El destinatario rechaza el ETH - Se agota el gas"
						}
					],
					"WithdrawalLimitExceeded(uint256,uint256)": [
						{
							"details": "Mecanismo de seguridad para prevenir drenado masivo",
							"params": {
								"limit": "Límite máximo permitido (withdrawalLimit)",
								"requested": "Cantidad que el usuario quiere retirar"
							}
						}
					],
					"ZeroAmount()": [
						{
							"details": "Previene transacciones innecesarias que desperdiciarían gas"
						}
					]
				},
				"events": {
					"Deposit(address,uint256,uint256)": {
						"details": "Los eventos son importantes porque: - Permiten que las dApps escuchen cambios en tiempo real - Se pueden indexar para búsquedas eficientes (indexed) - Cuestan menos gas que almacenar en storage",
						"params": {
							"amount": "Cantidad de ETH depositada en wei",
							"newBalance": "Nuevo balance total del usuario después del depósito",
							"user": "Dirección del usuario que realizó el depósito"
						}
					},
					"Withdrawal(address,uint256,uint256)": {
						"details": "indexed permite filtrar eventos por dirección de usuario específica",
						"params": {
							"amount": "Cantidad de ETH retirada en wei",
							"remainingBalance": "Balance que le queda al usuario después del retiro",
							"user": "Dirección del usuario que realizó el retiro"
						}
					}
				},
				"kind": "dev",
				"methods": {
					"constructor": {
						"details": "El constructor se ejecuta una sola vez al desplegar el contrato  Validaciones: - withdrawalLimit debe ser > 0 - bankCap debe ser > 0 - withdrawalLimit no puede ser mayor que bankCap  Ejemplo de despliegue: new KipuBank(1 ether, 100 ether) - Permite retiros de máximo 1 ETH por transacción - Capacidad total del banco: 100 ETH",
						"params": {
							"_bankCap": "Capacidad máxima total del banco (en wei)",
							"_withdrawalLimit": "Límite máximo que se puede retirar por transacción (en wei)"
						}
					},
					"deposit()": {
						"details": "Función payable que acepta ETH junto con la llamada  PATRÓN CHECKS-EFFECTS-INTERACTIONS (CEI): ========================================== Este patrón es crucial para la seguridad contra ataques de reentrancia  1. CHECKS: Todas las validaciones primero 2. EFFECTS: Cambios en el estado del contrato 3. INTERACTIONS: Llamadas externas y eventos  Validaciones realizadas: - msg.value debe ser > 0 (modificador) - msg.value debe ser >= MINIMUM_DEPOSIT - El depósito no debe exceder el espacio disponible en el banco  Efectos: - Incrementa vaults[msg.sender] con el valor depositado - Incrementa totalBankBalance - Incrementa totalDeposits  Ejemplo de uso desde web3: await contract.deposit({ value: ethers.utils.parseEther(\"1.0\") })"
					},
					"getBankStats()": {
						"details": "Función view útil para dashboards, análisis y monitoreo  Esta información es valiosa para: - Mostrar estadísticas en la interfaz - Análisis de uso del banco - Saber si el banco está cerca del límite - Auditoría de actividad  Ejemplo de uso en un dashboard: const stats = await contract.getBankStats() console.log(`Total depositado: ${ethers.utils.formatEther(stats.totalBalance)} ETH`) console.log(`Operaciones totales: ${stats.depositsCount + stats.withdrawalsCount}`)",
						"returns": {
							"depositsCount": "Número total de depósitos desde el despliegue",
							"remainingCapacity": "Espacio disponible antes de alcanzar bankCap (en wei)",
							"totalBalance": "Balance total de ETH en el banco (en wei)",
							"withdrawalsCount": "Número total de retiros desde el despliegue"
						}
					},
					"getUserInfo(address)": {
						"details": "Función VIEW: no modifica el estado, solo lee  Las funciones view: - No consumen gas cuando se llaman desde fuera de la blockchain (RPC) - Consumen gas si son llamadas por otra función que modifica estado - Pueden leer variables de estado pero no modificarlas - Útiles para interfaces de usuario (dApps)  Esta función es útil para que un frontend muestre: - Cuánto ETH tiene el usuario depositado - Cuánto puede retirar máximo ahora - Si necesitará hacer múltiples retiros para sacar todo  Ejemplo de uso: const [balance, maxW, canWithdrawAll] = await contract.getUserInfo(userAddress)",
						"params": {
							"user": "Dirección del usuario a consultar"
						},
						"returns": {
							"canWithdrawFully": "Si puede retirar todo su balance de una sola vez",
							"maxWithdrawal": "Máximo que puede retirar en una transacción (en wei)",
							"userBalance": "Balance actual del usuario en su bóveda (en wei)"
						}
					},
					"withdraw(uint256)": {
						"details": "Función crítica que implementa múltiples capas de seguridad  SEGURIDAD: ========== 1. Sigue el patrón CEI estrictamente 2. Usa call en lugar de transfer (más seguro post-Estambul) 3. Actualiza el estado ANTES de enviar ETH 4. Múltiples validaciones  Validaciones: - amount debe ser > 0 (modificador) - Usuario debe tener suficiente balance en su bóveda - amount no debe exceder withdrawalLimit - El banco debe tener suficiente liquidez  ¿Por qué usar call en lugar de transfer? - transfer: envía 2300 gas fijo (insuficiente para contratos complejos) - send: igual que transfer pero retorna bool - call: flexible, envía todo el gas disponible, más seguro  Ejemplo: await contract.withdraw(ethers.utils.parseEther(\"0.5\"))",
						"params": {
							"amount": "Cantidad de ETH a retirar en wei"
						}
					}
				},
				"stateVariables": {
					"MINIMUM_DEPOSIT": {
						"details": "Constante: usa menos gas que una variable inmutable Las constantes se calculan en tiempo de compilación Establecido en 0.001 ETH para evitar spam de micro-transacciones"
					},
					"bankCap": {
						"details": "Variable inmutable: previene que el banco crezca sin control Una vez alcanzado este límite, no se aceptan más depósitos Ejemplo: Si bankCap = 100 ether, el banco no puede tener más de 100 ETH"
					},
					"totalBankBalance": {
						"details": "Se actualiza en cada depósito (+) y retiro (-) Esta variable rastrea cuánto ETH hay en total en todas las bóvedas Debe ser siempre <= bankCap"
					},
					"totalDeposits": {
						"details": "Útil para: - Estadísticas del banco - Auditoría de actividad - Análisis de uso Se incrementa en 1 con cada depósito exitoso"
					},
					"totalWithdrawals": {
						"details": "Similar a totalDeposits, permite rastrear la actividad de retiros Se incrementa en 1 con cada retiro exitoso"
					},
					"vaults": {
						"details": "Estructura: mapping(dirección del usuario => balance en wei)  Cada usuario tiene su propia \"caja fuerte\" independiente - Key: address del usuario (dirección de Ethereum) - Value: uint256 balance en wei (1 ether = 10^18 wei)  Ejemplo: vaults[0x123...] = 5000000000000000000 (5 ETH) vaults[0x456...] = 1000000000000000000 (1 ETH)"
					},
					"withdrawalLimit": {
						"details": "Variable inmutable: se establece en el constructor y nunca cambia Esto ahorra gas porque no necesita ser leída desde storage Ejemplo: Si se establece en 1 ether, nadie puede retirar más de 1 ETH por transacción"
					}
				},
				"title": "KipuBank",
				"version": 1
			},
			"evm": {
				"assembly": "    /* \"contracts/kipubank.sol\":206:22198  contract KipuBank {... */\n  mstore(0x40, 0xc0)\n    /* \"contracts/kipubank.sol\":7869:8258  constructor(uint256 _withdrawalLimit, uint256 _bankCap) {... */\n  callvalue\n  dup1\n  iszero\n  tag_1\n  jumpi\n  revert(0x00, 0x00)\ntag_1:\n  pop\n  mload(0x40)\n  sub(codesize, bytecodeSize)\n  dup1\n  bytecodeSize\n  dup4\n  codecopy\n  dup2\n  dup2\n  add\n  0x40\n  mstore\n  dup2\n  add\n  swap1\n  tag_2\n  swap2\n  swap1\n  tag_3\n  jump\t// in\ntag_2:\n    /* \"contracts/kipubank.sol\":7963:7964  0 */\n  0x00\n    /* \"contracts/kipubank.sol\":7944:7960  _withdrawalLimit */\n  dup3\n    /* \"contracts/kipubank.sol\":7944:7964  _withdrawalLimit > 0 */\n  gt\n    /* \"contracts/kipubank.sol\":7936:8008  require(_withdrawalLimit > 0, \"Withdrawal limit must be greater than 0\") */\n  tag_6\n  jumpi\n  mload(0x40)\n  0x08c379a000000000000000000000000000000000000000000000000000000000\n  dup2\n  mstore\n  0x04\n  add\n  tag_7\n  swap1\n  tag_8\n  jump\t// in\ntag_7:\n  mload(0x40)\n  dup1\n  swap2\n  sub\n  swap1\n  revert\ntag_6:\n    /* \"contracts/kipubank.sol\":8038:8039  0 */\n  0x00\n    /* \"contracts/kipubank.sol\":8027:8035  _bankCap */\n  dup2\n    /* \"contracts/kipubank.sol\":8027:8039  _bankCap > 0 */\n  gt\n    /* \"contracts/kipubank.sol\":8019:8075  require(_bankCap > 0, \"Bank cap must be greater than 0\") */\n  tag_9\n  jumpi\n  mload(0x40)\n  0x08c379a000000000000000000000000000000000000000000000000000000000\n  dup2\n  mstore\n  0x04\n  add\n  tag_10\n  swap1\n  tag_11\n  jump\t// in\ntag_10:\n  mload(0x40)\n  dup1\n  swap2\n  sub\n  swap1\n  revert\ntag_9:\n    /* \"contracts/kipubank.sol\":8114:8122  _bankCap */\n  dup1\n    /* \"contracts/kipubank.sol\":8094:8110  _withdrawalLimit */\n  dup3\n    /* \"contracts/kipubank.sol\":8094:8122  _withdrawalLimit <= _bankCap */\n  gt\n  iszero\n    /* \"contracts/kipubank.sol\":8086:8166  require(_withdrawalLimit <= _bankCap, \"Withdrawal limit cannot exceed bank cap\") */\n  tag_12\n  jumpi\n  mload(0x40)\n  0x08c379a000000000000000000000000000000000000000000000000000000000\n  dup2\n  mstore\n  0x04\n  add\n  tag_13\n  swap1\n  tag_14\n  jump\t// in\ntag_13:\n  mload(0x40)\n  dup1\n  swap2\n  sub\n  swap1\n  revert\ntag_12:\n    /* \"contracts/kipubank.sol\":8205:8221  _withdrawalLimit */\n  dup2\n    /* \"contracts/kipubank.sol\":8187:8221  withdrawalLimit = _withdrawalLimit */\n  0x80\n  dup2\n  dup2\n  mstore\n  pop\n  pop\n    /* \"contracts/kipubank.sol\":8242:8250  _bankCap */\n  dup1\n    /* \"contracts/kipubank.sol\":8232:8250  bankCap = _bankCap */\n  0xa0\n  dup2\n  dup2\n  mstore\n  pop\n  pop\n    /* \"contracts/kipubank.sol\":7869:8258  constructor(uint256 _withdrawalLimit, uint256 _bankCap) {... */\n  pop\n  pop\n    /* \"contracts/kipubank.sol\":206:22198  contract KipuBank {... */\n  jump(tag_15)\n    /* \"#utility.yul\":88:205   */\ntag_17:\n    /* \"#utility.yul\":197:198   */\n  0x00\n    /* \"#utility.yul\":194:195   */\n  0x00\n    /* \"#utility.yul\":187:199   */\n  revert\n    /* \"#utility.yul\":334:411   */\ntag_19:\n    /* \"#utility.yul\":371:378   */\n  0x00\n    /* \"#utility.yul\":400:405   */\n  dup2\n    /* \"#utility.yul\":389:405   */\n  swap1\n  pop\n    /* \"#utility.yul\":334:411   */\n  swap2\n  swap1\n  pop\n  jump\t// out\n    /* \"#utility.yul\":417:539   */\ntag_20:\n    /* \"#utility.yul\":490:514   */\n  tag_35\n    /* \"#utility.yul\":508:513   */\n  dup2\n    /* \"#utility.yul\":490:514   */\n  tag_19\n  jump\t// in\ntag_35:\n    /* \"#utility.yul\":483:488   */\n  dup2\n    /* \"#utility.yul\":480:515   */\n  eq\n    /* \"#utility.yul\":470:533   */\n  tag_36\n  jumpi\n    /* \"#utility.yul\":529:530   */\n  0x00\n    /* \"#utility.yul\":526:527   */\n  0x00\n    /* \"#utility.yul\":519:531   */\n  revert\n    /* \"#utility.yul\":470:533   */\ntag_36:\n    /* \"#utility.yul\":417:539   */\n  pop\n  jump\t// out\n    /* \"#utility.yul\":545:688   */\ntag_21:\n    /* \"#utility.yul\":602:607   */\n  0x00\n    /* \"#utility.yul\":633:639   */\n  dup2\n    /* \"#utility.yul\":627:640   */\n  mload\n    /* \"#utility.yul\":618:640   */\n  swap1\n  pop\n    /* \"#utility.yul\":649:682   */\n  tag_38\n    /* \"#utility.yul\":676:681   */\n  dup2\n    /* \"#utility.yul\":649:682   */\n  tag_20\n  jump\t// in\ntag_38:\n    /* \"#utility.yul\":545:688   */\n  swap3\n  swap2\n  pop\n  pop\n  jump\t// out\n    /* \"#utility.yul\":694:1201   */\ntag_3:\n    /* \"#utility.yul\":773:779   */\n  0x00\n    /* \"#utility.yul\":781:787   */\n  0x00\n    /* \"#utility.yul\":830:832   */\n  0x40\n    /* \"#utility.yul\":818:827   */\n  dup4\n    /* \"#utility.yul\":809:816   */\n  dup6\n    /* \"#utility.yul\":805:828   */\n  sub\n    /* \"#utility.yul\":801:833   */\n  slt\n    /* \"#utility.yul\":798:917   */\n  iszero\n  tag_40\n  jumpi\n    /* \"#utility.yul\":836:915   */\n  tag_41\n  tag_17\n  jump\t// in\ntag_41:\n    /* \"#utility.yul\":798:917   */\ntag_40:\n    /* \"#utility.yul\":956:957   */\n  0x00\n    /* \"#utility.yul\":981:1045   */\n  tag_42\n    /* \"#utility.yul\":1037:1044   */\n  dup6\n    /* \"#utility.yul\":1028:1034   */\n  dup3\n    /* \"#utility.yul\":1017:1026   */\n  dup7\n    /* \"#utility.yul\":1013:1035   */\n  add\n    /* \"#utility.yul\":981:1045   */\n  tag_21\n  jump\t// in\ntag_42:\n    /* \"#utility.yul\":971:1045   */\n  swap3\n  pop\n    /* \"#utility.yul\":927:1055   */\n  pop\n    /* \"#utility.yul\":1094:1096   */\n  0x20\n    /* \"#utility.yul\":1120:1184   */\n  tag_43\n    /* \"#utility.yul\":1176:1183   */\n  dup6\n    /* \"#utility.yul\":1167:1173   */\n  dup3\n    /* \"#utility.yul\":1156:1165   */\n  dup7\n    /* \"#utility.yul\":1152:1174   */\n  add\n    /* \"#utility.yul\":1120:1184   */\n  tag_21\n  jump\t// in\ntag_43:\n    /* \"#utility.yul\":1110:1184   */\n  swap2\n  pop\n    /* \"#utility.yul\":1065:1194   */\n  pop\n    /* \"#utility.yul\":694:1201   */\n  swap3\n  pop\n  swap3\n  swap1\n  pop\n  jump\t// out\n    /* \"#utility.yul\":1207:1376   */\ntag_22:\n    /* \"#utility.yul\":1291:1302   */\n  0x00\n    /* \"#utility.yul\":1325:1331   */\n  dup3\n    /* \"#utility.yul\":1320:1323   */\n  dup3\n    /* \"#utility.yul\":1313:1332   */\n  mstore\n    /* \"#utility.yul\":1365:1369   */\n  0x20\n    /* \"#utility.yul\":1360:1363   */\n  dup3\n    /* \"#utility.yul\":1356:1370   */\n  add\n    /* \"#utility.yul\":1341:1370   */\n  swap1\n  pop\n    /* \"#utility.yul\":1207:1376   */\n  swap3\n  swap2\n  pop\n  pop\n  jump\t// out\n    /* \"#utility.yul\":1382:1608   */\ntag_23:\n    /* \"#utility.yul\":1522:1556   */\n  0x5769746864726177616c206c696d6974206d7573742062652067726561746572\n    /* \"#utility.yul\":1518:1519   */\n  0x00\n    /* \"#utility.yul\":1510:1516   */\n  dup3\n    /* \"#utility.yul\":1506:1520   */\n  add\n    /* \"#utility.yul\":1499:1557   */\n  mstore\n    /* \"#utility.yul\":1591:1600   */\n  0x207468616e203000000000000000000000000000000000000000000000000000\n    /* \"#utility.yul\":1586:1588   */\n  0x20\n    /* \"#utility.yul\":1578:1584   */\n  dup3\n    /* \"#utility.yul\":1574:1589   */\n  add\n    /* \"#utility.yul\":1567:1601   */\n  mstore\n    /* \"#utility.yul\":1382:1608   */\n  pop\n  jump\t// out\n    /* \"#utility.yul\":1614:1980   */\ntag_24:\n    /* \"#utility.yul\":1756:1759   */\n  0x00\n    /* \"#utility.yul\":1777:1844   */\n  tag_47\n    /* \"#utility.yul\":1841:1843   */\n  0x27\n    /* \"#utility.yul\":1836:1839   */\n  dup4\n    /* \"#utility.yul\":1777:1844   */\n  tag_22\n  jump\t// in\ntag_47:\n    /* \"#utility.yul\":1770:1844   */\n  swap2\n  pop\n    /* \"#utility.yul\":1853:1946   */\n  tag_48\n    /* \"#utility.yul\":1942:1945   */\n  dup3\n    /* \"#utility.yul\":1853:1946   */\n  tag_23\n  jump\t// in\ntag_48:\n    /* \"#utility.yul\":1971:1973   */\n  0x40\n    /* \"#utility.yul\":1966:1969   */\n  dup3\n    /* \"#utility.yul\":1962:1974   */\n  add\n    /* \"#utility.yul\":1955:1974   */\n  swap1\n  pop\n    /* \"#utility.yul\":1614:1980   */\n  swap2\n  swap1\n  pop\n  jump\t// out\n    /* \"#utility.yul\":1986:2405   */\ntag_8:\n    /* \"#utility.yul\":2152:2156   */\n  0x00\n    /* \"#utility.yul\":2190:2192   */\n  0x20\n    /* \"#utility.yul\":2179:2188   */\n  dup3\n    /* \"#utility.yul\":2175:2193   */\n  add\n    /* \"#utility.yul\":2167:2193   */\n  swap1\n  pop\n    /* \"#utility.yul\":2239:2248   */\n  dup2\n    /* \"#utility.yul\":2233:2237   */\n  dup2\n    /* \"#utility.yul\":2229:2249   */\n  sub\n    /* \"#utility.yul\":2225:2226   */\n  0x00\n    /* \"#utility.yul\":2214:2223   */\n  dup4\n    /* \"#utility.yul\":2210:2227   */\n  add\n    /* \"#utility.yul\":2203:2250   */\n  mstore\n    /* \"#utility.yul\":2267:2398   */\n  tag_50\n    /* \"#utility.yul\":2393:2397   */\n  dup2\n    /* \"#utility.yul\":2267:2398   */\n  tag_24\n  jump\t// in\ntag_50:\n    /* \"#utility.yul\":2259:2398   */\n  swap1\n  pop\n    /* \"#utility.yul\":1986:2405   */\n  swap2\n  swap1\n  pop\n  jump\t// out\n    /* \"#utility.yul\":2411:2592   */\ntag_25:\n    /* \"#utility.yul\":2551:2584   */\n  0x42616e6b20636170206d7573742062652067726561746572207468616e203000\n    /* \"#utility.yul\":2547:2548   */\n  0x00\n    /* \"#utility.yul\":2539:2545   */\n  dup3\n    /* \"#utility.yul\":2535:2549   */\n  add\n    /* \"#utility.yul\":2528:2585   */\n  mstore\n    /* \"#utility.yul\":2411:2592   */\n  pop\n  jump\t// out\n    /* \"#utility.yul\":2598:2964   */\ntag_26:\n    /* \"#utility.yul\":2740:2743   */\n  0x00\n    /* \"#utility.yul\":2761:2828   */\n  tag_53\n    /* \"#utility.yul\":2825:2827   */\n  0x1f\n    /* \"#utility.yul\":2820:2823   */\n  dup4\n    /* \"#utility.yul\":2761:2828   */\n  tag_22\n  jump\t// in\ntag_53:\n    /* \"#utility.yul\":2754:2828   */\n  swap2\n  pop\n    /* \"#utility.yul\":2837:2930   */\n  tag_54\n    /* \"#utility.yul\":2926:2929   */\n  dup3\n    /* \"#utility.yul\":2837:2930   */\n  tag_25\n  jump\t// in\ntag_54:\n    /* \"#utility.yul\":2955:2957   */\n  0x20\n    /* \"#utility.yul\":2950:2953   */\n  dup3\n    /* \"#utility.yul\":2946:2958   */\n  add\n    /* \"#utility.yul\":2939:2958   */\n  swap1\n  pop\n    /* \"#utility.yul\":2598:2964   */\n  swap2\n  swap1\n  pop\n  jump\t// out\n    /* \"#utility.yul\":2970:3389   */\ntag_11:\n    /* \"#utility.yul\":3136:3140   */\n  0x00\n    /* \"#utility.yul\":3174:3176   */\n  0x20\n    /* \"#utility.yul\":3163:3172   */\n  dup3\n    /* \"#utility.yul\":3159:3177   */\n  add\n    /* \"#utility.yul\":3151:3177   */\n  swap1\n  pop\n    /* \"#utility.yul\":3223:3232   */\n  dup2\n    /* \"#utility.yul\":3217:3221   */\n  dup2\n    /* \"#utility.yul\":3213:3233   */\n  sub\n    /* \"#utility.yul\":3209:3210   */\n  0x00\n    /* \"#utility.yul\":3198:3207   */\n  dup4\n    /* \"#utility.yul\":3194:3211   */\n  add\n    /* \"#utility.yul\":3187:3234   */\n  mstore\n    /* \"#utility.yul\":3251:3382   */\n  tag_56\n    /* \"#utility.yul\":3377:3381   */\n  dup2\n    /* \"#utility.yul\":3251:3382   */\n  tag_26\n  jump\t// in\ntag_56:\n    /* \"#utility.yul\":3243:3382   */\n  swap1\n  pop\n    /* \"#utility.yul\":2970:3389   */\n  swap2\n  swap1\n  pop\n  jump\t// out\n    /* \"#utility.yul\":3395:3621   */\ntag_27:\n    /* \"#utility.yul\":3535:3569   */\n  0x5769746864726177616c206c696d69742063616e6e6f74206578636565642062\n    /* \"#utility.yul\":3531:3532   */\n  0x00\n    /* \"#utility.yul\":3523:3529   */\n  dup3\n    /* \"#utility.yul\":3519:3533   */\n  add\n    /* \"#utility.yul\":3512:3570   */\n  mstore\n    /* \"#utility.yul\":3604:3613   */\n  0x616e6b2063617000000000000000000000000000000000000000000000000000\n    /* \"#utility.yul\":3599:3601   */\n  0x20\n    /* \"#utility.yul\":3591:3597   */\n  dup3\n    /* \"#utility.yul\":3587:3602   */\n  add\n    /* \"#utility.yul\":3580:3614   */\n  mstore\n    /* \"#utility.yul\":3395:3621   */\n  pop\n  jump\t// out\n    /* \"#utility.yul\":3627:3993   */\ntag_28:\n    /* \"#utility.yul\":3769:3772   */\n  0x00\n    /* \"#utility.yul\":3790:3857   */\n  tag_59\n    /* \"#utility.yul\":3854:3856   */\n  0x27\n    /* \"#utility.yul\":3849:3852   */\n  dup4\n    /* \"#utility.yul\":3790:3857   */\n  tag_22\n  jump\t// in\ntag_59:\n    /* \"#utility.yul\":3783:3857   */\n  swap2\n  pop\n    /* \"#utility.yul\":3866:3959   */\n  tag_60\n    /* \"#utility.yul\":3955:3958   */\n  dup3\n    /* \"#utility.yul\":3866:3959   */\n  tag_27\n  jump\t// in\ntag_60:\n    /* \"#utility.yul\":3984:3986   */\n  0x40\n    /* \"#utility.yul\":3979:3982   */\n  dup3\n    /* \"#utility.yul\":3975:3987   */\n  add\n    /* \"#utility.yul\":3968:3987   */\n  swap1\n  pop\n    /* \"#utility.yul\":3627:3993   */\n  swap2\n  swap1\n  pop\n  jump\t// out\n    /* \"#utility.yul\":3999:4418   */\ntag_14:\n    /* \"#utility.yul\":4165:4169   */\n  0x00\n    /* \"#utility.yul\":4203:4205   */\n  0x20\n    /* \"#utility.yul\":4192:4201   */\n  dup3\n    /* \"#utility.yul\":4188:4206   */\n  add\n    /* \"#utility.yul\":4180:4206   */\n  swap1\n  pop\n    /* \"#utility.yul\":4252:4261   */\n  dup2\n    /* \"#utility.yul\":4246:4250   */\n  dup2\n    /* \"#utility.yul\":4242:4262   */\n  sub\n    /* \"#utility.yul\":4238:4239   */\n  0x00\n    /* \"#utility.yul\":4227:4236   */\n  dup4\n    /* \"#utility.yul\":4223:4240   */\n  add\n    /* \"#utility.yul\":4216:4263   */\n  mstore\n    /* \"#utility.yul\":4280:4411   */\n  tag_62\n    /* \"#utility.yul\":4406:4410   */\n  dup2\n    /* \"#utility.yul\":4280:4411   */\n  tag_28\n  jump\t// in\ntag_62:\n    /* \"#utility.yul\":4272:4411   */\n  swap1\n  pop\n    /* \"#utility.yul\":3999:4418   */\n  swap2\n  swap1\n  pop\n  jump\t// out\n    /* \"contracts/kipubank.sol\":206:22198  contract KipuBank {... */\ntag_15:\n  mload(0x80)\n  mload(0xa0)\n  codecopy(0x00, dataOffset(sub_0), dataSize(sub_0))\n  0x00\n  assignImmutable(\"0xe4b1702d9298fee62dfeccc57d322a463ad55ca201256d01f62b45b2e1c21c10\")\n  0x00\n  assignImmutable(\"0xceebf77a833b30520287ddd9478ff51abbdffa30aa90a8d655dba0e8a79ce0c1\")\n  return(0x00, dataSize(sub_0))\nstop\n\nsub_0: assembly {\n        /* \"contracts/kipubank.sol\":206:22198  contract KipuBank {... */\n      mstore(0x40, 0x80)\n      jumpi(tag_1, lt(calldatasize, 0x04))\n      shr(0xe0, calldataload(0x00))\n      dup1\n      0x7ddfe78d\n      gt\n      tag_14\n      jumpi\n      dup1\n      0x7ddfe78d\n      eq\n      tag_8\n      jumpi\n      dup1\n      0xa622ee7c\n      eq\n      tag_9\n      jumpi\n      dup1\n      0xc6e8e38c\n      eq\n      tag_10\n      jumpi\n      dup1\n      0xd0e30db0\n      eq\n      tag_11\n      jumpi\n      dup1\n      0xecbea24d\n      eq\n      tag_12\n      jumpi\n      dup1\n      0xf19451d8\n      eq\n      tag_13\n      jumpi\n      jump(tag_2)\n    tag_14:\n      dup1\n      0x1977e938\n      eq\n      tag_3\n      jumpi\n      dup1\n      0x2e1a7d4d\n      eq\n      tag_4\n      jumpi\n      dup1\n      0x60464627\n      eq\n      tag_5\n      jumpi\n      dup1\n      0x6386c1c7\n      eq\n      tag_6\n      jumpi\n      dup1\n      0x7d882097\n      eq\n      tag_7\n      jumpi\n      jump(tag_2)\n    tag_1:\n      jumpi(tag_2, calldatasize)\n        /* \"contracts/kipubank.sol\":21440:21441  0 */\n      0x00\n        /* \"contracts/kipubank.sol\":21427:21436  msg.value */\n      callvalue\n        /* \"contracts/kipubank.sol\":21427:21441  msg.value == 0 */\n      sub\n        /* \"contracts/kipubank.sol\":21423:21489  if (msg.value == 0) {... */\n      tag_17\n      jumpi\n        /* \"contracts/kipubank.sol\":21465:21477  ZeroAmount() */\n      mload(0x40)\n      0x1f2a200500000000000000000000000000000000000000000000000000000000\n      dup2\n      mstore\n      0x04\n      add\n      mload(0x40)\n      dup1\n      swap2\n      sub\n      swap1\n      revert\n        /* \"contracts/kipubank.sol\":21423:21489  if (msg.value == 0) {... */\n    tag_17:\n        /* \"contracts/kipubank.sol\":1489:1500  0.001 ether */\n      0x038d7ea4c68000\n        /* \"contracts/kipubank.sol\":21568:21577  msg.value */\n      callvalue\n        /* \"contracts/kipubank.sol\":21568:21595  msg.value < MINIMUM_DEPOSIT */\n      lt\n        /* \"contracts/kipubank.sol\":21564:21674  if (msg.value < MINIMUM_DEPOSIT) {... */\n      iszero\n      tag_18\n      jumpi\n        /* \"contracts/kipubank.sol\":21635:21644  msg.value */\n      callvalue\n        /* \"contracts/kipubank.sol\":1489:1500  0.001 ether */\n      0x038d7ea4c68000\n        /* \"contracts/kipubank.sol\":21619:21662  DepositTooSmall(msg.value, MINIMUM_DEPOSIT) */\n      mload(0x40)\n      0x4a77f2fa00000000000000000000000000000000000000000000000000000000\n      dup2\n      mstore\n      0x04\n      add\n      tag_19\n      swap3\n      swap2\n      swap1\n      tag_20\n      jump\t// in\n    tag_19:\n      mload(0x40)\n      dup1\n      swap2\n      sub\n      swap1\n      revert\n        /* \"contracts/kipubank.sol\":21564:21674  if (msg.value < MINIMUM_DEPOSIT) {... */\n    tag_18:\n        /* \"contracts/kipubank.sol\":21751:21773  uint256 availableSpace */\n      0x00\n        /* \"contracts/kipubank.sol\":21786:21802  totalBankBalance */\n      sload(0x00)\n        /* \"contracts/kipubank.sol\":21776:21783  bankCap */\n      immutable(\"0xe4b1702d9298fee62dfeccc57d322a463ad55ca201256d01f62b45b2e1c21c10\")\n        /* \"contracts/kipubank.sol\":21776:21802  bankCap - totalBankBalance */\n      tag_21\n      swap2\n      swap1\n      tag_22\n      jump\t// in\n    tag_21:\n        /* \"contracts/kipubank.sol\":21751:21802  uint256 availableSpace = bankCap - totalBankBalance */\n      swap1\n      pop\n        /* \"contracts/kipubank.sol\":21829:21843  availableSpace */\n      dup1\n        /* \"contracts/kipubank.sol\":21817:21826  msg.value */\n      callvalue\n        /* \"contracts/kipubank.sol\":21817:21843  msg.value > availableSpace */\n      gt\n        /* \"contracts/kipubank.sol\":21813:21921  if (msg.value > availableSpace) {... */\n      iszero\n      tag_23\n      jumpi\n        /* \"contracts/kipubank.sol\":21883:21892  msg.value */\n      callvalue\n        /* \"contracts/kipubank.sol\":21894:21908  availableSpace */\n      dup2\n        /* \"contracts/kipubank.sol\":21867:21909  BankCapExceeded(msg.value, availableSpace) */\n      mload(0x40)\n      0x31728a0500000000000000000000000000000000000000000000000000000000\n      dup2\n      mstore\n      0x04\n      add\n      tag_24\n      swap3\n      swap2\n      swap1\n      tag_20\n      jump\t// in\n    tag_24:\n      mload(0x40)\n      dup1\n      swap2\n      sub\n      swap1\n      revert\n        /* \"contracts/kipubank.sol\":21813:21921  if (msg.value > availableSpace) {... */\n    tag_23:\n        /* \"contracts/kipubank.sol\":22010:22019  msg.value */\n      callvalue\n        /* \"contracts/kipubank.sol\":21988:21994  vaults */\n      0x03\n        /* \"contracts/kipubank.sol\":21988:22006  vaults[msg.sender] */\n      0x00\n        /* \"contracts/kipubank.sol\":21995:22005  msg.sender */\n      caller\n        /* \"contracts/kipubank.sol\":21988:22006  vaults[msg.sender] */\n      0xffffffffffffffffffffffffffffffffffffffff\n      and\n      0xffffffffffffffffffffffffffffffffffffffff\n      and\n      dup2\n      mstore\n      0x20\n      add\n      swap1\n      dup2\n      mstore\n      0x20\n      add\n      0x00\n      keccak256\n      0x00\n        /* \"contracts/kipubank.sol\":21988:22019  vaults[msg.sender] += msg.value */\n      dup3\n      dup3\n      sload\n      tag_25\n      swap2\n      swap1\n      tag_26\n      jump\t// in\n    tag_25:\n      swap3\n      pop\n      pop\n      dup2\n      swap1\n      sstore\n      pop\n        /* \"contracts/kipubank.sol\":22050:22059  msg.value */\n      callvalue\n        /* \"contracts/kipubank.sol\":22030:22046  totalBankBalance */\n      0x00\n      0x00\n        /* \"contracts/kipubank.sol\":22030:22059  totalBankBalance += msg.value */\n      dup3\n      dup3\n      sload\n      tag_27\n      swap2\n      swap1\n      tag_26\n      jump\t// in\n    tag_27:\n      swap3\n      pop\n      pop\n      dup2\n      swap1\n      sstore\n      pop\n        /* \"contracts/kipubank.sol\":22070:22083  totalDeposits */\n      0x01\n      0x00\n        /* \"contracts/kipubank.sol\":22070:22085  totalDeposits++ */\n      dup2\n      sload\n      dup1\n      swap3\n      swap2\n      swap1\n      tag_28\n      swap1\n      tag_29\n      jump\t// in\n    tag_28:\n      swap2\n      swap1\n      pop\n      sstore\n      pop\n        /* \"contracts/kipubank.sol\":22145:22155  msg.sender */\n      caller\n        /* \"contracts/kipubank.sol\":22137:22187  Deposit(msg.sender, msg.value, vaults[msg.sender]) */\n      0xffffffffffffffffffffffffffffffffffffffff\n      and\n      0x90890809c654f11d6e72a28fa60149770a0d11ec6c92319d6ceb2bb0a4ea1a15\n        /* \"contracts/kipubank.sol\":22157:22166  msg.value */\n      callvalue\n        /* \"contracts/kipubank.sol\":22168:22174  vaults */\n      0x03\n        /* \"contracts/kipubank.sol\":22168:22186  vaults[msg.sender] */\n      0x00\n        /* \"contracts/kipubank.sol\":22175:22185  msg.sender */\n      caller\n        /* \"contracts/kipubank.sol\":22168:22186  vaults[msg.sender] */\n      0xffffffffffffffffffffffffffffffffffffffff\n      and\n      0xffffffffffffffffffffffffffffffffffffffff\n      and\n      dup2\n      mstore\n      0x20\n      add\n      swap1\n      dup2\n      mstore\n      0x20\n      add\n      0x00\n      keccak256\n      sload\n        /* \"contracts/kipubank.sol\":22137:22187  Deposit(msg.sender, msg.value, vaults[msg.sender]) */\n      mload(0x40)\n      tag_30\n      swap3\n      swap2\n      swap1\n      tag_20\n      jump\t// in\n    tag_30:\n      mload(0x40)\n      dup1\n      swap2\n      sub\n      swap1\n      log2\n        /* \"contracts/kipubank.sol\":21356:22195  {... */\n      stop\n        /* \"contracts/kipubank.sol\":206:22198  contract KipuBank {... */\n    tag_2:\n      revert(0x00, 0x00)\n        /* \"contracts/kipubank.sol\":1933:1964  uint256 public totalBankBalance */\n    tag_3:\n      callvalue\n      dup1\n      iszero\n      tag_31\n      jumpi\n      revert(0x00, 0x00)\n    tag_31:\n      pop\n      tag_32\n      tag_33\n      jump\t// in\n    tag_32:\n      mload(0x40)\n      tag_34\n      swap2\n      swap1\n      tag_35\n      jump\t// in\n    tag_34:\n      mload(0x40)\n      dup1\n      swap2\n      sub\n      swap1\n      return\n        /* \"contracts/kipubank.sol\":12711:14489  function withdraw(uint256 amount) external nonZeroAmount(amount) {... */\n    tag_4:\n      callvalue\n      dup1\n      iszero\n      tag_36\n      jumpi\n      revert(0x00, 0x00)\n    tag_36:\n      pop\n      tag_37\n      0x04\n      dup1\n      calldatasize\n      sub\n      dup2\n      add\n      swap1\n      tag_38\n      swap2\n      swap1\n      tag_39\n      jump\t// in\n    tag_38:\n      tag_40\n      jump\t// in\n    tag_37:\n      stop\n        /* \"contracts/kipubank.sol\":2531:2562  uint256 public totalWithdrawals */\n    tag_5:\n      callvalue\n      dup1\n      iszero\n      tag_41\n      jumpi\n      revert(0x00, 0x00)\n    tag_41:\n      pop\n      tag_42\n      tag_43\n      jump\t// in\n    tag_42:\n      mload(0x40)\n      tag_44\n      swap2\n      swap1\n      tag_35\n      jump\t// in\n    tag_44:\n      mload(0x40)\n      dup1\n      swap2\n      sub\n      swap1\n      return\n        /* \"contracts/kipubank.sol\":15768:16471  function getUserInfo(address user) ... */\n    tag_6:\n      callvalue\n      dup1\n      iszero\n      tag_45\n      jumpi\n      revert(0x00, 0x00)\n    tag_45:\n      pop\n      tag_46\n      0x04\n      dup1\n      calldatasize\n      sub\n      dup2\n      add\n      swap1\n      tag_47\n      swap2\n      swap1\n      tag_48\n      jump\t// in\n    tag_47:\n      tag_49\n      jump\t// in\n    tag_46:\n      mload(0x40)\n      tag_50\n      swap4\n      swap3\n      swap2\n      swap1\n      tag_51\n      jump\t// in\n    tag_50:\n      mload(0x40)\n      dup1\n      swap2\n      sub\n      swap1\n      return\n        /* \"contracts/kipubank.sol\":2257:2285  uint256 public totalDeposits */\n    tag_7:\n      callvalue\n      dup1\n      iszero\n      tag_52\n      jumpi\n      revert(0x00, 0x00)\n    tag_52:\n      pop\n      tag_53\n      tag_54\n      jump\t// in\n    tag_53:\n      mload(0x40)\n      tag_55\n      swap2\n      swap1\n      tag_35\n      jump\t// in\n    tag_55:\n      mload(0x40)\n      dup1\n      swap2\n      sub\n      swap1\n      return\n        /* \"contracts/kipubank.sol\":738:778  uint256 public immutable withdrawalLimit */\n    tag_8:\n      callvalue\n      dup1\n      iszero\n      tag_56\n      jumpi\n      revert(0x00, 0x00)\n    tag_56:\n      pop\n      tag_57\n      tag_58\n      jump\t// in\n    tag_57:\n      mload(0x40)\n      tag_59\n      swap2\n      swap1\n      tag_35\n      jump\t// in\n    tag_59:\n      mload(0x40)\n      dup1\n      swap2\n      sub\n      swap1\n      return\n        /* \"contracts/kipubank.sol\":3220:3261  mapping(address => uint256) public vaults */\n    tag_9:\n      callvalue\n      dup1\n      iszero\n      tag_60\n      jumpi\n      revert(0x00, 0x00)\n    tag_60:\n      pop\n      tag_61\n      0x04\n      dup1\n      calldatasize\n      sub\n      dup2\n      add\n      swap1\n      tag_62\n      swap2\n      swap1\n      tag_48\n      jump\t// in\n    tag_62:\n      tag_63\n      jump\t// in\n    tag_61:\n      mload(0x40)\n      tag_64\n      swap2\n      swap1\n      tag_35\n      jump\t// in\n    tag_64:\n      mload(0x40)\n      dup1\n      swap2\n      sub\n      swap1\n      return\n        /* \"contracts/kipubank.sol\":17454:18034  function getBankStats() ... */\n    tag_10:\n      callvalue\n      dup1\n      iszero\n      tag_65\n      jumpi\n      revert(0x00, 0x00)\n    tag_65:\n      pop\n      tag_66\n      tag_67\n      jump\t// in\n    tag_66:\n      mload(0x40)\n      tag_68\n      swap5\n      swap4\n      swap3\n      swap2\n      swap1\n      tag_69\n      jump\t// in\n    tag_68:\n      mload(0x40)\n      dup1\n      swap2\n      sub\n      swap1\n      return\n        /* \"contracts/kipubank.sol\":10389:11508  function deposit() external payable nonZeroAmount(msg.value) {... */\n    tag_11:\n      tag_70\n      tag_71\n      jump\t// in\n    tag_70:\n      stop\n        /* \"contracts/kipubank.sol\":1110:1142  uint256 public immutable bankCap */\n    tag_12:\n      callvalue\n      dup1\n      iszero\n      tag_72\n      jumpi\n      revert(0x00, 0x00)\n    tag_72:\n      pop\n      tag_73\n      tag_74\n      jump\t// in\n    tag_73:\n      mload(0x40)\n      tag_75\n      swap2\n      swap1\n      tag_35\n      jump\t// in\n    tag_75:\n      mload(0x40)\n      dup1\n      swap2\n      sub\n      swap1\n      return\n        /* \"contracts/kipubank.sol\":1447:1500  uint256 public constant MINIMUM_DEPOSIT = 0.001 ether */\n    tag_13:\n      callvalue\n      dup1\n      iszero\n      tag_76\n      jumpi\n      revert(0x00, 0x00)\n    tag_76:\n      pop\n      tag_77\n      tag_78\n      jump\t// in\n    tag_77:\n      mload(0x40)\n      tag_79\n      swap2\n      swap1\n      tag_35\n      jump\t// in\n    tag_79:\n      mload(0x40)\n      dup1\n      swap2\n      sub\n      swap1\n      return\n        /* \"contracts/kipubank.sol\":1933:1964  uint256 public totalBankBalance */\n    tag_33:\n      sload(0x00)\n      dup2\n      jump\t// out\n        /* \"contracts/kipubank.sol\":12711:14489  function withdraw(uint256 amount) external nonZeroAmount(amount) {... */\n    tag_40:\n        /* \"contracts/kipubank.sol\":12768:12774  amount */\n      dup1\n        /* \"contracts/kipubank.sol\":9102:9103  0 */\n      0x00\n        /* \"contracts/kipubank.sol\":9092:9098  amount */\n      dup2\n        /* \"contracts/kipubank.sol\":9092:9103  amount == 0 */\n      sub\n        /* \"contracts/kipubank.sol\":9088:9151  if (amount == 0) {... */\n      tag_81\n      jumpi\n        /* \"contracts/kipubank.sol\":9127:9139  ZeroAmount() */\n      mload(0x40)\n      0x1f2a200500000000000000000000000000000000000000000000000000000000\n      dup2\n      mstore\n      0x04\n      add\n      mload(0x40)\n      dup1\n      swap2\n      sub\n      swap1\n      revert\n        /* \"contracts/kipubank.sol\":9088:9151  if (amount == 0) {... */\n    tag_81:\n        /* \"contracts/kipubank.sol\":12905:12911  vaults */\n      0x03\n        /* \"contracts/kipubank.sol\":12905:12923  vaults[msg.sender] */\n      0x00\n        /* \"contracts/kipubank.sol\":12912:12922  msg.sender */\n      caller\n        /* \"contracts/kipubank.sol\":12905:12923  vaults[msg.sender] */\n      0xffffffffffffffffffffffffffffffffffffffff\n      and\n      0xffffffffffffffffffffffffffffffffffffffff\n      and\n      dup2\n      mstore\n      0x20\n      add\n      swap1\n      dup2\n      mstore\n      0x20\n      add\n      0x00\n      keccak256\n      sload\n        /* \"contracts/kipubank.sol\":12896:12902  amount */\n      dup3\n        /* \"contracts/kipubank.sol\":12896:12923  amount > vaults[msg.sender] */\n      gt\n        /* \"contracts/kipubank.sol\":12892:13006  if (amount > vaults[msg.sender]) {... */\n      iszero\n      tag_83\n      jumpi\n        /* \"contracts/kipubank.sol\":12967:12973  amount */\n      dup2\n        /* \"contracts/kipubank.sol\":12975:12981  vaults */\n      0x03\n        /* \"contracts/kipubank.sol\":12975:12993  vaults[msg.sender] */\n      0x00\n        /* \"contracts/kipubank.sol\":12982:12992  msg.sender */\n      caller\n        /* \"contracts/kipubank.sol\":12975:12993  vaults[msg.sender] */\n      0xffffffffffffffffffffffffffffffffffffffff\n      and\n      0xffffffffffffffffffffffffffffffffffffffff\n      and\n      dup2\n      mstore\n      0x20\n      add\n      swap1\n      dup2\n      mstore\n      0x20\n      add\n      0x00\n      keccak256\n      sload\n        /* \"contracts/kipubank.sol\":12947:12994  InsufficientBalance(amount, vaults[msg.sender]) */\n      mload(0x40)\n      0xcf47918100000000000000000000000000000000000000000000000000000000\n      dup2\n      mstore\n      0x04\n      add\n      tag_84\n      swap3\n      swap2\n      swap1\n      tag_20\n      jump\t// in\n    tag_84:\n      mload(0x40)\n      dup1\n      swap2\n      sub\n      swap1\n      revert\n        /* \"contracts/kipubank.sol\":12892:13006  if (amount > vaults[msg.sender]) {... */\n    tag_83:\n        /* \"contracts/kipubank.sol\":13113:13128  withdrawalLimit */\n      immutable(\"0xceebf77a833b30520287ddd9478ff51abbdffa30aa90a8d655dba0e8a79ce0c1\")\n        /* \"contracts/kipubank.sol\":13104:13110  amount */\n      dup3\n        /* \"contracts/kipubank.sol\":13104:13128  amount > withdrawalLimit */\n      gt\n        /* \"contracts/kipubank.sol\":13100:13212  if (amount > withdrawalLimit) {... */\n      iszero\n      tag_85\n      jumpi\n        /* \"contracts/kipubank.sol\":13176:13182  amount */\n      dup2\n        /* \"contracts/kipubank.sol\":13184:13199  withdrawalLimit */\n      immutable(\"0xceebf77a833b30520287ddd9478ff51abbdffa30aa90a8d655dba0e8a79ce0c1\")\n        /* \"contracts/kipubank.sol\":13152:13200  WithdrawalLimitExceeded(amount, withdrawalLimit) */\n      mload(0x40)\n      0xb945e2d800000000000000000000000000000000000000000000000000000000\n      dup2\n      mstore\n      0x04\n      add\n      tag_86\n      swap3\n      swap2\n      swap1\n      tag_20\n      jump\t// in\n    tag_86:\n      mload(0x40)\n      dup1\n      swap2\n      sub\n      swap1\n      revert\n        /* \"contracts/kipubank.sol\":13100:13212  if (amount > withdrawalLimit) {... */\n    tag_85:\n        /* \"contracts/kipubank.sol\":13372:13393  address(this).balance */\n      selfbalance\n        /* \"contracts/kipubank.sol\":13363:13369  amount */\n      dup3\n        /* \"contracts/kipubank.sol\":13363:13393  amount > address(this).balance */\n      gt\n        /* \"contracts/kipubank.sol\":13359:13485  if (amount > address(this).balance) {... */\n      iszero\n      tag_87\n      jumpi\n        /* \"contracts/kipubank.sol\":13443:13449  amount */\n      dup2\n        /* \"contracts/kipubank.sol\":13451:13472  address(this).balance */\n      selfbalance\n        /* \"contracts/kipubank.sol\":13417:13473  InsufficientBankLiquidity(amount, address(this).balance) */\n      mload(0x40)\n      0x26af0c2400000000000000000000000000000000000000000000000000000000\n      dup2\n      mstore\n      0x04\n      add\n      tag_88\n      swap3\n      swap2\n      swap1\n      tag_20\n      jump\t// in\n    tag_88:\n      mload(0x40)\n      dup1\n      swap2\n      sub\n      swap1\n      revert\n        /* \"contracts/kipubank.sol\":13359:13485  if (amount > address(this).balance) {... */\n    tag_87:\n        /* \"contracts/kipubank.sol\":13634:13640  amount */\n      dup2\n        /* \"contracts/kipubank.sol\":13612:13618  vaults */\n      0x03\n        /* \"contracts/kipubank.sol\":13612:13630  vaults[msg.sender] */\n      0x00\n        /* \"contracts/kipubank.sol\":13619:13629  msg.sender */\n      caller\n        /* \"contracts/kipubank.sol\":13612:13630  vaults[msg.sender] */\n      0xffffffffffffffffffffffffffffffffffffffff\n      and\n      0xffffffffffffffffffffffffffffffffffffffff\n      and\n      dup2\n      mstore\n      0x20\n      add\n      swap1\n      dup2\n      mstore\n      0x20\n      add\n      0x00\n      keccak256\n      0x00\n        /* \"contracts/kipubank.sol\":13612:13640  vaults[msg.sender] -= amount */\n      dup3\n      dup3\n      sload\n      tag_89\n      swap2\n      swap1\n      tag_22\n      jump\t// in\n    tag_89:\n      swap3\n      pop\n      pop\n      dup2\n      swap1\n      sstore\n      pop\n        /* \"contracts/kipubank.sol\":13707:13713  amount */\n      dup2\n        /* \"contracts/kipubank.sol\":13687:13703  totalBankBalance */\n      0x00\n      0x00\n        /* \"contracts/kipubank.sol\":13687:13713  totalBankBalance -= amount */\n      dup3\n      dup3\n      sload\n      tag_90\n      swap2\n      swap1\n      tag_22\n      jump\t// in\n    tag_90:\n      swap3\n      pop\n      pop\n      dup2\n      swap1\n      sstore\n      pop\n        /* \"contracts/kipubank.sol\":13766:13782  totalWithdrawals */\n      0x02\n      0x00\n        /* \"contracts/kipubank.sol\":13766:13784  totalWithdrawals++ */\n      dup2\n      sload\n      dup1\n      swap3\n      swap2\n      swap1\n      tag_91\n      swap1\n      tag_29\n      jump\t// in\n    tag_91:\n      swap2\n      swap1\n      pop\n      sstore\n      pop\n        /* \"contracts/kipubank.sol\":13910:13934  uint256 remainingBalance */\n      0x00\n        /* \"contracts/kipubank.sol\":13937:13943  vaults */\n      0x03\n        /* \"contracts/kipubank.sol\":13937:13955  vaults[msg.sender] */\n      0x00\n        /* \"contracts/kipubank.sol\":13944:13954  msg.sender */\n      caller\n        /* \"contracts/kipubank.sol\":13937:13955  vaults[msg.sender] */\n      0xffffffffffffffffffffffffffffffffffffffff\n      and\n      0xffffffffffffffffffffffffffffffffffffffff\n      and\n      dup2\n      mstore\n      0x20\n      add\n      swap1\n      dup2\n      mstore\n      0x20\n      add\n      0x00\n      keccak256\n      sload\n        /* \"contracts/kipubank.sol\":13910:13955  uint256 remainingBalance = vaults[msg.sender] */\n      swap1\n      pop\n        /* \"contracts/kipubank.sol\":14144:14156  bool success */\n      0x00\n        /* \"contracts/kipubank.sol\":14170:14180  msg.sender */\n      caller\n        /* \"contracts/kipubank.sol\":14162:14186  payable(msg.sender).call */\n      0xffffffffffffffffffffffffffffffffffffffff\n      and\n        /* \"contracts/kipubank.sol\":14194:14200  amount */\n      dup5\n        /* \"contracts/kipubank.sol\":14162:14205  payable(msg.sender).call{value: amount}(\"\") */\n      mload(0x40)\n      tag_92\n      swap1\n      tag_93\n      jump\t// in\n    tag_92:\n      0x00\n      mload(0x40)\n      dup1\n      dup4\n      sub\n      dup2\n      dup6\n      dup8\n      gas\n      call\n      swap3\n      pop\n      pop\n      pop\n      returndatasize\n      dup1\n      0x00\n      dup2\n      eq\n      tag_96\n      jumpi\n      mload(0x40)\n      swap2\n      pop\n      and(add(returndatasize, 0x3f), not(0x1f))\n      dup3\n      add\n      0x40\n      mstore\n      returndatasize\n      dup3\n      mstore\n      returndatasize\n      0x00\n      0x20\n      dup5\n      add\n      returndatacopy\n      jump(tag_95)\n    tag_96:\n      0x60\n      swap2\n      pop\n    tag_95:\n      pop\n        /* \"contracts/kipubank.sol\":14143:14205  (bool success, ) = payable(msg.sender).call{value: amount}(\"\") */\n      pop\n      swap1\n      pop\n        /* \"contracts/kipubank.sol\":14286:14293  success */\n      dup1\n        /* \"contracts/kipubank.sol\":14281:14345  if (!success) {... */\n      tag_97\n      jumpi\n        /* \"contracts/kipubank.sol\":14317:14333  TransferFailed() */\n      mload(0x40)\n      0x90b8ec1800000000000000000000000000000000000000000000000000000000\n      dup2\n      mstore\n      0x04\n      add\n      mload(0x40)\n      dup1\n      swap2\n      sub\n      swap1\n      revert\n        /* \"contracts/kipubank.sol\":14281:14345  if (!success) {... */\n    tag_97:\n        /* \"contracts/kipubank.sol\":14444:14454  msg.sender */\n      caller\n        /* \"contracts/kipubank.sol\":14433:14481  Withdrawal(msg.sender, amount, remainingBalance) */\n      0xffffffffffffffffffffffffffffffffffffffff\n      and\n      0xdf273cb619d95419a9cd0ec88123a0538c85064229baa6363788f743fff90deb\n        /* \"contracts/kipubank.sol\":14456:14462  amount */\n      dup6\n        /* \"contracts/kipubank.sol\":14464:14480  remainingBalance */\n      dup5\n        /* \"contracts/kipubank.sol\":14433:14481  Withdrawal(msg.sender, amount, remainingBalance) */\n      mload(0x40)\n      tag_98\n      swap3\n      swap2\n      swap1\n      tag_20\n      jump\t// in\n    tag_98:\n      mload(0x40)\n      dup1\n      swap2\n      sub\n      swap1\n      log2\n        /* \"contracts/kipubank.sol\":12776:14489  {... */\n      pop\n      pop\n        /* \"contracts/kipubank.sol\":12711:14489  function withdraw(uint256 amount) external nonZeroAmount(amount) {... */\n      pop\n      pop\n      jump\t// out\n        /* \"contracts/kipubank.sol\":2531:2562  uint256 public totalWithdrawals */\n    tag_43:\n      sload(0x02)\n      dup2\n      jump\t// out\n        /* \"contracts/kipubank.sol\":15768:16471  function getUserInfo(address user) ... */\n    tag_49:\n        /* \"contracts/kipubank.sol\":15870:15889  uint256 userBalance */\n      0x00\n        /* \"contracts/kipubank.sol\":15905:15926  uint256 maxWithdrawal */\n      0x00\n        /* \"contracts/kipubank.sol\":15942:15963  bool canWithdrawFully */\n      0x00\n        /* \"contracts/kipubank.sol\":16063:16069  vaults */\n      0x03\n        /* \"contracts/kipubank.sol\":16063:16075  vaults[user] */\n      0x00\n        /* \"contracts/kipubank.sol\":16070:16074  user */\n      dup6\n        /* \"contracts/kipubank.sol\":16063:16075  vaults[user] */\n      0xffffffffffffffffffffffffffffffffffffffff\n      and\n      0xffffffffffffffffffffffffffffffffffffffff\n      and\n      dup2\n      mstore\n      0x20\n      add\n      swap1\n      dup2\n      mstore\n      0x20\n      add\n      0x00\n      keccak256\n      sload\n        /* \"contracts/kipubank.sol\":16049:16075  userBalance = vaults[user] */\n      swap3\n      pop\n        /* \"contracts/kipubank.sol\":16178:16207  _calculateMaxWithdrawal(user) */\n      tag_100\n        /* \"contracts/kipubank.sol\":16202:16206  user */\n      dup5\n        /* \"contracts/kipubank.sol\":16178:16201  _calculateMaxWithdrawal */\n      tag_101\n        /* \"contracts/kipubank.sol\":16178:16207  _calculateMaxWithdrawal(user) */\n      jump\t// in\n    tag_100:\n        /* \"contracts/kipubank.sol\":16162:16207  maxWithdrawal = _calculateMaxWithdrawal(user) */\n      swap2\n      pop\n        /* \"contracts/kipubank.sol\":16374:16389  withdrawalLimit */\n      immutable(\"0xceebf77a833b30520287ddd9478ff51abbdffa30aa90a8d655dba0e8a79ce0c1\")\n        /* \"contracts/kipubank.sol\":16359:16370  userBalance */\n      dup4\n        /* \"contracts/kipubank.sol\":16359:16389  userBalance <= withdrawalLimit */\n      gt\n      iszero\n        /* \"contracts/kipubank.sol\":16340:16389  canWithdrawFully = userBalance <= withdrawalLimit */\n      swap1\n      pop\n        /* \"contracts/kipubank.sol\":15768:16471  function getUserInfo(address user) ... */\n      swap2\n      swap4\n      swap1\n      swap3\n      pop\n      jump\t// out\n        /* \"contracts/kipubank.sol\":2257:2285  uint256 public totalDeposits */\n    tag_54:\n      sload(0x01)\n      dup2\n      jump\t// out\n        /* \"contracts/kipubank.sol\":738:778  uint256 public immutable withdrawalLimit */\n    tag_58:\n      immutable(\"0xceebf77a833b30520287ddd9478ff51abbdffa30aa90a8d655dba0e8a79ce0c1\")\n      dup2\n      jump\t// out\n        /* \"contracts/kipubank.sol\":3220:3261  mapping(address => uint256) public vaults */\n    tag_63:\n      mstore(0x20, 0x03)\n      dup1\n      0x00\n      mstore\n      keccak256(0x00, 0x40)\n      0x00\n      swap2\n      pop\n      swap1\n      pop\n      sload\n      dup2\n      jump\t// out\n        /* \"contracts/kipubank.sol\":17454:18034  function getBankStats() ... */\n    tag_67:\n        /* \"contracts/kipubank.sol\":17545:17565  uint256 totalBalance */\n      0x00\n        /* \"contracts/kipubank.sol\":17580:17601  uint256 depositsCount */\n      0x00\n        /* \"contracts/kipubank.sol\":17616:17640  uint256 withdrawalsCount */\n      0x00\n        /* \"contracts/kipubank.sol\":17655:17680  uint256 remainingCapacity */\n      0x00\n        /* \"contracts/kipubank.sol\":17723:17739  totalBankBalance */\n      sload(0x00)\n        /* \"contracts/kipubank.sol\":17708:17739  totalBalance = totalBankBalance */\n      swap4\n      pop\n        /* \"contracts/kipubank.sol\":17766:17779  totalDeposits */\n      sload(0x01)\n        /* \"contracts/kipubank.sol\":17750:17779  depositsCount = totalDeposits */\n      swap3\n      pop\n        /* \"contracts/kipubank.sol\":17809:17825  totalWithdrawals */\n      sload(0x02)\n        /* \"contracts/kipubank.sol\":17790:17825  withdrawalsCount = totalWithdrawals */\n      swap2\n      pop\n        /* \"contracts/kipubank.sol\":17916:17932  totalBankBalance */\n      sload(0x00)\n        /* \"contracts/kipubank.sol\":17906:17913  bankCap */\n      immutable(\"0xe4b1702d9298fee62dfeccc57d322a463ad55ca201256d01f62b45b2e1c21c10\")\n        /* \"contracts/kipubank.sol\":17906:17932  bankCap - totalBankBalance */\n      tag_103\n      swap2\n      swap1\n      tag_22\n      jump\t// in\n    tag_103:\n        /* \"contracts/kipubank.sol\":17886:17932  remainingCapacity = bankCap - totalBankBalance */\n      swap1\n      pop\n        /* \"contracts/kipubank.sol\":17454:18034  function getBankStats() ... */\n      swap1\n      swap2\n      swap3\n      swap4\n      jump\t// out\n        /* \"contracts/kipubank.sol\":10389:11508  function deposit() external payable nonZeroAmount(msg.value) {... */\n    tag_71:\n        /* \"contracts/kipubank.sol\":10439:10448  msg.value */\n      callvalue\n        /* \"contracts/kipubank.sol\":9102:9103  0 */\n      0x00\n        /* \"contracts/kipubank.sol\":9092:9098  amount */\n      dup2\n        /* \"contracts/kipubank.sol\":9092:9103  amount == 0 */\n      sub\n        /* \"contracts/kipubank.sol\":9088:9151  if (amount == 0) {... */\n      tag_105\n      jumpi\n        /* \"contracts/kipubank.sol\":9127:9139  ZeroAmount() */\n      mload(0x40)\n      0x1f2a200500000000000000000000000000000000000000000000000000000000\n      dup2\n      mstore\n      0x04\n      add\n      mload(0x40)\n      dup1\n      swap2\n      sub\n      swap1\n      revert\n        /* \"contracts/kipubank.sol\":9088:9151  if (amount == 0) {... */\n    tag_105:\n        /* \"contracts/kipubank.sol\":1489:1500  0.001 ether */\n      0x038d7ea4c68000\n        /* \"contracts/kipubank.sol\":10565:10574  msg.value */\n      callvalue\n        /* \"contracts/kipubank.sol\":10565:10592  msg.value < MINIMUM_DEPOSIT */\n      lt\n        /* \"contracts/kipubank.sol\":10561:10671  if (msg.value < MINIMUM_DEPOSIT) {... */\n      iszero\n      tag_107\n      jumpi\n        /* \"contracts/kipubank.sol\":10632:10641  msg.value */\n      callvalue\n        /* \"contracts/kipubank.sol\":1489:1500  0.001 ether */\n      0x038d7ea4c68000\n        /* \"contracts/kipubank.sol\":10616:10659  DepositTooSmall(msg.value, MINIMUM_DEPOSIT) */\n      mload(0x40)\n      0x4a77f2fa00000000000000000000000000000000000000000000000000000000\n      dup2\n      mstore\n      0x04\n      add\n      tag_108\n      swap3\n      swap2\n      swap1\n      tag_20\n      jump\t// in\n    tag_108:\n      mload(0x40)\n      dup1\n      swap2\n      sub\n      swap1\n      revert\n        /* \"contracts/kipubank.sol\":10561:10671  if (msg.value < MINIMUM_DEPOSIT) {... */\n    tag_107:\n        /* \"contracts/kipubank.sol\":10760:10782  uint256 availableSpace */\n      0x00\n        /* \"contracts/kipubank.sol\":10795:10811  totalBankBalance */\n      sload(0x00)\n        /* \"contracts/kipubank.sol\":10785:10792  bankCap */\n      immutable(\"0xe4b1702d9298fee62dfeccc57d322a463ad55ca201256d01f62b45b2e1c21c10\")\n        /* \"contracts/kipubank.sol\":10785:10811  bankCap - totalBankBalance */\n      tag_109\n      swap2\n      swap1\n      tag_22\n      jump\t// in\n    tag_109:\n        /* \"contracts/kipubank.sol\":10760:10811  uint256 availableSpace = bankCap - totalBankBalance */\n      swap1\n      pop\n        /* \"contracts/kipubank.sol\":10838:10852  availableSpace */\n      dup1\n        /* \"contracts/kipubank.sol\":10826:10835  msg.value */\n      callvalue\n        /* \"contracts/kipubank.sol\":10826:10852  msg.value > availableSpace */\n      gt\n        /* \"contracts/kipubank.sol\":10822:10930  if (msg.value > availableSpace) {... */\n      iszero\n      tag_110\n      jumpi\n        /* \"contracts/kipubank.sol\":10892:10901  msg.value */\n      callvalue\n        /* \"contracts/kipubank.sol\":10903:10917  availableSpace */\n      dup2\n        /* \"contracts/kipubank.sol\":10876:10918  BankCapExceeded(msg.value, availableSpace) */\n      mload(0x40)\n      0x31728a0500000000000000000000000000000000000000000000000000000000\n      dup2\n      mstore\n      0x04\n      add\n      tag_111\n      swap3\n      swap2\n      swap1\n      tag_20\n      jump\t// in\n    tag_111:\n      mload(0x40)\n      dup1\n      swap2\n      sub\n      swap1\n      revert\n        /* \"contracts/kipubank.sol\":10822:10930  if (msg.value > availableSpace) {... */\n    tag_110:\n        /* \"contracts/kipubank.sol\":11085:11094  msg.value */\n      callvalue\n        /* \"contracts/kipubank.sol\":11063:11069  vaults */\n      0x03\n        /* \"contracts/kipubank.sol\":11063:11081  vaults[msg.sender] */\n      0x00\n        /* \"contracts/kipubank.sol\":11070:11080  msg.sender */\n      caller\n        /* \"contracts/kipubank.sol\":11063:11081  vaults[msg.sender] */\n      0xffffffffffffffffffffffffffffffffffffffff\n      and\n      0xffffffffffffffffffffffffffffffffffffffff\n      and\n      dup2\n      mstore\n      0x20\n      add\n      swap1\n      dup2\n      mstore\n      0x20\n      add\n      0x00\n      keccak256\n      0x00\n        /* \"contracts/kipubank.sol\":11063:11094  vaults[msg.sender] += msg.value */\n      dup3\n      dup3\n      sload\n      tag_112\n      swap2\n      swap1\n      tag_26\n      jump\t// in\n    tag_112:\n      swap3\n      pop\n      pop\n      dup2\n      swap1\n      sstore\n      pop\n        /* \"contracts/kipubank.sol\":11160:11169  msg.value */\n      callvalue\n        /* \"contracts/kipubank.sol\":11140:11156  totalBankBalance */\n      0x00\n      0x00\n        /* \"contracts/kipubank.sol\":11140:11169  totalBankBalance += msg.value */\n      dup3\n      dup3\n      sload\n      tag_113\n      swap2\n      swap1\n      tag_26\n      jump\t// in\n    tag_113:\n      swap3\n      pop\n      pop\n      dup2\n      swap1\n      sstore\n      pop\n        /* \"contracts/kipubank.sol\":11222:11235  totalDeposits */\n      0x01\n      0x00\n        /* \"contracts/kipubank.sol\":11222:11237  totalDeposits++ */\n      dup2\n      sload\n      dup1\n      swap3\n      swap2\n      swap1\n      tag_114\n      swap1\n      tag_29\n      jump\t// in\n    tag_114:\n      swap2\n      swap1\n      pop\n      sstore\n      pop\n        /* \"contracts/kipubank.sol\":11458:11468  msg.sender */\n      caller\n        /* \"contracts/kipubank.sol\":11450:11500  Deposit(msg.sender, msg.value, vaults[msg.sender]) */\n      0xffffffffffffffffffffffffffffffffffffffff\n      and\n      0x90890809c654f11d6e72a28fa60149770a0d11ec6c92319d6ceb2bb0a4ea1a15\n        /* \"contracts/kipubank.sol\":11470:11479  msg.value */\n      callvalue\n        /* \"contracts/kipubank.sol\":11481:11487  vaults */\n      0x03\n        /* \"contracts/kipubank.sol\":11481:11499  vaults[msg.sender] */\n      0x00\n        /* \"contracts/kipubank.sol\":11488:11498  msg.sender */\n      caller\n        /* \"contracts/kipubank.sol\":11481:11499  vaults[msg.sender] */\n      0xffffffffffffffffffffffffffffffffffffffff\n      and\n      0xffffffffffffffffffffffffffffffffffffffff\n      and\n      dup2\n      mstore\n      0x20\n      add\n      swap1\n      dup2\n      mstore\n      0x20\n      add\n      0x00\n      keccak256\n      sload\n        /* \"contracts/kipubank.sol\":11450:11500  Deposit(msg.sender, msg.value, vaults[msg.sender]) */\n      mload(0x40)\n      tag_115\n      swap3\n      swap2\n      swap1\n      tag_20\n      jump\t// in\n    tag_115:\n      mload(0x40)\n      dup1\n      swap2\n      sub\n      swap1\n      log2\n        /* \"contracts/kipubank.sol\":10450:11508  {... */\n      pop\n        /* \"contracts/kipubank.sol\":10389:11508  function deposit() external payable nonZeroAmount(msg.value) {... */\n      pop\n      jump\t// out\n        /* \"contracts/kipubank.sol\":1110:1142  uint256 public immutable bankCap */\n    tag_74:\n      immutable(\"0xe4b1702d9298fee62dfeccc57d322a463ad55ca201256d01f62b45b2e1c21c10\")\n      dup2\n      jump\t// out\n        /* \"contracts/kipubank.sol\":1447:1500  uint256 public constant MINIMUM_DEPOSIT = 0.001 ether */\n    tag_78:\n        /* \"contracts/kipubank.sol\":1489:1500  0.001 ether */\n      0x038d7ea4c68000\n        /* \"contracts/kipubank.sol\":1447:1500  uint256 public constant MINIMUM_DEPOSIT = 0.001 ether */\n      dup2\n      jump\t// out\n        /* \"contracts/kipubank.sol\":19360:20173  function _calculateMaxWithdrawal(address user) private view returns (uint256) {... */\n    tag_101:\n        /* \"contracts/kipubank.sol\":19429:19436  uint256 */\n      0x00\n        /* \"contracts/kipubank.sol\":19491:19510  uint256 userBalance */\n      0x00\n        /* \"contracts/kipubank.sol\":19513:19519  vaults */\n      0x03\n        /* \"contracts/kipubank.sol\":19513:19525  vaults[user] */\n      0x00\n        /* \"contracts/kipubank.sol\":19520:19524  user */\n      dup5\n        /* \"contracts/kipubank.sol\":19513:19525  vaults[user] */\n      0xffffffffffffffffffffffffffffffffffffffff\n      and\n      0xffffffffffffffffffffffffffffffffffffffff\n      and\n      dup2\n      mstore\n      0x20\n      add\n      swap1\n      dup2\n      mstore\n      0x20\n      add\n      0x00\n      keccak256\n      sload\n        /* \"contracts/kipubank.sol\":19491:19525  uint256 userBalance = vaults[user] */\n      swap1\n      pop\n        /* \"contracts/kipubank.sol\":19648:19669  uint256 bankLiquidity */\n      0x00\n        /* \"contracts/kipubank.sol\":19672:19693  address(this).balance */\n      selfbalance\n        /* \"contracts/kipubank.sol\":19648:19693  uint256 bankLiquidity = address(this).balance */\n      swap1\n      pop\n        /* \"contracts/kipubank.sol\":19782:19799  uint256 maxAmount */\n      0x00\n        /* \"contracts/kipubank.sol\":19802:19813  userBalance */\n      dup3\n        /* \"contracts/kipubank.sol\":19782:19813  uint256 maxAmount = userBalance */\n      swap1\n      pop\n        /* \"contracts/kipubank.sol\":19905:19920  withdrawalLimit */\n      immutable(\"0xceebf77a833b30520287ddd9478ff51abbdffa30aa90a8d655dba0e8a79ce0c1\")\n        /* \"contracts/kipubank.sol\":19893:19902  maxAmount */\n      dup2\n        /* \"contracts/kipubank.sol\":19893:19920  maxAmount > withdrawalLimit */\n      gt\n        /* \"contracts/kipubank.sol\":19889:19976  if (maxAmount > withdrawalLimit) {... */\n      iszero\n      tag_117\n      jumpi\n        /* \"contracts/kipubank.sol\":19949:19964  withdrawalLimit */\n      immutable(\"0xceebf77a833b30520287ddd9478ff51abbdffa30aa90a8d655dba0e8a79ce0c1\")\n        /* \"contracts/kipubank.sol\":19937:19964  maxAmount = withdrawalLimit */\n      swap1\n      pop\n        /* \"contracts/kipubank.sol\":19889:19976  if (maxAmount > withdrawalLimit) {... */\n    tag_117:\n        /* \"contracts/kipubank.sol\":20062:20075  bankLiquidity */\n      dup2\n        /* \"contracts/kipubank.sol\":20050:20059  maxAmount */\n      dup2\n        /* \"contracts/kipubank.sol\":20050:20075  maxAmount > bankLiquidity */\n      gt\n        /* \"contracts/kipubank.sol\":20046:20129  if (maxAmount > bankLiquidity) {... */\n      iszero\n      tag_118\n      jumpi\n        /* \"contracts/kipubank.sol\":20104:20117  bankLiquidity */\n      dup2\n        /* \"contracts/kipubank.sol\":20092:20117  maxAmount = bankLiquidity */\n      swap1\n      pop\n        /* \"contracts/kipubank.sol\":20046:20129  if (maxAmount > bankLiquidity) {... */\n    tag_118:\n        /* \"contracts/kipubank.sol\":20156:20165  maxAmount */\n      dup1\n        /* \"contracts/kipubank.sol\":20149:20165  return maxAmount */\n      swap4\n      pop\n      pop\n      pop\n      pop\n        /* \"contracts/kipubank.sol\":19360:20173  function _calculateMaxWithdrawal(address user) private view returns (uint256) {... */\n      swap2\n      swap1\n      pop\n      jump\t// out\n        /* \"#utility.yul\":7:84   */\n    tag_119:\n        /* \"#utility.yul\":44:51   */\n      0x00\n        /* \"#utility.yul\":73:78   */\n      dup2\n        /* \"#utility.yul\":62:78   */\n      swap1\n      pop\n        /* \"#utility.yul\":7:84   */\n      swap2\n      swap1\n      pop\n      jump\t// out\n        /* \"#utility.yul\":90:208   */\n    tag_120:\n        /* \"#utility.yul\":177:201   */\n      tag_139\n        /* \"#utility.yul\":195:200   */\n      dup2\n        /* \"#utility.yul\":177:201   */\n      tag_119\n      jump\t// in\n    tag_139:\n        /* \"#utility.yul\":172:175   */\n      dup3\n        /* \"#utility.yul\":165:202   */\n      mstore\n        /* \"#utility.yul\":90:208   */\n      pop\n      pop\n      jump\t// out\n        /* \"#utility.yul\":214:546   */\n    tag_20:\n        /* \"#utility.yul\":335:339   */\n      0x00\n        /* \"#utility.yul\":373:375   */\n      0x40\n        /* \"#utility.yul\":362:371   */\n      dup3\n        /* \"#utility.yul\":358:376   */\n      add\n        /* \"#utility.yul\":350:376   */\n      swap1\n      pop\n        /* \"#utility.yul\":386:457   */\n      tag_141\n        /* \"#utility.yul\":454:455   */\n      0x00\n        /* \"#utility.yul\":443:452   */\n      dup4\n        /* \"#utility.yul\":439:456   */\n      add\n        /* \"#utility.yul\":430:436   */\n      dup6\n        /* \"#utility.yul\":386:457   */\n      tag_120\n      jump\t// in\n    tag_141:\n        /* \"#utility.yul\":467:539   */\n      tag_142\n        /* \"#utility.yul\":535:537   */\n      0x20\n        /* \"#utility.yul\":524:533   */\n      dup4\n        /* \"#utility.yul\":520:538   */\n      add\n        /* \"#utility.yul\":511:517   */\n      dup5\n        /* \"#utility.yul\":467:539   */\n      tag_120\n      jump\t// in\n    tag_142:\n        /* \"#utility.yul\":214:546   */\n      swap4\n      swap3\n      pop\n      pop\n      pop\n      jump\t// out\n        /* \"#utility.yul\":552:732   */\n    tag_121:\n        /* \"#utility.yul\":600:677   */\n      0x4e487b7100000000000000000000000000000000000000000000000000000000\n        /* \"#utility.yul\":597:598   */\n      0x00\n        /* \"#utility.yul\":590:678   */\n      mstore\n        /* \"#utility.yul\":697:701   */\n      0x11\n        /* \"#utility.yul\":694:695   */\n      0x04\n        /* \"#utility.yul\":687:702   */\n      mstore\n        /* \"#utility.yul\":721:725   */\n      0x24\n        /* \"#utility.yul\":718:719   */\n      0x00\n        /* \"#utility.yul\":711:726   */\n      revert\n        /* \"#utility.yul\":738:932   */\n    tag_22:\n        /* \"#utility.yul\":778:782   */\n      0x00\n        /* \"#utility.yul\":798:818   */\n      tag_145\n        /* \"#utility.yul\":816:817   */\n      dup3\n        /* \"#utility.yul\":798:818   */\n      tag_119\n      jump\t// in\n    tag_145:\n        /* \"#utility.yul\":793:818   */\n      swap2\n      pop\n        /* \"#utility.yul\":832:852   */\n      tag_146\n        /* \"#utility.yul\":850:851   */\n      dup4\n        /* \"#utility.yul\":832:852   */\n      tag_119\n      jump\t// in\n    tag_146:\n        /* \"#utility.yul\":827:852   */\n      swap3\n      pop\n        /* \"#utility.yul\":876:877   */\n      dup3\n        /* \"#utility.yul\":873:874   */\n      dup3\n        /* \"#utility.yul\":869:878   */\n      sub\n        /* \"#utility.yul\":861:878   */\n      swap1\n      pop\n        /* \"#utility.yul\":900:901   */\n      dup2\n        /* \"#utility.yul\":894:898   */\n      dup2\n        /* \"#utility.yul\":891:902   */\n      gt\n        /* \"#utility.yul\":888:925   */\n      iszero\n      tag_147\n      jumpi\n        /* \"#utility.yul\":905:923   */\n      tag_148\n      tag_121\n      jump\t// in\n    tag_148:\n        /* \"#utility.yul\":888:925   */\n    tag_147:\n        /* \"#utility.yul\":738:932   */\n      swap3\n      swap2\n      pop\n      pop\n      jump\t// out\n        /* \"#utility.yul\":938:1129   */\n    tag_26:\n        /* \"#utility.yul\":978:981   */\n      0x00\n        /* \"#utility.yul\":997:1017   */\n      tag_150\n        /* \"#utility.yul\":1015:1016   */\n      dup3\n        /* \"#utility.yul\":997:1017   */\n      tag_119\n      jump\t// in\n    tag_150:\n        /* \"#utility.yul\":992:1017   */\n      swap2\n      pop\n        /* \"#utility.yul\":1031:1051   */\n      tag_151\n        /* \"#utility.yul\":1049:1050   */\n      dup4\n        /* \"#utility.yul\":1031:1051   */\n      tag_119\n      jump\t// in\n    tag_151:\n        /* \"#utility.yul\":1026:1051   */\n      swap3\n      pop\n        /* \"#utility.yul\":1074:1075   */\n      dup3\n        /* \"#utility.yul\":1071:1072   */\n      dup3\n        /* \"#utility.yul\":1067:1076   */\n      add\n        /* \"#utility.yul\":1060:1076   */\n      swap1\n      pop\n        /* \"#utility.yul\":1095:1098   */\n      dup1\n        /* \"#utility.yul\":1092:1093   */\n      dup3\n        /* \"#utility.yul\":1089:1099   */\n      gt\n        /* \"#utility.yul\":1086:1122   */\n      iszero\n      tag_152\n      jumpi\n        /* \"#utility.yul\":1102:1120   */\n      tag_153\n      tag_121\n      jump\t// in\n    tag_153:\n        /* \"#utility.yul\":1086:1122   */\n    tag_152:\n        /* \"#utility.yul\":938:1129   */\n      swap3\n      swap2\n      pop\n      pop\n      jump\t// out\n        /* \"#utility.yul\":1135:1368   */\n    tag_29:\n        /* \"#utility.yul\":1174:1177   */\n      0x00\n        /* \"#utility.yul\":1197:1221   */\n      tag_155\n        /* \"#utility.yul\":1215:1220   */\n      dup3\n        /* \"#utility.yul\":1197:1221   */\n      tag_119\n      jump\t// in\n    tag_155:\n        /* \"#utility.yul\":1188:1221   */\n      swap2\n      pop\n        /* \"#utility.yul\":1243:1309   */\n      0xffffffffffffffffffffffffffffffffffffffffffffffffffffffffffffffff\n        /* \"#utility.yul\":1236:1241   */\n      dup3\n        /* \"#utility.yul\":1233:1310   */\n      sub\n        /* \"#utility.yul\":1230:1333   */\n      tag_156\n      jumpi\n        /* \"#utility.yul\":1313:1331   */\n      tag_157\n      tag_121\n      jump\t// in\n    tag_157:\n        /* \"#utility.yul\":1230:1333   */\n    tag_156:\n        /* \"#utility.yul\":1360:1361   */\n      0x01\n        /* \"#utility.yul\":1353:1358   */\n      dup3\n        /* \"#utility.yul\":1349:1362   */\n      add\n        /* \"#utility.yul\":1342:1362   */\n      swap1\n      pop\n        /* \"#utility.yul\":1135:1368   */\n      swap2\n      swap1\n      pop\n      jump\t// out\n        /* \"#utility.yul\":1374:1596   */\n    tag_35:\n        /* \"#utility.yul\":1467:1471   */\n      0x00\n        /* \"#utility.yul\":1505:1507   */\n      0x20\n        /* \"#utility.yul\":1494:1503   */\n      dup3\n        /* \"#utility.yul\":1490:1508   */\n      add\n        /* \"#utility.yul\":1482:1508   */\n      swap1\n      pop\n        /* \"#utility.yul\":1518:1589   */\n      tag_159\n        /* \"#utility.yul\":1586:1587   */\n      0x00\n        /* \"#utility.yul\":1575:1584   */\n      dup4\n        /* \"#utility.yul\":1571:1588   */\n      add\n        /* \"#utility.yul\":1562:1568   */\n      dup5\n        /* \"#utility.yul\":1518:1589   */\n      tag_120\n      jump\t// in\n    tag_159:\n        /* \"#utility.yul\":1374:1596   */\n      swap3\n      swap2\n      pop\n      pop\n      jump\t// out\n        /* \"#utility.yul\":1683:1800   */\n    tag_123:\n        /* \"#utility.yul\":1792:1793   */\n      0x00\n        /* \"#utility.yul\":1789:1790   */\n      0x00\n        /* \"#utility.yul\":1782:1794   */\n      revert\n        /* \"#utility.yul\":1929:2051   */\n    tag_125:\n        /* \"#utility.yul\":2002:2026   */\n      tag_164\n        /* \"#utility.yul\":2020:2025   */\n      dup2\n        /* \"#utility.yul\":2002:2026   */\n      tag_119\n      jump\t// in\n    tag_164:\n        /* \"#utility.yul\":1995:2000   */\n      dup2\n        /* \"#utility.yul\":1992:2027   */\n      eq\n        /* \"#utility.yul\":1982:2045   */\n      tag_165\n      jumpi\n        /* \"#utility.yul\":2041:2042   */\n      0x00\n        /* \"#utility.yul\":2038:2039   */\n      0x00\n        /* \"#utility.yul\":2031:2043   */\n      revert\n        /* \"#utility.yul\":1982:2045   */\n    tag_165:\n        /* \"#utility.yul\":1929:2051   */\n      pop\n      jump\t// out\n        /* \"#utility.yul\":2057:2196   */\n    tag_126:\n        /* \"#utility.yul\":2103:2108   */\n      0x00\n        /* \"#utility.yul\":2141:2147   */\n      dup2\n        /* \"#utility.yul\":2128:2148   */\n      calldataload\n        /* \"#utility.yul\":2119:2148   */\n      swap1\n      pop\n        /* \"#utility.yul\":2157:2190   */\n      tag_167\n        /* \"#utility.yul\":2184:2189   */\n      dup2\n        /* \"#utility.yul\":2157:2190   */\n      tag_125\n      jump\t// in\n    tag_167:\n        /* \"#utility.yul\":2057:2196   */\n      swap3\n      swap2\n      pop\n      pop\n      jump\t// out\n        /* \"#utility.yul\":2202:2531   */\n    tag_39:\n        /* \"#utility.yul\":2261:2267   */\n      0x00\n        /* \"#utility.yul\":2310:2312   */\n      0x20\n        /* \"#utility.yul\":2298:2307   */\n      dup3\n        /* \"#utility.yul\":2289:2296   */\n      dup5\n        /* \"#utility.yul\":2285:2308   */\n      sub\n        /* \"#utility.yul\":2281:2313   */\n      slt\n        /* \"#utility.yul\":2278:2397   */\n      iszero\n      tag_169\n      jumpi\n        /* \"#utility.yul\":2316:2395   */\n      tag_170\n      tag_123\n      jump\t// in\n    tag_170:\n        /* \"#utility.yul\":2278:2397   */\n    tag_169:\n        /* \"#utility.yul\":2436:2437   */\n      0x00\n        /* \"#utility.yul\":2461:2514   */\n      tag_171\n        /* \"#utility.yul\":2506:2513   */\n      dup5\n        /* \"#utility.yul\":2497:2503   */\n      dup3\n        /* \"#utility.yul\":2486:2495   */\n      dup6\n        /* \"#utility.yul\":2482:2504   */\n      add\n        /* \"#utility.yul\":2461:2514   */\n      tag_126\n      jump\t// in\n    tag_171:\n        /* \"#utility.yul\":2451:2514   */\n      swap2\n      pop\n        /* \"#utility.yul\":2407:2524   */\n      pop\n        /* \"#utility.yul\":2202:2531   */\n      swap3\n      swap2\n      pop\n      pop\n      jump\t// out\n        /* \"#utility.yul\":2537:2663   */\n    tag_127:\n        /* \"#utility.yul\":2574:2581   */\n      0x00\n        /* \"#utility.yul\":2614:2656   */\n      0xffffffffffffffffffffffffffffffffffffffff\n        /* \"#utility.yul\":2607:2612   */\n      dup3\n        /* \"#utility.yul\":2603:2657   */\n      and\n        /* \"#utility.yul\":2592:2657   */\n      swap1\n      pop\n        /* \"#utility.yul\":2537:2663   */\n      swap2\n      swap1\n      pop\n      jump\t// out\n        /* \"#utility.yul\":2669:2765   */\n    tag_128:\n        /* \"#utility.yul\":2706:2713   */\n      0x00\n        /* \"#utility.yul\":2735:2759   */\n      tag_174\n        /* \"#utility.yul\":2753:2758   */\n      dup3\n        /* \"#utility.yul\":2735:2759   */\n      tag_127\n      jump\t// in\n    tag_174:\n        /* \"#utility.yul\":2724:2759   */\n      swap1\n      pop\n        /* \"#utility.yul\":2669:2765   */\n      swap2\n      swap1\n      pop\n      jump\t// out\n        /* \"#utility.yul\":2771:2893   */\n    tag_129:\n        /* \"#utility.yul\":2844:2868   */\n      tag_176\n        /* \"#utility.yul\":2862:2867   */\n      dup2\n        /* \"#utility.yul\":2844:2868   */\n      tag_128\n      jump\t// in\n    tag_176:\n        /* \"#utility.yul\":2837:2842   */\n      dup2\n        /* \"#utility.yul\":2834:2869   */\n      eq\n        /* \"#utility.yul\":2824:2887   */\n      tag_177\n      jumpi\n        /* \"#utility.yul\":2883:2884   */\n      0x00\n        /* \"#utility.yul\":2880:2881   */\n      0x00\n        /* \"#utility.yul\":2873:2885   */\n      revert\n        /* \"#utility.yul\":2824:2887   */\n    tag_177:\n        /* \"#utility.yul\":2771:2893   */\n      pop\n      jump\t// out\n        /* \"#utility.yul\":2899:3038   */\n    tag_130:\n        /* \"#utility.yul\":2945:2950   */\n      0x00\n        /* \"#utility.yul\":2983:2989   */\n      dup2\n        /* \"#utility.yul\":2970:2990   */\n      calldataload\n        /* \"#utility.yul\":2961:2990   */\n      swap1\n      pop\n        /* \"#utility.yul\":2999:3032   */\n      tag_179\n        /* \"#utility.yul\":3026:3031   */\n      dup2\n        /* \"#utility.yul\":2999:3032   */\n      tag_129\n      jump\t// in\n    tag_179:\n        /* \"#utility.yul\":2899:3038   */\n      swap3\n      swap2\n      pop\n      pop\n      jump\t// out\n        /* \"#utility.yul\":3044:3373   */\n    tag_48:\n        /* \"#utility.yul\":3103:3109   */\n      0x00\n        /* \"#utility.yul\":3152:3154   */\n      0x20\n        /* \"#utility.yul\":3140:3149   */\n      dup3\n        /* \"#utility.yul\":3131:3138   */\n      dup5\n        /* \"#utility.yul\":3127:3150   */\n      sub\n        /* \"#utility.yul\":3123:3155   */\n      slt\n        /* \"#utility.yul\":3120:3239   */\n      iszero\n      tag_181\n      jumpi\n        /* \"#utility.yul\":3158:3237   */\n      tag_182\n      tag_123\n      jump\t// in\n    tag_182:\n        /* \"#utility.yul\":3120:3239   */\n    tag_181:\n        /* \"#utility.yul\":3278:3279   */\n      0x00\n        /* \"#utility.yul\":3303:3356   */\n      tag_183\n        /* \"#utility.yul\":3348:3355   */\n      dup5\n        /* \"#utility.yul\":3339:3345   */\n      dup3\n        /* \"#utility.yul\":3328:3337   */\n      dup6\n        /* \"#utility.yul\":3324:3346   */\n      add\n        /* \"#utility.yul\":3303:3356   */\n      tag_130\n      jump\t// in\n    tag_183:\n        /* \"#utility.yul\":3293:3356   */\n      swap2\n      pop\n        /* \"#utility.yul\":3249:3366   */\n      pop\n        /* \"#utility.yul\":3044:3373   */\n      swap3\n      swap2\n      pop\n      pop\n      jump\t// out\n        /* \"#utility.yul\":3379:3469   */\n    tag_131:\n        /* \"#utility.yul\":3413:3420   */\n      0x00\n        /* \"#utility.yul\":3456:3461   */\n      dup2\n        /* \"#utility.yul\":3449:3462   */\n      iszero\n        /* \"#utility.yul\":3442:3463   */\n      iszero\n        /* \"#utility.yul\":3431:3463   */\n      swap1\n      pop\n        /* \"#utility.yul\":3379:3469   */\n      swap2\n      swap1\n      pop\n      jump\t// out\n        /* \"#utility.yul\":3475:3584   */\n    tag_132:\n        /* \"#utility.yul\":3556:3577   */\n      tag_186\n        /* \"#utility.yul\":3571:3576   */\n      dup2\n        /* \"#utility.yul\":3556:3577   */\n      tag_131\n      jump\t// in\n    tag_186:\n        /* \"#utility.yul\":3551:3554   */\n      dup3\n        /* \"#utility.yul\":3544:3578   */\n      mstore\n        /* \"#utility.yul\":3475:3584   */\n      pop\n      pop\n      jump\t// out\n        /* \"#utility.yul\":3590:4020   */\n    tag_51:\n        /* \"#utility.yul\":3733:3737   */\n      0x00\n        /* \"#utility.yul\":3771:3773   */\n      0x60\n        /* \"#utility.yul\":3760:3769   */\n      dup3\n        /* \"#utility.yul\":3756:3774   */\n      add\n        /* \"#utility.yul\":3748:3774   */\n      swap1\n      pop\n        /* \"#utility.yul\":3784:3855   */\n      tag_188\n        /* \"#utility.yul\":3852:3853   */\n      0x00\n        /* \"#utility.yul\":3841:3850   */\n      dup4\n        /* \"#utility.yul\":3837:3854   */\n      add\n        /* \"#utility.yul\":3828:3834   */\n      dup7\n        /* \"#utility.yul\":3784:3855   */\n      tag_120\n      jump\t// in\n    tag_188:\n        /* \"#utility.yul\":3865:3937   */\n      tag_189\n        /* \"#utility.yul\":3933:3935   */\n      0x20\n        /* \"#utility.yul\":3922:3931   */\n      dup4\n        /* \"#utility.yul\":3918:3936   */\n      add\n        /* \"#utility.yul\":3909:3915   */\n      dup6\n        /* \"#utility.yul\":3865:3937   */\n      tag_120\n      jump\t// in\n    tag_189:\n        /* \"#utility.yul\":3947:4013   */\n      tag_190\n        /* \"#utility.yul\":4009:4011   */\n      0x40\n        /* \"#utility.yul\":3998:4007   */\n      dup4\n        /* \"#utility.yul\":3994:4012   */\n      add\n        /* \"#utility.yul\":3985:3991   */\n      dup5\n        /* \"#utility.yul\":3947:4013   */\n      tag_132\n      jump\t// in\n    tag_190:\n        /* \"#utility.yul\":3590:4020   */\n      swap5\n      swap4\n      pop\n      pop\n      pop\n      pop\n      jump\t// out\n        /* \"#utility.yul\":4026:4579   */\n    tag_69:\n        /* \"#utility.yul\":4203:4207   */\n      0x00\n        /* \"#utility.yul\":4241:4244   */\n      0x80\n        /* \"#utility.yul\":4230:4239   */\n      dup3\n        /* \"#utility.yul\":4226:4245   */\n      add\n        /* \"#utility.yul\":4218:4245   */\n      swap1\n      pop\n        /* \"#utility.yul\":4255:4326   */\n      tag_192\n        /* \"#utility.yul\":4323:4324   */\n      0x00\n        /* \"#utility.yul\":4312:4321   */\n      dup4\n        /* \"#utility.yul\":4308:4325   */\n      add\n        /* \"#utility.yul\":4299:4305   */\n      dup8\n        /* \"#utility.yul\":4255:4326   */\n      tag_120\n      jump\t// in\n    tag_192:\n        /* \"#utility.yul\":4336:4408   */\n      tag_193\n        /* \"#utility.yul\":4404:4406   */\n      0x20\n        /* \"#utility.yul\":4393:4402   */\n      dup4\n        /* \"#utility.yul\":4389:4407   */\n      add\n        /* \"#utility.yul\":4380:4386   */\n      dup7\n        /* \"#utility.yul\":4336:4408   */\n      tag_120\n      jump\t// in\n    tag_193:\n        /* \"#utility.yul\":4418:4490   */\n      tag_194\n        /* \"#utility.yul\":4486:4488   */\n      0x40\n        /* \"#utility.yul\":4475:4484   */\n      dup4\n        /* \"#utility.yul\":4471:4489   */\n      add\n        /* \"#utility.yul\":4462:4468   */\n      dup6\n        /* \"#utility.yul\":4418:4490   */\n      tag_120\n      jump\t// in\n    tag_194:\n        /* \"#utility.yul\":4500:4572   */\n      tag_195\n        /* \"#utility.yul\":4568:4570   */\n      0x60\n        /* \"#utility.yul\":4557:4566   */\n      dup4\n        /* \"#utility.yul\":4553:4571   */\n      add\n        /* \"#utility.yul\":4544:4550   */\n      dup5\n        /* \"#utility.yul\":4500:4572   */\n      tag_120\n      jump\t// in\n    tag_195:\n        /* \"#utility.yul\":4026:4579   */\n      swap6\n      swap5\n      pop\n      pop\n      pop\n      pop\n      pop\n      jump\t// out\n        /* \"#utility.yul\":4585:4732   */\n    tag_133:\n        /* \"#utility.yul\":4686:4697   */\n      0x00\n        /* \"#utility.yul\":4723:4726   */\n      dup2\n        /* \"#utility.yul\":4708:4726   */\n      swap1\n      pop\n        /* \"#utility.yul\":4585:4732   */\n      swap3\n      swap2\n      pop\n      pop\n      jump\t// out\n        /* \"#utility.yul\":4738:4852   */\n    tag_134:\n      pop\n      jump\t// out\n        /* \"#utility.yul\":4858:5256   */\n    tag_135:\n        /* \"#utility.yul\":5017:5020   */\n      0x00\n        /* \"#utility.yul\":5038:5121   */\n      tag_199\n        /* \"#utility.yul\":5119:5120   */\n      0x00\n        /* \"#utility.yul\":5114:5117   */\n      dup4\n        /* \"#utility.yul\":5038:5121   */\n      tag_133\n      jump\t// in\n    tag_199:\n        /* \"#utility.yul\":5031:5121   */\n      swap2\n      pop\n        /* \"#utility.yul\":5130:5223   */\n      tag_200\n        /* \"#utility.yul\":5219:5222   */\n      dup3\n        /* \"#utility.yul\":5130:5223   */\n      tag_134\n      jump\t// in\n    tag_200:\n        /* \"#utility.yul\":5248:5249   */\n      0x00\n        /* \"#utility.yul\":5243:5246   */\n      dup3\n        /* \"#utility.yul\":5239:5250   */\n      add\n        /* \"#utility.yul\":5232:5250   */\n      swap1\n      pop\n        /* \"#utility.yul\":4858:5256   */\n      swap2\n      swap1\n      pop\n      jump\t// out\n        /* \"#utility.yul\":5262:5641   */\n    tag_93:\n        /* \"#utility.yul\":5446:5449   */\n      0x00\n        /* \"#utility.yul\":5468:5615   */\n      tag_202\n        /* \"#utility.yul\":5611:5614   */\n      dup3\n        /* \"#utility.yul\":5468:5615   */\n      tag_135\n      jump\t// in\n    tag_202:\n        /* \"#utility.yul\":5461:5615   */\n      swap2\n      pop\n        /* \"#utility.yul\":5632:5635   */\n      dup2\n        /* \"#utility.yul\":5625:5635   */\n      swap1\n      pop\n        /* \"#utility.yul\":5262:5641   */\n      swap2\n      swap1\n      pop\n      jump\t// out\n\n    auxdata: 0xa2646970667358221220d27b7cc7558c65b37f4704738697120a61c002450e98dbbdebc45ccca74ebfeb64736f6c634300081e0033\n}\n",
				"bytecode": {
					"linkReferences": {},
					"object": "60c060405234801561000f575f5ffd5b5060405161129c38038061129c83398181016040528101906100319190610146565b5f8211610073576040517f08c379a000000000000000000000000000000000000000000000000000000000815260040161006a90610204565b60405180910390fd5b5f81116100b5576040517f08c379a00000000000000000000000000000000000000000000000000000000081526004016100ac9061026c565b60405180910390fd5b808211156100f8576040517f08c379a00000000000000000000000000000000000000000000000000000000081526004016100ef906102fa565b60405180910390fd5b81608081815250508060a081815250505050610318565b5f5ffd5b5f819050919050565b61012581610113565b811461012f575f5ffd5b50565b5f815190506101408161011c565b92915050565b5f5f6040838503121561015c5761015b61010f565b5b5f61016985828601610132565b925050602061017a85828601610132565b9150509250929050565b5f82825260208201905092915050565b7f5769746864726177616c206c696d6974206d75737420626520677265617465725f8201527f207468616e203000000000000000000000000000000000000000000000000000602082015250565b5f6101ee602783610184565b91506101f982610194565b604082019050919050565b5f6020820190508181035f83015261021b816101e2565b9050919050565b7f42616e6b20636170206d7573742062652067726561746572207468616e2030005f82015250565b5f610256601f83610184565b915061026182610222565b602082019050919050565b5f6020820190508181035f8301526102838161024a565b9050919050565b7f5769746864726177616c206c696d69742063616e6e6f742065786365656420625f8201527f616e6b2063617000000000000000000000000000000000000000000000000000602082015250565b5f6102e4602783610184565b91506102ef8261028a565b604082019050919050565b5f6020820190508181035f830152610311816102d8565b9050919050565b60805160a051610f2b6103715f395f8181610137015281816108ed015281816109b20152610b3801525f8181610594015281816105bd0152818161086d015281816108a001528181610bb10152610bd90152610f2b5ff3fe60806040526004361061009f575f3560e01c80637ddfe78d116100635780637ddfe78d146103a1578063a622ee7c146103cb578063c6e8e38c14610407578063d0e30db014610434578063ecbea24d1461043e578063f19451d814610468576102b9565b80631977e938146102bd5780632e1a7d4d146102e7578063604646271461030f5780636386c1c7146103395780637d88209714610377576102b9565b366102b9575f34036100dd576040517f1f2a200500000000000000000000000000000000000000000000000000000000815260040160405180910390fd5b66038d7ea4c68000341015610132573466038d7ea4c680006040517f4a77f2fa000000000000000000000000000000000000000000000000000000008152600401610129929190610c2a565b60405180910390fd5b5f5f547f00000000000000000000000000000000000000000000000000000000000000006101609190610c7e565b9050803411156101a95734816040517f31728a050000000000000000000000000000000000000000000000000000000081526004016101a0929190610c2a565b60405180910390fd5b3460035f3373ffffffffffffffffffffffffffffffffffffffff1673ffffffffffffffffffffffffffffffffffffffff1681526020019081526020015f205f8282546101f59190610cb1565b92505081905550345f5f82825461020c9190610cb1565b9250508190555060015f81548092919061022590610ce4565b91905055503373ffffffffffffffffffffffffffffffffffffffff167f90890809c654f11d6e72a28fa60149770a0d11ec6c92319d6ceb2bb0a4ea1a153460035f3373ffffffffffffffffffffffffffffffffffffffff1673ffffffffffffffffffffffffffffffffffffffff1681526020019081526020015f20546040516102af929190610c2a565b60405180910390a2005b5f5ffd5b3480156102c8575f5ffd5b506102d1610492565b6040516102de9190610d2b565b60405180910390f35b3480156102f2575f5ffd5b5061030d60048036038101906103089190610d72565b610497565b005b34801561031a575f5ffd5b50610323610817565b6040516103309190610d2b565b60405180910390f35b348015610344575f5ffd5b5061035f600480360381019061035a9190610df7565b61081d565b60405161036e93929190610e3c565b60405180910390f35b348015610382575f5ffd5b5061038b610898565b6040516103989190610d2b565b60405180910390f35b3480156103ac575f5ffd5b506103b561089e565b6040516103c29190610d2b565b60405180910390f35b3480156103d6575f5ffd5b506103f160048036038101906103ec9190610df7565b6108c2565b6040516103fe9190610d2b565b60405180910390f35b348015610412575f5ffd5b5061041b6108d7565b60405161042b9493929190610e71565b60405180910390f35b61043c61091e565b005b348015610449575f5ffd5b50610452610b36565b60405161045f9190610d2b565b60405180910390f35b348015610473575f5ffd5b5061047c610b5a565b6040516104899190610d2b565b60405180910390f35b5f5481565b805f81036104d1576040517f1f2a200500000000000000000000000000000000000000000000000000000000815260040160405180910390fd5b60035f3373ffffffffffffffffffffffffffffffffffffffff1673ffffffffffffffffffffffffffffffffffffffff1681526020019081526020015f2054821115610592578160035f3373ffffffffffffffffffffffffffffffffffffffff1673ffffffffffffffffffffffffffffffffffffffff1681526020019081526020015f20546040517fcf479181000000000000000000000000000000000000000000000000000000008152600401610589929190610c2a565b60405180910390fd5b7f000000000000000000000000000000000000000000000000000000000000000082111561061957817f00000000000000000000000000000000000000000000000000000000000000006040517fb945e2d8000000000000000000000000000000000000000000000000000000008152600401610610929190610c2a565b60405180910390fd5b478211156106605781476040517f26af0c24000000000000000000000000000000000000000000000000000000008152600401610657929190610c2a565b60405180910390fd5b8160035f3373ffffffffffffffffffffffffffffffffffffffff1673ffffffffffffffffffffffffffffffffffffffff1681526020019081526020015f205f8282546106ac9190610c7e565b92505081905550815f5f8282546106c39190610c7e565b9250508190555060025f8154809291906106dc90610ce4565b91905055505f60035f3373ffffffffffffffffffffffffffffffffffffffff1673ffffffffffffffffffffffffffffffffffffffff1681526020019081526020015f205490505f3373ffffffffffffffffffffffffffffffffffffffff168460405161074790610ee1565b5f6040518083038185875af1925050503d805f8114610781576040519150601f19603f3d011682016040523d82523d5f602084013e610786565b606091505b50509050806107c1576040517f90b8ec1800000000000000000000000000000000000000000000000000000000815260040160405180910390fd5b3373ffffffffffffffffffffffffffffffffffffffff167fdf273cb619d95419a9cd0ec88123a0538c85064229baa6363788f743fff90deb8584604051610809929190610c2a565b60405180910390a250505050565b60025481565b5f5f5f60035f8573ffffffffffffffffffffffffffffffffffffffff1673ffffffffffffffffffffffffffffffffffffffff1681526020019081526020015f2054925061086984610b65565b91507f000000000000000000000000000000000000000000000000000000000000000083111590509193909250565b60015481565b7f000000000000000000000000000000000000000000000000000000000000000081565b6003602052805f5260405f205f915090505481565b5f5f5f5f5f549350600154925060025491505f547f00000000000000000000000000000000000000000000000000000000000000006109169190610c7e565b905090919293565b345f8103610958576040517f1f2a200500000000000000000000000000000000000000000000000000000000815260040160405180910390fd5b66038d7ea4c680003410156109ad573466038d7ea4c680006040517f4a77f2fa0000000000000000000000000000000000000000000000000000000081526004016109a4929190610c2a565b60405180910390fd5b5f5f547f00000000000000000000000000000000000000000000000000000000000000006109db9190610c7e565b905080341115610a245734816040517f31728a05000000000000000000000000000000000000000000000000000000008152600401610a1b929190610c2a565b60405180910390fd5b3460035f3373ffffffffffffffffffffffffffffffffffffffff1673ffffffffffffffffffffffffffffffffffffffff1681526020019081526020015f205f828254610a709190610cb1565b92505081905550345f5f828254610a879190610cb1565b9250508190555060015f815480929190610aa090610ce4565b91905055503373ffffffffffffffffffffffffffffffffffffffff167f90890809c654f11d6e72a28fa60149770a0d11ec6c92319d6ceb2bb0a4ea1a153460035f3373ffffffffffffffffffffffffffffffffffffffff1673ffffffffffffffffffffffffffffffffffffffff1681526020019081526020015f2054604051610b2a929190610c2a565b60405180910390a25050565b7f000000000000000000000000000000000000000000000000000000000000000081565b66038d7ea4c6800081565b5f5f60035f8473ffffffffffffffffffffffffffffffffffffffff1673ffffffffffffffffffffffffffffffffffffffff1681526020019081526020015f205490505f4790505f8290507f0000000000000000000000000000000000000000000000000000000000000000811115610bfb577f000000000000000000000000000000000000000000000000000000000000000090505b81811115610c07578190505b809350505050919050565b5f819050919050565b610c2481610c12565b82525050565b5f604082019050610c3d5f830185610c1b565b610c4a6020830184610c1b565b9392505050565b7f4e487b71000000000000000000000000000000000000000000000000000000005f52601160045260245ffd5b5f610c8882610c12565b9150610c9383610c12565b9250828203905081811115610cab57610caa610c51565b5b92915050565b5f610cbb82610c12565b9150610cc683610c12565b9250828201905080821115610cde57610cdd610c51565b5b92915050565b5f610cee82610c12565b91507fffffffffffffffffffffffffffffffffffffffffffffffffffffffffffffffff8203610d2057610d1f610c51565b5b600182019050919050565b5f602082019050610d3e5f830184610c1b565b92915050565b5f5ffd5b610d5181610c12565b8114610d5b575f5ffd5b50565b5f81359050610d6c81610d48565b92915050565b5f60208284031215610d8757610d86610d44565b5b5f610d9484828501610d5e565b91505092915050565b5f73ffffffffffffffffffffffffffffffffffffffff82169050919050565b5f610dc682610d9d565b9050919050565b610dd681610dbc565b8114610de0575f5ffd5b50565b5f81359050610df181610dcd565b92915050565b5f60208284031215610e0c57610e0b610d44565b5b5f610e1984828501610de3565b91505092915050565b5f8115159050919050565b610e3681610e22565b82525050565b5f606082019050610e4f5f830186610c1b565b610e5c6020830185610c1b565b610e696040830184610e2d565b949350505050565b5f608082019050610e845f830187610c1b565b610e916020830186610c1b565b610e9e6040830185610c1b565b610eab6060830184610c1b565b95945050505050565b5f81905092915050565b50565b5f610ecc5f83610eb4565b9150610ed782610ebe565b5f82019050919050565b5f610eeb82610ec1565b915081905091905056fea2646970667358221220d27b7cc7558c65b37f4704738697120a61c002450e98dbbdebc45ccca74ebfeb64736f6c634300081e0033",
					"opcodes": "PUSH1 0xC0 PUSH1 0x40 MSTORE CALLVALUE DUP1 ISZERO PUSH2 0xF JUMPI PUSH0 PUSH0 REVERT JUMPDEST POP PUSH1 0x40 MLOAD PUSH2 0x129C CODESIZE SUB DUP1 PUSH2 0x129C DUP4 CODECOPY DUP2 DUP2 ADD PUSH1 0x40 MSTORE DUP2 ADD SWAP1 PUSH2 0x31 SWAP2 SWAP1 PUSH2 0x146 JUMP JUMPDEST PUSH0 DUP3 GT PUSH2 0x73 JUMPI PUSH1 0x40 MLOAD PUSH32 0x8C379A000000000000000000000000000000000000000000000000000000000 DUP2 MSTORE PUSH1 0x4 ADD PUSH2 0x6A SWAP1 PUSH2 0x204 JUMP JUMPDEST PUSH1 0x40 MLOAD DUP1 SWAP2 SUB SWAP1 REVERT JUMPDEST PUSH0 DUP2 GT PUSH2 0xB5 JUMPI PUSH1 0x40 MLOAD PUSH32 0x8C379A000000000000000000000000000000000000000000000000000000000 DUP2 MSTORE PUSH1 0x4 ADD PUSH2 0xAC SWAP1 PUSH2 0x26C JUMP JUMPDEST PUSH1 0x40 MLOAD DUP1 SWAP2 SUB SWAP1 REVERT JUMPDEST DUP1 DUP3 GT ISZERO PUSH2 0xF8 JUMPI PUSH1 0x40 MLOAD PUSH32 0x8C379A000000000000000000000000000000000000000000000000000000000 DUP2 MSTORE PUSH1 0x4 ADD PUSH2 0xEF SWAP1 PUSH2 0x2FA JUMP JUMPDEST PUSH1 0x40 MLOAD DUP1 SWAP2 SUB SWAP1 REVERT JUMPDEST DUP2 PUSH1 0x80 DUP2 DUP2 MSTORE POP POP DUP1 PUSH1 0xA0 DUP2 DUP2 MSTORE POP POP POP POP PUSH2 0x318 JUMP JUMPDEST PUSH0 PUSH0 REVERT JUMPDEST PUSH0 DUP2 SWAP1 POP SWAP2 SWAP1 POP JUMP JUMPDEST PUSH2 0x125 DUP2 PUSH2 0x113 JUMP JUMPDEST DUP2 EQ PUSH2 0x12F JUMPI PUSH0 PUSH0 REVERT JUMPDEST POP JUMP JUMPDEST PUSH0 DUP2 MLOAD SWAP1 POP PUSH2 0x140 DUP2 PUSH2 0x11C JUMP JUMPDEST SWAP3 SWAP2 POP POP JUMP JUMPDEST PUSH0 PUSH0 PUSH1 0x40 DUP4 DUP6 SUB SLT ISZERO PUSH2 0x15C JUMPI PUSH2 0x15B PUSH2 0x10F JUMP JUMPDEST JUMPDEST PUSH0 PUSH2 0x169 DUP6 DUP3 DUP7 ADD PUSH2 0x132 JUMP JUMPDEST SWAP3 POP POP PUSH1 0x20 PUSH2 0x17A DUP6 DUP3 DUP7 ADD PUSH2 0x132 JUMP JUMPDEST SWAP2 POP POP SWAP3 POP SWAP3 SWAP1 POP JUMP JUMPDEST PUSH0 DUP3 DUP3 MSTORE PUSH1 0x20 DUP3 ADD SWAP1 POP SWAP3 SWAP2 POP POP JUMP JUMPDEST PUSH32 0x5769746864726177616C206C696D6974206D7573742062652067726561746572 PUSH0 DUP3 ADD MSTORE PUSH32 0x207468616E203000000000000000000000000000000000000000000000000000 PUSH1 0x20 DUP3 ADD MSTORE POP JUMP JUMPDEST PUSH0 PUSH2 0x1EE PUSH1 0x27 DUP4 PUSH2 0x184 JUMP JUMPDEST SWAP2 POP PUSH2 0x1F9 DUP3 PUSH2 0x194 JUMP JUMPDEST PUSH1 0x40 DUP3 ADD SWAP1 POP SWAP2 SWAP1 POP JUMP JUMPDEST PUSH0 PUSH1 0x20 DUP3 ADD SWAP1 POP DUP2 DUP2 SUB PUSH0 DUP4 ADD MSTORE PUSH2 0x21B DUP2 PUSH2 0x1E2 JUMP JUMPDEST SWAP1 POP SWAP2 SWAP1 POP JUMP JUMPDEST PUSH32 0x42616E6B20636170206D7573742062652067726561746572207468616E203000 PUSH0 DUP3 ADD MSTORE POP JUMP JUMPDEST PUSH0 PUSH2 0x256 PUSH1 0x1F DUP4 PUSH2 0x184 JUMP JUMPDEST SWAP2 POP PUSH2 0x261 DUP3 PUSH2 0x222 JUMP JUMPDEST PUSH1 0x20 DUP3 ADD SWAP1 POP SWAP2 SWAP1 POP JUMP JUMPDEST PUSH0 PUSH1 0x20 DUP3 ADD SWAP1 POP DUP2 DUP2 SUB PUSH0 DUP4 ADD MSTORE PUSH2 0x283 DUP2 PUSH2 0x24A JUMP JUMPDEST SWAP1 POP SWAP2 SWAP1 POP JUMP JUMPDEST PUSH32 0x5769746864726177616C206C696D69742063616E6E6F74206578636565642062 PUSH0 DUP3 ADD MSTORE PUSH32 0x616E6B2063617000000000000000000000000000000000000000000000000000 PUSH1 0x20 DUP3 ADD MSTORE POP JUMP JUMPDEST PUSH0 PUSH2 0x2E4 PUSH1 0x27 DUP4 PUSH2 0x184 JUMP JUMPDEST SWAP2 POP PUSH2 0x2EF DUP3 PUSH2 0x28A JUMP JUMPDEST PUSH1 0x40 DUP3 ADD SWAP1 POP SWAP2 SWAP1 POP JUMP JUMPDEST PUSH0 PUSH1 0x20 DUP3 ADD SWAP1 POP DUP2 DUP2 SUB PUSH0 DUP4 ADD MSTORE PUSH2 0x311 DUP2 PUSH2 0x2D8 JUMP JUMPDEST SWAP1 POP SWAP2 SWAP1 POP JUMP JUMPDEST PUSH1 0x80 MLOAD PUSH1 0xA0 MLOAD PUSH2 0xF2B PUSH2 0x371 PUSH0 CODECOPY PUSH0 DUP2 DUP2 PUSH2 0x137 ADD MSTORE DUP2 DUP2 PUSH2 0x8ED ADD MSTORE DUP2 DUP2 PUSH2 0x9B2 ADD MSTORE PUSH2 0xB38 ADD MSTORE PUSH0 DUP2 DUP2 PUSH2 0x594 ADD MSTORE DUP2 DUP2 PUSH2 0x5BD ADD MSTORE DUP2 DUP2 PUSH2 0x86D ADD MSTORE DUP2 DUP2 PUSH2 0x8A0 ADD MSTORE DUP2 DUP2 PUSH2 0xBB1 ADD MSTORE PUSH2 0xBD9 ADD MSTORE PUSH2 0xF2B PUSH0 RETURN INVALID PUSH1 0x80 PUSH1 0x40 MSTORE PUSH1 0x4 CALLDATASIZE LT PUSH2 0x9F JUMPI PUSH0 CALLDATALOAD PUSH1 0xE0 SHR DUP1 PUSH4 0x7DDFE78D GT PUSH2 0x63 JUMPI DUP1 PUSH4 0x7DDFE78D EQ PUSH2 0x3A1 JUMPI DUP1 PUSH4 0xA622EE7C EQ PUSH2 0x3CB JUMPI DUP1 PUSH4 0xC6E8E38C EQ PUSH2 0x407 JUMPI DUP1 PUSH4 0xD0E30DB0 EQ PUSH2 0x434 JUMPI DUP1 PUSH4 0xECBEA24D EQ PUSH2 0x43E JUMPI DUP1 PUSH4 0xF19451D8 EQ PUSH2 0x468 JUMPI PUSH2 0x2B9 JUMP JUMPDEST DUP1 PUSH4 0x1977E938 EQ PUSH2 0x2BD JUMPI DUP1 PUSH4 0x2E1A7D4D EQ PUSH2 0x2E7 JUMPI DUP1 PUSH4 0x60464627 EQ PUSH2 0x30F JUMPI DUP1 PUSH4 0x6386C1C7 EQ PUSH2 0x339 JUMPI DUP1 PUSH4 0x7D882097 EQ PUSH2 0x377 JUMPI PUSH2 0x2B9 JUMP JUMPDEST CALLDATASIZE PUSH2 0x2B9 JUMPI PUSH0 CALLVALUE SUB PUSH2 0xDD JUMPI PUSH1 0x40 MLOAD PUSH32 0x1F2A200500000000000000000000000000000000000000000000000000000000 DUP2 MSTORE PUSH1 0x4 ADD PUSH1 0x40 MLOAD DUP1 SWAP2 SUB SWAP1 REVERT JUMPDEST PUSH7 0x38D7EA4C68000 CALLVALUE LT ISZERO PUSH2 0x132 JUMPI CALLVALUE PUSH7 0x38D7EA4C68000 PUSH1 0x40 MLOAD PUSH32 0x4A77F2FA00000000000000000000000000000000000000000000000000000000 DUP2 MSTORE PUSH1 0x4 ADD PUSH2 0x129 SWAP3 SWAP2 SWAP1 PUSH2 0xC2A JUMP JUMPDEST PUSH1 0x40 MLOAD DUP1 SWAP2 SUB SWAP1 REVERT JUMPDEST PUSH0 PUSH0 SLOAD PUSH32 0x0 PUSH2 0x160 SWAP2 SWAP1 PUSH2 0xC7E JUMP JUMPDEST SWAP1 POP DUP1 CALLVALUE GT ISZERO PUSH2 0x1A9 JUMPI CALLVALUE DUP2 PUSH1 0x40 MLOAD PUSH32 0x31728A0500000000000000000000000000000000000000000000000000000000 DUP2 MSTORE PUSH1 0x4 ADD PUSH2 0x1A0 SWAP3 SWAP2 SWAP1 PUSH2 0xC2A JUMP JUMPDEST PUSH1 0x40 MLOAD DUP1 SWAP2 SUB SWAP1 REVERT JUMPDEST CALLVALUE PUSH1 0x3 PUSH0 CALLER PUSH20 0xFFFFFFFFFFFFFFFFFFFFFFFFFFFFFFFFFFFFFFFF AND PUSH20 0xFFFFFFFFFFFFFFFFFFFFFFFFFFFFFFFFFFFFFFFF AND DUP2 MSTORE PUSH1 0x20 ADD SWAP1 DUP2 MSTORE PUSH1 0x20 ADD PUSH0 KECCAK256 PUSH0 DUP3 DUP3 SLOAD PUSH2 0x1F5 SWAP2 SWAP1 PUSH2 0xCB1 JUMP JUMPDEST SWAP3 POP POP DUP2 SWAP1 SSTORE POP CALLVALUE PUSH0 PUSH0 DUP3 DUP3 SLOAD PUSH2 0x20C SWAP2 SWAP1 PUSH2 0xCB1 JUMP JUMPDEST SWAP3 POP POP DUP2 SWAP1 SSTORE POP PUSH1 0x1 PUSH0 DUP2 SLOAD DUP1 SWAP3 SWAP2 SWAP1 PUSH2 0x225 SWAP1 PUSH2 0xCE4 JUMP JUMPDEST SWAP2 SWAP1 POP SSTORE POP CALLER PUSH20 0xFFFFFFFFFFFFFFFFFFFFFFFFFFFFFFFFFFFFFFFF AND PUSH32 0x90890809C654F11D6E72A28FA60149770A0D11EC6C92319D6CEB2BB0A4EA1A15 CALLVALUE PUSH1 0x3 PUSH0 CALLER PUSH20 0xFFFFFFFFFFFFFFFFFFFFFFFFFFFFFFFFFFFFFFFF AND PUSH20 0xFFFFFFFFFFFFFFFFFFFFFFFFFFFFFFFFFFFFFFFF AND DUP2 MSTORE PUSH1 0x20 ADD SWAP1 DUP2 MSTORE PUSH1 0x20 ADD PUSH0 KECCAK256 SLOAD PUSH1 0x40 MLOAD PUSH2 0x2AF SWAP3 SWAP2 SWAP1 PUSH2 0xC2A JUMP JUMPDEST PUSH1 0x40 MLOAD DUP1 SWAP2 SUB SWAP1 LOG2 STOP JUMPDEST PUSH0 PUSH0 REVERT JUMPDEST CALLVALUE DUP1 ISZERO PUSH2 0x2C8 JUMPI PUSH0 PUSH0 REVERT JUMPDEST POP PUSH2 0x2D1 PUSH2 0x492 JUMP JUMPDEST PUSH1 0x40 MLOAD PUSH2 0x2DE SWAP2 SWAP1 PUSH2 0xD2B JUMP JUMPDEST PUSH1 0x40 MLOAD DUP1 SWAP2 SUB SWAP1 RETURN JUMPDEST CALLVALUE DUP1 ISZERO PUSH2 0x2F2 JUMPI PUSH0 PUSH0 REVERT JUMPDEST POP PUSH2 0x30D PUSH1 0x4 DUP1 CALLDATASIZE SUB DUP2 ADD SWAP1 PUSH2 0x308 SWAP2 SWAP1 PUSH2 0xD72 JUMP JUMPDEST PUSH2 0x497 JUMP JUMPDEST STOP JUMPDEST CALLVALUE DUP1 ISZERO PUSH2 0x31A JUMPI PUSH0 PUSH0 REVERT JUMPDEST POP PUSH2 0x323 PUSH2 0x817 JUMP JUMPDEST PUSH1 0x40 MLOAD PUSH2 0x330 SWAP2 SWAP1 PUSH2 0xD2B JUMP JUMPDEST PUSH1 0x40 MLOAD DUP1 SWAP2 SUB SWAP1 RETURN JUMPDEST CALLVALUE DUP1 ISZERO PUSH2 0x344 JUMPI PUSH0 PUSH0 REVERT JUMPDEST POP PUSH2 0x35F PUSH1 0x4 DUP1 CALLDATASIZE SUB DUP2 ADD SWAP1 PUSH2 0x35A SWAP2 SWAP1 PUSH2 0xDF7 JUMP JUMPDEST PUSH2 0x81D JUMP JUMPDEST PUSH1 0x40 MLOAD PUSH2 0x36E SWAP4 SWAP3 SWAP2 SWAP1 PUSH2 0xE3C JUMP JUMPDEST PUSH1 0x40 MLOAD DUP1 SWAP2 SUB SWAP1 RETURN JUMPDEST CALLVALUE DUP1 ISZERO PUSH2 0x382 JUMPI PUSH0 PUSH0 REVERT JUMPDEST POP PUSH2 0x38B PUSH2 0x898 JUMP JUMPDEST PUSH1 0x40 MLOAD PUSH2 0x398 SWAP2 SWAP1 PUSH2 0xD2B JUMP JUMPDEST PUSH1 0x40 MLOAD DUP1 SWAP2 SUB SWAP1 RETURN JUMPDEST CALLVALUE DUP1 ISZERO PUSH2 0x3AC JUMPI PUSH0 PUSH0 REVERT JUMPDEST POP PUSH2 0x3B5 PUSH2 0x89E JUMP JUMPDEST PUSH1 0x40 MLOAD PUSH2 0x3C2 SWAP2 SWAP1 PUSH2 0xD2B JUMP JUMPDEST PUSH1 0x40 MLOAD DUP1 SWAP2 SUB SWAP1 RETURN JUMPDEST CALLVALUE DUP1 ISZERO PUSH2 0x3D6 JUMPI PUSH0 PUSH0 REVERT JUMPDEST POP PUSH2 0x3F1 PUSH1 0x4 DUP1 CALLDATASIZE SUB DUP2 ADD SWAP1 PUSH2 0x3EC SWAP2 SWAP1 PUSH2 0xDF7 JUMP JUMPDEST PUSH2 0x8C2 JUMP JUMPDEST PUSH1 0x40 MLOAD PUSH2 0x3FE SWAP2 SWAP1 PUSH2 0xD2B JUMP JUMPDEST PUSH1 0x40 MLOAD DUP1 SWAP2 SUB SWAP1 RETURN JUMPDEST CALLVALUE DUP1 ISZERO PUSH2 0x412 JUMPI PUSH0 PUSH0 REVERT JUMPDEST POP PUSH2 0x41B PUSH2 0x8D7 JUMP JUMPDEST PUSH1 0x40 MLOAD PUSH2 0x42B SWAP5 SWAP4 SWAP3 SWAP2 SWAP1 PUSH2 0xE71 JUMP JUMPDEST PUSH1 0x40 MLOAD DUP1 SWAP2 SUB SWAP1 RETURN JUMPDEST PUSH2 0x43C PUSH2 0x91E JUMP JUMPDEST STOP JUMPDEST CALLVALUE DUP1 ISZERO PUSH2 0x449 JUMPI PUSH0 PUSH0 REVERT JUMPDEST POP PUSH2 0x452 PUSH2 0xB36 JUMP JUMPDEST PUSH1 0x40 MLOAD PUSH2 0x45F SWAP2 SWAP1 PUSH2 0xD2B JUMP JUMPDEST PUSH1 0x40 MLOAD DUP1 SWAP2 SUB SWAP1 RETURN JUMPDEST CALLVALUE DUP1 ISZERO PUSH2 0x473 JUMPI PUSH0 PUSH0 REVERT JUMPDEST POP PUSH2 0x47C PUSH2 0xB5A JUMP JUMPDEST PUSH1 0x40 MLOAD PUSH2 0x489 SWAP2 SWAP1 PUSH2 0xD2B JUMP JUMPDEST PUSH1 0x40 MLOAD DUP1 SWAP2 SUB SWAP1 RETURN JUMPDEST PUSH0 SLOAD DUP2 JUMP JUMPDEST DUP1 PUSH0 DUP2 SUB PUSH2 0x4D1 JUMPI PUSH1 0x40 MLOAD PUSH32 0x1F2A200500000000000000000000000000000000000000000000000000000000 DUP2 MSTORE PUSH1 0x4 ADD PUSH1 0x40 MLOAD DUP1 SWAP2 SUB SWAP1 REVERT JUMPDEST PUSH1 0x3 PUSH0 CALLER PUSH20 0xFFFFFFFFFFFFFFFFFFFFFFFFFFFFFFFFFFFFFFFF AND PUSH20 0xFFFFFFFFFFFFFFFFFFFFFFFFFFFFFFFFFFFFFFFF AND DUP2 MSTORE PUSH1 0x20 ADD SWAP1 DUP2 MSTORE PUSH1 0x20 ADD PUSH0 KECCAK256 SLOAD DUP3 GT ISZERO PUSH2 0x592 JUMPI DUP2 PUSH1 0x3 PUSH0 CALLER PUSH20 0xFFFFFFFFFFFFFFFFFFFFFFFFFFFFFFFFFFFFFFFF AND PUSH20 0xFFFFFFFFFFFFFFFFFFFFFFFFFFFFFFFFFFFFFFFF AND DUP2 MSTORE PUSH1 0x20 ADD SWAP1 DUP2 MSTORE PUSH1 0x20 ADD PUSH0 KECCAK256 SLOAD PUSH1 0x40 MLOAD PUSH32 0xCF47918100000000000000000000000000000000000000000000000000000000 DUP2 MSTORE PUSH1 0x4 ADD PUSH2 0x589 SWAP3 SWAP2 SWAP1 PUSH2 0xC2A JUMP JUMPDEST PUSH1 0x40 MLOAD DUP1 SWAP2 SUB SWAP1 REVERT JUMPDEST PUSH32 0x0 DUP3 GT ISZERO PUSH2 0x619 JUMPI DUP2 PUSH32 0x0 PUSH1 0x40 MLOAD PUSH32 0xB945E2D800000000000000000000000000000000000000000000000000000000 DUP2 MSTORE PUSH1 0x4 ADD PUSH2 0x610 SWAP3 SWAP2 SWAP1 PUSH2 0xC2A JUMP JUMPDEST PUSH1 0x40 MLOAD DUP1 SWAP2 SUB SWAP1 REVERT JUMPDEST SELFBALANCE DUP3 GT ISZERO PUSH2 0x660 JUMPI DUP2 SELFBALANCE PUSH1 0x40 MLOAD PUSH32 0x26AF0C2400000000000000000000000000000000000000000000000000000000 DUP2 MSTORE PUSH1 0x4 ADD PUSH2 0x657 SWAP3 SWAP2 SWAP1 PUSH2 0xC2A JUMP JUMPDEST PUSH1 0x40 MLOAD DUP1 SWAP2 SUB SWAP1 REVERT JUMPDEST DUP2 PUSH1 0x3 PUSH0 CALLER PUSH20 0xFFFFFFFFFFFFFFFFFFFFFFFFFFFFFFFFFFFFFFFF AND PUSH20 0xFFFFFFFFFFFFFFFFFFFFFFFFFFFFFFFFFFFFFFFF AND DUP2 MSTORE PUSH1 0x20 ADD SWAP1 DUP2 MSTORE PUSH1 0x20 ADD PUSH0 KECCAK256 PUSH0 DUP3 DUP3 SLOAD PUSH2 0x6AC SWAP2 SWAP1 PUSH2 0xC7E JUMP JUMPDEST SWAP3 POP POP DUP2 SWAP1 SSTORE POP DUP2 PUSH0 PUSH0 DUP3 DUP3 SLOAD PUSH2 0x6C3 SWAP2 SWAP1 PUSH2 0xC7E JUMP JUMPDEST SWAP3 POP POP DUP2 SWAP1 SSTORE POP PUSH1 0x2 PUSH0 DUP2 SLOAD DUP1 SWAP3 SWAP2 SWAP1 PUSH2 0x6DC SWAP1 PUSH2 0xCE4 JUMP JUMPDEST SWAP2 SWAP1 POP SSTORE POP PUSH0 PUSH1 0x3 PUSH0 CALLER PUSH20 0xFFFFFFFFFFFFFFFFFFFFFFFFFFFFFFFFFFFFFFFF AND PUSH20 0xFFFFFFFFFFFFFFFFFFFFFFFFFFFFFFFFFFFFFFFF AND DUP2 MSTORE PUSH1 0x20 ADD SWAP1 DUP2 MSTORE PUSH1 0x20 ADD PUSH0 KECCAK256 SLOAD SWAP1 POP PUSH0 CALLER PUSH20 0xFFFFFFFFFFFFFFFFFFFFFFFFFFFFFFFFFFFFFFFF AND DUP5 PUSH1 0x40 MLOAD PUSH2 0x747 SWAP1 PUSH2 0xEE1 JUMP JUMPDEST PUSH0 PUSH1 0x40 MLOAD DUP1 DUP4 SUB DUP2 DUP6 DUP8 GAS CALL SWAP3 POP POP POP RETURNDATASIZE DUP1 PUSH0 DUP2 EQ PUSH2 0x781 JUMPI PUSH1 0x40 MLOAD SWAP2 POP PUSH1 0x1F NOT PUSH1 0x3F RETURNDATASIZE ADD AND DUP3 ADD PUSH1 0x40 MSTORE RETURNDATASIZE DUP3 MSTORE RETURNDATASIZE PUSH0 PUSH1 0x20 DUP5 ADD RETURNDATACOPY PUSH2 0x786 JUMP JUMPDEST PUSH1 0x60 SWAP2 POP JUMPDEST POP POP SWAP1 POP DUP1 PUSH2 0x7C1 JUMPI PUSH1 0x40 MLOAD PUSH32 0x90B8EC1800000000000000000000000000000000000000000000000000000000 DUP2 MSTORE PUSH1 0x4 ADD PUSH1 0x40 MLOAD DUP1 SWAP2 SUB SWAP1 REVERT JUMPDEST CALLER PUSH20 0xFFFFFFFFFFFFFFFFFFFFFFFFFFFFFFFFFFFFFFFF AND PUSH32 0xDF273CB619D95419A9CD0EC88123A0538C85064229BAA6363788F743FFF90DEB DUP6 DUP5 PUSH1 0x40 MLOAD PUSH2 0x809 SWAP3 SWAP2 SWAP1 PUSH2 0xC2A JUMP JUMPDEST PUSH1 0x40 MLOAD DUP1 SWAP2 SUB SWAP1 LOG2 POP POP POP POP JUMP JUMPDEST PUSH1 0x2 SLOAD DUP2 JUMP JUMPDEST PUSH0 PUSH0 PUSH0 PUSH1 0x3 PUSH0 DUP6 PUSH20 0xFFFFFFFFFFFFFFFFFFFFFFFFFFFFFFFFFFFFFFFF AND PUSH20 0xFFFFFFFFFFFFFFFFFFFFFFFFFFFFFFFFFFFFFFFF AND DUP2 MSTORE PUSH1 0x20 ADD SWAP1 DUP2 MSTORE PUSH1 0x20 ADD PUSH0 KECCAK256 SLOAD SWAP3 POP PUSH2 0x869 DUP5 PUSH2 0xB65 JUMP JUMPDEST SWAP2 POP PUSH32 0x0 DUP4 GT ISZERO SWAP1 POP SWAP2 SWAP4 SWAP1 SWAP3 POP JUMP JUMPDEST PUSH1 0x1 SLOAD DUP2 JUMP JUMPDEST PUSH32 0x0 DUP2 JUMP JUMPDEST PUSH1 0x3 PUSH1 0x20 MSTORE DUP1 PUSH0 MSTORE PUSH1 0x40 PUSH0 KECCAK256 PUSH0 SWAP2 POP SWAP1 POP SLOAD DUP2 JUMP JUMPDEST PUSH0 PUSH0 PUSH0 PUSH0 PUSH0 SLOAD SWAP4 POP PUSH1 0x1 SLOAD SWAP3 POP PUSH1 0x2 SLOAD SWAP2 POP PUSH0 SLOAD PUSH32 0x0 PUSH2 0x916 SWAP2 SWAP1 PUSH2 0xC7E JUMP JUMPDEST SWAP1 POP SWAP1 SWAP2 SWAP3 SWAP4 JUMP JUMPDEST CALLVALUE PUSH0 DUP2 SUB PUSH2 0x958 JUMPI PUSH1 0x40 MLOAD PUSH32 0x1F2A200500000000000000000000000000000000000000000000000000000000 DUP2 MSTORE PUSH1 0x4 ADD PUSH1 0x40 MLOAD DUP1 SWAP2 SUB SWAP1 REVERT JUMPDEST PUSH7 0x38D7EA4C68000 CALLVALUE LT ISZERO PUSH2 0x9AD JUMPI CALLVALUE PUSH7 0x38D7EA4C68000 PUSH1 0x40 MLOAD PUSH32 0x4A77F2FA00000000000000000000000000000000000000000000000000000000 DUP2 MSTORE PUSH1 0x4 ADD PUSH2 0x9A4 SWAP3 SWAP2 SWAP1 PUSH2 0xC2A JUMP JUMPDEST PUSH1 0x40 MLOAD DUP1 SWAP2 SUB SWAP1 REVERT JUMPDEST PUSH0 PUSH0 SLOAD PUSH32 0x0 PUSH2 0x9DB SWAP2 SWAP1 PUSH2 0xC7E JUMP JUMPDEST SWAP1 POP DUP1 CALLVALUE GT ISZERO PUSH2 0xA24 JUMPI CALLVALUE DUP2 PUSH1 0x40 MLOAD PUSH32 0x31728A0500000000000000000000000000000000000000000000000000000000 DUP2 MSTORE PUSH1 0x4 ADD PUSH2 0xA1B SWAP3 SWAP2 SWAP1 PUSH2 0xC2A JUMP JUMPDEST PUSH1 0x40 MLOAD DUP1 SWAP2 SUB SWAP1 REVERT JUMPDEST CALLVALUE PUSH1 0x3 PUSH0 CALLER PUSH20 0xFFFFFFFFFFFFFFFFFFFFFFFFFFFFFFFFFFFFFFFF AND PUSH20 0xFFFFFFFFFFFFFFFFFFFFFFFFFFFFFFFFFFFFFFFF AND DUP2 MSTORE PUSH1 0x20 ADD SWAP1 DUP2 MSTORE PUSH1 0x20 ADD PUSH0 KECCAK256 PUSH0 DUP3 DUP3 SLOAD PUSH2 0xA70 SWAP2 SWAP1 PUSH2 0xCB1 JUMP JUMPDEST SWAP3 POP POP DUP2 SWAP1 SSTORE POP CALLVALUE PUSH0 PUSH0 DUP3 DUP3 SLOAD PUSH2 0xA87 SWAP2 SWAP1 PUSH2 0xCB1 JUMP JUMPDEST SWAP3 POP POP DUP2 SWAP1 SSTORE POP PUSH1 0x1 PUSH0 DUP2 SLOAD DUP1 SWAP3 SWAP2 SWAP1 PUSH2 0xAA0 SWAP1 PUSH2 0xCE4 JUMP JUMPDEST SWAP2 SWAP1 POP SSTORE POP CALLER PUSH20 0xFFFFFFFFFFFFFFFFFFFFFFFFFFFFFFFFFFFFFFFF AND PUSH32 0x90890809C654F11D6E72A28FA60149770A0D11EC6C92319D6CEB2BB0A4EA1A15 CALLVALUE PUSH1 0x3 PUSH0 CALLER PUSH20 0xFFFFFFFFFFFFFFFFFFFFFFFFFFFFFFFFFFFFFFFF AND PUSH20 0xFFFFFFFFFFFFFFFFFFFFFFFFFFFFFFFFFFFFFFFF AND DUP2 MSTORE PUSH1 0x20 ADD SWAP1 DUP2 MSTORE PUSH1 0x20 ADD PUSH0 KECCAK256 SLOAD PUSH1 0x40 MLOAD PUSH2 0xB2A SWAP3 SWAP2 SWAP1 PUSH2 0xC2A JUMP JUMPDEST PUSH1 0x40 MLOAD DUP1 SWAP2 SUB SWAP1 LOG2 POP POP JUMP JUMPDEST PUSH32 0x0 DUP2 JUMP JUMPDEST PUSH7 0x38D7EA4C68000 DUP2 JUMP JUMPDEST PUSH0 PUSH0 PUSH1 0x3 PUSH0 DUP5 PUSH20 0xFFFFFFFFFFFFFFFFFFFFFFFFFFFFFFFFFFFFFFFF AND PUSH20 0xFFFFFFFFFFFFFFFFFFFFFFFFFFFFFFFFFFFFFFFF AND DUP2 MSTORE PUSH1 0x20 ADD SWAP1 DUP2 MSTORE PUSH1 0x20 ADD PUSH0 KECCAK256 SLOAD SWAP1 POP PUSH0 SELFBALANCE SWAP1 POP PUSH0 DUP3 SWAP1 POP PUSH32 0x0 DUP2 GT ISZERO PUSH2 0xBFB JUMPI PUSH32 0x0 SWAP1 POP JUMPDEST DUP2 DUP2 GT ISZERO PUSH2 0xC07 JUMPI DUP2 SWAP1 POP JUMPDEST DUP1 SWAP4 POP POP POP POP SWAP2 SWAP1 POP JUMP JUMPDEST PUSH0 DUP2 SWAP1 POP SWAP2 SWAP1 POP JUMP JUMPDEST PUSH2 0xC24 DUP2 PUSH2 0xC12 JUMP JUMPDEST DUP3 MSTORE POP POP JUMP JUMPDEST PUSH0 PUSH1 0x40 DUP3 ADD SWAP1 POP PUSH2 0xC3D PUSH0 DUP4 ADD DUP6 PUSH2 0xC1B JUMP JUMPDEST PUSH2 0xC4A PUSH1 0x20 DUP4 ADD DUP5 PUSH2 0xC1B JUMP JUMPDEST SWAP4 SWAP3 POP POP POP JUMP JUMPDEST PUSH32 0x4E487B7100000000000000000000000000000000000000000000000000000000 PUSH0 MSTORE PUSH1 0x11 PUSH1 0x4 MSTORE PUSH1 0x24 PUSH0 REVERT JUMPDEST PUSH0 PUSH2 0xC88 DUP3 PUSH2 0xC12 JUMP JUMPDEST SWAP2 POP PUSH2 0xC93 DUP4 PUSH2 0xC12 JUMP JUMPDEST SWAP3 POP DUP3 DUP3 SUB SWAP1 POP DUP2 DUP2 GT ISZERO PUSH2 0xCAB JUMPI PUSH2 0xCAA PUSH2 0xC51 JUMP JUMPDEST JUMPDEST SWAP3 SWAP2 POP POP JUMP JUMPDEST PUSH0 PUSH2 0xCBB DUP3 PUSH2 0xC12 JUMP JUMPDEST SWAP2 POP PUSH2 0xCC6 DUP4 PUSH2 0xC12 JUMP JUMPDEST SWAP3 POP DUP3 DUP3 ADD SWAP1 POP DUP1 DUP3 GT ISZERO PUSH2 0xCDE JUMPI PUSH2 0xCDD PUSH2 0xC51 JUMP JUMPDEST JUMPDEST SWAP3 SWAP2 POP POP JUMP JUMPDEST PUSH0 PUSH2 0xCEE DUP3 PUSH2 0xC12 JUMP JUMPDEST SWAP2 POP PUSH32 0xFFFFFFFFFFFFFFFFFFFFFFFFFFFFFFFFFFFFFFFFFFFFFFFFFFFFFFFFFFFFFFFF DUP3 SUB PUSH2 0xD20 JUMPI PUSH2 0xD1F PUSH2 0xC51 JUMP JUMPDEST JUMPDEST PUSH1 0x1 DUP3 ADD SWAP1 POP SWAP2 SWAP1 POP JUMP JUMPDEST PUSH0 PUSH1 0x20 DUP3 ADD SWAP1 POP PUSH2 0xD3E PUSH0 DUP4 ADD DUP5 PUSH2 0xC1B JUMP JUMPDEST SWAP3 SWAP2 POP POP JUMP JUMPDEST PUSH0 PUSH0 REVERT JUMPDEST PUSH2 0xD51 DUP2 PUSH2 0xC12 JUMP JUMPDEST DUP2 EQ PUSH2 0xD5B JUMPI PUSH0 PUSH0 REVERT JUMPDEST POP JUMP JUMPDEST PUSH0 DUP2 CALLDATALOAD SWAP1 POP PUSH2 0xD6C DUP2 PUSH2 0xD48 JUMP JUMPDEST SWAP3 SWAP2 POP POP JUMP JUMPDEST PUSH0 PUSH1 0x20 DUP3 DUP5 SUB SLT ISZERO PUSH2 0xD87 JUMPI PUSH2 0xD86 PUSH2 0xD44 JUMP JUMPDEST JUMPDEST PUSH0 PUSH2 0xD94 DUP5 DUP3 DUP6 ADD PUSH2 0xD5E JUMP JUMPDEST SWAP2 POP POP SWAP3 SWAP2 POP POP JUMP JUMPDEST PUSH0 PUSH20 0xFFFFFFFFFFFFFFFFFFFFFFFFFFFFFFFFFFFFFFFF DUP3 AND SWAP1 POP SWAP2 SWAP1 POP JUMP JUMPDEST PUSH0 PUSH2 0xDC6 DUP3 PUSH2 0xD9D JUMP JUMPDEST SWAP1 POP SWAP2 SWAP1 POP JUMP JUMPDEST PUSH2 0xDD6 DUP2 PUSH2 0xDBC JUMP JUMPDEST DUP2 EQ PUSH2 0xDE0 JUMPI PUSH0 PUSH0 REVERT JUMPDEST POP JUMP JUMPDEST PUSH0 DUP2 CALLDATALOAD SWAP1 POP PUSH2 0xDF1 DUP2 PUSH2 0xDCD JUMP JUMPDEST SWAP3 SWAP2 POP POP JUMP JUMPDEST PUSH0 PUSH1 0x20 DUP3 DUP5 SUB SLT ISZERO PUSH2 0xE0C JUMPI PUSH2 0xE0B PUSH2 0xD44 JUMP JUMPDEST JUMPDEST PUSH0 PUSH2 0xE19 DUP5 DUP3 DUP6 ADD PUSH2 0xDE3 JUMP JUMPDEST SWAP2 POP POP SWAP3 SWAP2 POP POP JUMP JUMPDEST PUSH0 DUP2 ISZERO ISZERO SWAP1 POP SWAP2 SWAP1 POP JUMP JUMPDEST PUSH2 0xE36 DUP2 PUSH2 0xE22 JUMP JUMPDEST DUP3 MSTORE POP POP JUMP JUMPDEST PUSH0 PUSH1 0x60 DUP3 ADD SWAP1 POP PUSH2 0xE4F PUSH0 DUP4 ADD DUP7 PUSH2 0xC1B JUMP JUMPDEST PUSH2 0xE5C PUSH1 0x20 DUP4 ADD DUP6 PUSH2 0xC1B JUMP JUMPDEST PUSH2 0xE69 PUSH1 0x40 DUP4 ADD DUP5 PUSH2 0xE2D JUMP JUMPDEST SWAP5 SWAP4 POP POP POP POP JUMP JUMPDEST PUSH0 PUSH1 0x80 DUP3 ADD SWAP1 POP PUSH2 0xE84 PUSH0 DUP4 ADD DUP8 PUSH2 0xC1B JUMP JUMPDEST PUSH2 0xE91 PUSH1 0x20 DUP4 ADD DUP7 PUSH2 0xC1B JUMP JUMPDEST PUSH2 0xE9E PUSH1 0x40 DUP4 ADD DUP6 PUSH2 0xC1B JUMP JUMPDEST PUSH2 0xEAB PUSH1 0x60 DUP4 ADD DUP5 PUSH2 0xC1B JUMP JUMPDEST SWAP6 SWAP5 POP POP POP POP POP JUMP JUMPDEST PUSH0 DUP2 SWAP1 POP SWAP3 SWAP2 POP POP JUMP JUMPDEST POP JUMP JUMPDEST PUSH0 PUSH2 0xECC PUSH0 DUP4 PUSH2 0xEB4 JUMP JUMPDEST SWAP2 POP PUSH2 0xED7 DUP3 PUSH2 0xEBE JUMP JUMPDEST PUSH0 DUP3 ADD SWAP1 POP SWAP2 SWAP1 POP JUMP JUMPDEST PUSH0 PUSH2 0xEEB DUP3 PUSH2 0xEC1 JUMP JUMPDEST SWAP2 POP DUP2 SWAP1 POP SWAP2 SWAP1 POP JUMP INVALID LOG2 PUSH5 0x6970667358 0x22 SLT KECCAK256 0xD2 PUSH28 0x7CC7558C65B37F4704738697120A61C002450E98DBBDEBC45CCCA74E 0xBF 0xEB PUSH5 0x736F6C6343 STOP ADDMOD 0x1E STOP CALLER "
				},
				"gasEstimates": {
					"creation": {
						"codeDepositCost": "776600",
						"executionCost": "infinite",
						"totalCost": "infinite"
					},
					"external": {
						"MINIMUM_DEPOSIT()": "435",
						"bankCap()": "infinite",
						"deposit()": "infinite",
						"getBankStats()": "infinite",
						"getUserInfo(address)": "infinite",
						"totalBankBalance()": "2425",
						"totalDeposits()": "2514",
						"totalWithdrawals()": "2470",
						"vaults(address)": "2824",
						"withdraw(uint256)": "infinite",
						"withdrawalLimit()": "infinite"
					},
					"internal": {
						"_calculateMaxWithdrawal(address)": "infinite"
					}
				},
				"methodIdentifiers": {
					"MINIMUM_DEPOSIT()": "f19451d8",
					"bankCap()": "ecbea24d",
					"deposit()": "d0e30db0",
					"getBankStats()": "c6e8e38c",
					"getUserInfo(address)": "6386c1c7",
					"totalBankBalance()": "1977e938",
					"totalDeposits()": "7d882097",
					"totalWithdrawals()": "60464627",
					"vaults(address)": "a622ee7c",
					"withdraw(uint256)": "2e1a7d4d",
					"withdrawalLimit()": "7ddfe78d"
				}
			},
			"storageLayout": {
				"storage": [
					{
						"astId": 15,
						"contract": "contracts/kipubank.sol:KipuBank",
						"label": "totalBankBalance",
						"offset": 0,
						"slot": "0",
						"type": "t_uint256"
					},
					{
						"astId": 18,
						"contract": "contracts/kipubank.sol:KipuBank",
						"label": "totalDeposits",
						"offset": 0,
						"slot": "1",
						"type": "t_uint256"
					},
					{
						"astId": 21,
						"contract": "contracts/kipubank.sol:KipuBank",
						"label": "totalWithdrawals",
						"offset": 0,
						"slot": "2",
						"type": "t_uint256"
					},
					{
						"astId": 26,
						"contract": "contracts/kipubank.sol:KipuBank",
						"label": "vaults",
						"offset": 0,
						"slot": "3",
						"type": "t_mapping(t_address,t_uint256)"
					}
				],
				"types": {
					"t_address": {
						"encoding": "inplace",
						"label": "address",
						"numberOfBytes": "20"
					},
					"t_mapping(t_address,t_uint256)": {
						"encoding": "mapping",
						"key": "t_address",
						"label": "mapping(address => uint256)",
						"numberOfBytes": "32",
						"value": "t_uint256"
					},
					"t_uint256": {
						"encoding": "inplace",
						"label": "uint256",
						"numberOfBytes": "32"
					}
				}
			},
			"userdoc": {
				"errors": {
					"BankCapExceeded(uint256,uint256)": [
						{
							"notice": "Error cuando un depósito excedería la capacidad máxima del banco"
						}
					],
					"DepositTooSmall(uint256,uint256)": [
						{
							"notice": "Error cuando el depósito es menor al mínimo requerido"
						}
					],
					"InsufficientBalance(uint256,uint256)": [
						{
							"notice": "Error cuando el usuario no tiene suficiente balance para retirar"
						}
					],
					"InsufficientBankLiquidity(uint256,uint256)": [
						{
							"notice": "Error cuando el banco no tiene suficiente ETH líquido"
						}
					],
					"TransferFailed()": [
						{
							"notice": "Error cuando falla la transferencia de ETH al usuario"
						}
					],
					"WithdrawalLimitExceeded(uint256,uint256)": [
						{
							"notice": "Error cuando el retiro supera el límite permitido por transacción"
						}
					],
					"ZeroAmount()": [
						{
							"notice": "Error cuando se intenta operar con cantidad cero"
						}
					]
				},
				"events": {
					"Deposit(address,uint256,uint256)": {
						"notice": "Emitido cuando un usuario deposita ETH exitosamente"
					},
					"Withdrawal(address,uint256,uint256)": {
						"notice": "Emitido cuando un usuario retira ETH exitosamente"
					}
				},
				"kind": "user",
				"methods": {
					"MINIMUM_DEPOSIT()": {
						"notice": "Depósito mínimo requerido para realizar una transacción"
					},
					"bankCap()": {
						"notice": "Capacidad máxima total de ETH que puede almacenar el banco"
					},
					"constructor": {
						"notice": "Inicializa el contrato con los límites del banco"
					},
					"deposit()": {
						"notice": "Permite a los usuarios depositar ETH en su bóveda personal"
					},
					"getBankStats()": {
						"notice": "Obtiene estadísticas generales del banco"
					},
					"getUserInfo(address)": {
						"notice": "Obtiene información completa sobre la cuenta de un usuario"
					},
					"totalBankBalance()": {
						"notice": "Balance total de ETH actualmente almacenado en el banco"
					},
					"totalDeposits()": {
						"notice": "Contador del número total de depósitos realizados desde el despliegue"
					},
					"totalWithdrawals()": {
						"notice": "Contador del número total de retiros realizados desde el despliegue"
					},
					"vaults(address)": {
						"notice": "Mapeo que almacena el balance de cada usuario en su bóveda personal"
					},
					"withdraw(uint256)": {
						"notice": "Permite a los usuarios retirar ETH de su bóveda"
					},
					"withdrawalLimit()": {
						"notice": "Límite máximo que un usuario puede retirar en una sola transacción"
					}
				},
				"notice": "Banco descentralizado que permite depositar y retirar ETH con seguridad",
				"version": 1
			}
		}
	}
}