{
	"data": {
		"bytecode": {
			"linkReferences": {},
			"object": "60c060405234801561000f575f5ffd5b5060405161129c38038061129c83398181016040528101906100319190610146565b5f8211610073576040517f08c379a000000000000000000000000000000000000000000000000000000000815260040161006a90610204565b60405180910390fd5b5f81116100b5576040517f08c379a00000000000000000000000000000000000000000000000000000000081526004016100ac9061026c565b60405180910390fd5b808211156100f8576040517f08c379a00000000000000000000000000000000000000000000000000000000081526004016100ef906102fa565b60405180910390fd5b81608081815250508060a081815250505050610318565b5f5ffd5b5f819050919050565b61012581610113565b811461012f575f5ffd5b50565b5f815190506101408161011c565b92915050565b5f5f6040838503121561015c5761015b61010f565b5b5f61016985828601610132565b925050602061017a85828601610132565b9150509250929050565b5f82825260208201905092915050565b7f5769746864726177616c206c696d6974206d75737420626520677265617465725f8201527f207468616e203000000000000000000000000000000000000000000000000000602082015250565b5f6101ee602783610184565b91506101f982610194565b604082019050919050565b5f6020820190508181035f83015261021b816101e2565b9050919050565b7f42616e6b20636170206d7573742062652067726561746572207468616e2030005f82015250565b5f610256601f83610184565b915061026182610222565b602082019050919050565b5f6020820190508181035f8301526102838161024a565b9050919050565b7f5769746864726177616c206c696d69742063616e6e6f742065786365656420625f8201527f616e6b2063617000000000000000000000000000000000000000000000000000602082015250565b5f6102e4602783610184565b91506102ef8261028a565b604082019050919050565b5f6020820190508181035f830152610311816102d8565b9050919050565b60805160a051610f2b6103715f395f8181610137015281816108ed015281816109b20152610b3801525f8181610594015281816105bd0152818161086d015281816108a001528181610bb10152610bd90152610f2b5ff3fe60806040526004361061009f575f3560e01c80637ddfe78d116100635780637ddfe78d146103a1578063a622ee7c146103cb578063c6e8e38c14610407578063d0e30db014610434578063ecbea24d1461043e578063f19451d814610468576102b9565b80631977e938146102bd5780632e1a7d4d146102e7578063604646271461030f5780636386c1c7146103395780637d88209714610377576102b9565b366102b9575f34036100dd576040517f1f2a200500000000000000000000000000000000000000000000000000000000815260040160405180910390fd5b66038d7ea4c68000341015610132573466038d7ea4c680006040517f4a77f2fa000000000000000000000000000000000000000000000000000000008152600401610129929190610c2a565b60405180910390fd5b5f5f547f00000000000000000000000000000000000000000000000000000000000000006101609190610c7e565b9050803411156101a95734816040517f31728a050000000000000000000000000000000000000000000000000000000081526004016101a0929190610c2a565b60405180910390fd5b3460035f3373ffffffffffffffffffffffffffffffffffffffff1673ffffffffffffffffffffffffffffffffffffffff1681526020019081526020015f205f8282546101f59190610cb1565b92505081905550345f5f82825461020c9190610cb1565b9250508190555060015f81548092919061022590610ce4565b91905055503373ffffffffffffffffffffffffffffffffffffffff167f90890809c654f11d6e72a28fa60149770a0d11ec6c92319d6ceb2bb0a4ea1a153460035f3373ffffffffffffffffffffffffffffffffffffffff1673ffffffffffffffffffffffffffffffffffffffff1681526020019081526020015f20546040516102af929190610c2a565b60405180910390a2005b5f5ffd5b3480156102c8575f5ffd5b506102d1610492565b6040516102de9190610d2b565b60405180910390f35b3480156102f2575f5ffd5b5061030d60048036038101906103089190610d72565b610497565b005b34801561031a575f5ffd5b50610323610817565b6040516103309190610d2b565b60405180910390f35b348015610344575f5ffd5b5061035f600480360381019061035a9190610df7565b61081d565b60405161036e93929190610e3c565b60405180910390f35b348015610382575f5ffd5b5061038b610898565b6040516103989190610d2b565b60405180910390f35b3480156103ac575f5ffd5b506103b561089e565b6040516103c29190610d2b565b60405180910390f35b3480156103d6575f5ffd5b506103f160048036038101906103ec9190610df7565b6108c2565b6040516103fe9190610d2b565b60405180910390f35b348015610412575f5ffd5b5061041b6108d7565b60405161042b9493929190610e71565b60405180910390f35b61043c61091e565b005b348015610449575f5ffd5b50610452610b36565b60405161045f9190610d2b565b60405180910390f35b348015610473575f5ffd5b5061047c610b5a565b6040516104899190610d2b565b60405180910390f35b5f5481565b805f81036104d1576040517f1f2a200500000000000000000000000000000000000000000000000000000000815260040160405180910390fd5b60035f3373ffffffffffffffffffffffffffffffffffffffff1673ffffffffffffffffffffffffffffffffffffffff1681526020019081526020015f2054821115610592578160035f3373ffffffffffffffffffffffffffffffffffffffff1673ffffffffffffffffffffffffffffffffffffffff1681526020019081526020015f20546040517fcf479181000000000000000000000000000000000000000000000000000000008152600401610589929190610c2a565b60405180910390fd5b7f000000000000000000000000000000000000000000000000000000000000000082111561061957817f00000000000000000000000000000000000000000000000000000000000000006040517fb945e2d8000000000000000000000000000000000000000000000000000000008152600401610610929190610c2a565b60405180910390fd5b478211156106605781476040517f26af0c24000000000000000000000000000000000000000000000000000000008152600401610657929190610c2a565b60405180910390fd5b8160035f3373ffffffffffffffffffffffffffffffffffffffff1673ffffffffffffffffffffffffffffffffffffffff1681526020019081526020015f205f8282546106ac9190610c7e565b92505081905550815f5f8282546106c39190610c7e565b9250508190555060025f8154809291906106dc90610ce4565b91905055505f60035f3373ffffffffffffffffffffffffffffffffffffffff1673ffffffffffffffffffffffffffffffffffffffff1681526020019081526020015f205490505f3373ffffffffffffffffffffffffffffffffffffffff168460405161074790610ee1565b5f6040518083038185875af1925050503d805f8114610781576040519150601f19603f3d011682016040523d82523d5f602084013e610786565b606091505b50509050806107c1576040517f90b8ec1800000000000000000000000000000000000000000000000000000000815260040160405180910390fd5b3373ffffffffffffffffffffffffffffffffffffffff167fdf273cb619d95419a9cd0ec88123a0538c85064229baa6363788f743fff90deb8584604051610809929190610c2a565b60405180910390a250505050565b60025481565b5f5f5f60035f8573ffffffffffffffffffffffffffffffffffffffff1673ffffffffffffffffffffffffffffffffffffffff1681526020019081526020015f2054925061086984610b65565b91507f000000000000000000000000000000000000000000000000000000000000000083111590509193909250565b60015481565b7f000000000000000000000000000000000000000000000000000000000000000081565b6003602052805f5260405f205f915090505481565b5f5f5f5f5f549350600154925060025491505f547f00000000000000000000000000000000000000000000000000000000000000006109169190610c7e565b905090919293565b345f8103610958576040517f1f2a200500000000000000000000000000000000000000000000000000000000815260040160405180910390fd5b66038d7ea4c680003410156109ad573466038d7ea4c680006040517f4a77f2fa0000000000000000000000000000000000000000000000000000000081526004016109a4929190610c2a565b60405180910390fd5b5f5f547f00000000000000000000000000000000000000000000000000000000000000006109db9190610c7e565b905080341115610a245734816040517f31728a05000000000000000000000000000000000000000000000000000000008152600401610a1b929190610c2a565b60405180910390fd5b3460035f3373ffffffffffffffffffffffffffffffffffffffff1673ffffffffffffffffffffffffffffffffffffffff1681526020019081526020015f205f828254610a709190610cb1565b92505081905550345f5f828254610a879190610cb1565b9250508190555060015f815480929190610aa090610ce4565b91905055503373ffffffffffffffffffffffffffffffffffffffff167f90890809c654f11d6e72a28fa60149770a0d11ec6c92319d6ceb2bb0a4ea1a153460035f3373ffffffffffffffffffffffffffffffffffffffff1673ffffffffffffffffffffffffffffffffffffffff1681526020019081526020015f2054604051610b2a929190610c2a565b60405180910390a25050565b7f000000000000000000000000000000000000000000000000000000000000000081565b66038d7ea4c6800081565b5f5f60035f8473ffffffffffffffffffffffffffffffffffffffff1673ffffffffffffffffffffffffffffffffffffffff1681526020019081526020015f205490505f4790505f8290507f0000000000000000000000000000000000000000000000000000000000000000811115610bfb577f000000000000000000000000000000000000000000000000000000000000000090505b81811115610c07578190505b809350505050919050565b5f819050919050565b610c2481610c12565b82525050565b5f604082019050610c3d5f830185610c1b565b610c4a6020830184610c1b565b9392505050565b7f4e487b71000000000000000000000000000000000000000000000000000000005f52601160045260245ffd5b5f610c8882610c12565b9150610c9383610c12565b9250828203905081811115610cab57610caa610c51565b5b92915050565b5f610cbb82610c12565b9150610cc683610c12565b9250828201905080821115610cde57610cdd610c51565b5b92915050565b5f610cee82610c12565b91507fffffffffffffffffffffffffffffffffffffffffffffffffffffffffffffffff8203610d2057610d1f610c51565b5b600182019050919050565b5f602082019050610d3e5f830184610c1b565b92915050565b5f5ffd5b610d5181610c12565b8114610d5b575f5ffd5b50565b5f81359050610d6c81610d48565b92915050565b5f60208284031215610d8757610d86610d44565b5b5f610d9484828501610d5e565b91505092915050565b5f73ffffffffffffffffffffffffffffffffffffffff82169050919050565b5f610dc682610d9d565b9050919050565b610dd681610dbc565b8114610de0575f5ffd5b50565b5f81359050610df181610dcd565b92915050565b5f60208284031215610e0c57610e0b610d44565b5b5f610e1984828501610de3565b91505092915050565b5f8115159050919050565b610e3681610e22565b82525050565b5f606082019050610e4f5f830186610c1b565b610e5c6020830185610c1b565b610e696040830184610e2d565b949350505050565b5f608082019050610e845f830187610c1b565b610e916020830186610c1b565b610e9e6040830185610c1b565b610eab6060830184610c1b565b95945050505050565b5f81905092915050565b50565b5f610ecc5f83610eb4565b9150610ed782610ebe565b5f82019050919050565b5f610eeb82610ec1565b915081905091905056fea2646970667358221220d27b7cc7558c65b37f4704738697120a61c002450e98dbbdebc45ccca74ebfeb64736f6c634300081e0033",
			"opcodes": "PUSH1 0xC0 PUSH1 0x40 MSTORE CALLVALUE DUP1 ISZERO PUSH2 0xF JUMPI PUSH0 PUSH0 REVERT JUMPDEST POP PUSH1 0x40 MLOAD PUSH2 0x129C CODESIZE SUB DUP1 PUSH2 0x129C DUP4 CODECOPY DUP2 DUP2 ADD PUSH1 0x40 MSTORE DUP2 ADD SWAP1 PUSH2 0x31 SWAP2 SWAP1 PUSH2 0x146 JUMP JUMPDEST PUSH0 DUP3 GT PUSH2 0x73 JUMPI PUSH1 0x40 MLOAD PUSH32 0x8C379A000000000000000000000000000000000000000000000000000000000 DUP2 MSTORE PUSH1 0x4 ADD PUSH2 0x6A SWAP1 PUSH2 0x204 JUMP JUMPDEST PUSH1 0x40 MLOAD DUP1 SWAP2 SUB SWAP1 REVERT JUMPDEST PUSH0 DUP2 GT PUSH2 0xB5 JUMPI PUSH1 0x40 MLOAD PUSH32 0x8C379A000000000000000000000000000000000000000000000000000000000 DUP2 MSTORE PUSH1 0x4 ADD PUSH2 0xAC SWAP1 PUSH2 0x26C JUMP JUMPDEST PUSH1 0x40 MLOAD DUP1 SWAP2 SUB SWAP1 REVERT JUMPDEST DUP1 DUP3 GT ISZERO PUSH2 0xF8 JUMPI PUSH1 0x40 MLOAD PUSH32 0x8C379A000000000000000000000000000000000000000000000000000000000 DUP2 MSTORE PUSH1 0x4 ADD PUSH2 0xEF SWAP1 PUSH2 0x2FA JUMP JUMPDEST PUSH1 0x40 MLOAD DUP1 SWAP2 SUB SWAP1 REVERT JUMPDEST DUP2 PUSH1 0x80 DUP2 DUP2 MSTORE POP POP DUP1 PUSH1 0xA0 DUP2 DUP2 MSTORE POP POP POP POP PUSH2 0x318 JUMP JUMPDEST PUSH0 PUSH0 REVERT JUMPDEST PUSH0 DUP2 SWAP1 POP SWAP2 SWAP1 POP JUMP JUMPDEST PUSH2 0x125 DUP2 PUSH2 0x113 JUMP JUMPDEST DUP2 EQ PUSH2 0x12F JUMPI PUSH0 PUSH0 REVERT JUMPDEST POP JUMP JUMPDEST PUSH0 DUP2 MLOAD SWAP1 POP PUSH2 0x140 DUP2 PUSH2 0x11C JUMP JUMPDEST SWAP3 SWAP2 POP POP JUMP JUMPDEST PUSH0 PUSH0 PUSH1 0x40 DUP4 DUP6 SUB SLT ISZERO PUSH2 0x15C JUMPI PUSH2 0x15B PUSH2 0x10F JUMP JUMPDEST JUMPDEST PUSH0 PUSH2 0x169 DUP6 DUP3 DUP7 ADD PUSH2 0x132 JUMP JUMPDEST SWAP3 POP POP PUSH1 0x20 PUSH2 0x17A DUP6 DUP3 DUP7 ADD PUSH2 0x132 JUMP JUMPDEST SWAP2 POP POP SWAP3 POP SWAP3 SWAP1 POP JUMP JUMPDEST PUSH0 DUP3 DUP3 MSTORE PUSH1 0x20 DUP3 ADD SWAP1 POP SWAP3 SWAP2 POP POP JUMP JUMPDEST PUSH32 0x5769746864726177616C206C696D6974206D7573742062652067726561746572 PUSH0 DUP3 ADD MSTORE PUSH32 0x207468616E203000000000000000000000000000000000000000000000000000 PUSH1 0x20 DUP3 ADD MSTORE POP JUMP JUMPDEST PUSH0 PUSH2 0x1EE PUSH1 0x27 DUP4 PUSH2 0x184 JUMP JUMPDEST SWAP2 POP PUSH2 0x1F9 DUP3 PUSH2 0x194 JUMP JUMPDEST PUSH1 0x40 DUP3 ADD SWAP1 POP SWAP2 SWAP1 POP JUMP JUMPDEST PUSH0 PUSH1 0x20 DUP3 ADD SWAP1 POP DUP2 DUP2 SUB PUSH0 DUP4 ADD MSTORE PUSH2 0x21B DUP2 PUSH2 0x1E2 JUMP JUMPDEST SWAP1 POP SWAP2 SWAP1 POP JUMP JUMPDEST PUSH32 0x42616E6B20636170206D7573742062652067726561746572207468616E203000 PUSH0 DUP3 ADD MSTORE POP JUMP JUMPDEST PUSH0 PUSH2 0x256 PUSH1 0x1F DUP4 PUSH2 0x184 JUMP JUMPDEST SWAP2 POP PUSH2 0x261 DUP3 PUSH2 0x222 JUMP JUMPDEST PUSH1 0x20 DUP3 ADD SWAP1 POP SWAP2 SWAP1 POP JUMP JUMPDEST PUSH0 PUSH1 0x20 DUP3 ADD SWAP1 POP DUP2 DUP2 SUB PUSH0 DUP4 ADD MSTORE PUSH2 0x283 DUP2 PUSH2 0x24A JUMP JUMPDEST SWAP1 POP SWAP2 SWAP1 POP JUMP JUMPDEST PUSH32 0x5769746864726177616C206C696D69742063616E6E6F74206578636565642062 PUSH0 DUP3 ADD MSTORE PUSH32 0x616E6B2063617000000000000000000000000000000000000000000000000000 PUSH1 0x20 DUP3 ADD MSTORE POP JUMP JUMPDEST PUSH0 PUSH2 0x2E4 PUSH1 0x27 DUP4 PUSH2 0x184 JUMP JUMPDEST SWAP2 POP PUSH2 0x2EF DUP3 PUSH2 0x28A JUMP JUMPDEST PUSH1 0x40 DUP3 ADD SWAP1 POP SWAP2 SWAP1 POP JUMP JUMPDEST PUSH0 PUSH1 0x20 DUP3 ADD SWAP1 POP DUP2 DUP2 SUB PUSH0 DUP4 ADD MSTORE PUSH2 0x311 DUP2 PUSH2 0x2D8 JUMP JUMPDEST SWAP1 POP SWAP2 SWAP1 POP JUMP JUMPDEST PUSH1 0x80 MLOAD PUSH1 0xA0 MLOAD PUSH2 0xF2B PUSH2 0x371 PUSH0 CODECOPY PUSH0 DUP2 DUP2 PUSH2 0x137 ADD MSTORE DUP2 DUP2 PUSH2 0x8ED ADD MSTORE DUP2 DUP2 PUSH2 0x9B2 ADD MSTORE PUSH2 0xB38 ADD MSTORE PUSH0 DUP2 DUP2 PUSH2 0x594 ADD MSTORE DUP2 DUP2 PUSH2 0x5BD ADD MSTORE DUP2 DUP2 PUSH2 0x86D ADD MSTORE DUP2 DUP2 PUSH2 0x8A0 ADD MSTORE DUP2 DUP2 PUSH2 0xBB1 ADD MSTORE PUSH2 0xBD9 ADD MSTORE PUSH2 0xF2B PUSH0 RETURN INVALID PUSH1 0x80 PUSH1 0x40 MSTORE PUSH1 0x4 CALLDATASIZE LT PUSH2 0x9F JUMPI PUSH0 CALLDATALOAD PUSH1 0xE0 SHR DUP1 PUSH4 0x7DDFE78D GT PUSH2 0x63 JUMPI DUP1 PUSH4 0x7DDFE78D EQ PUSH2 0x3A1 JUMPI DUP1 PUSH4 0xA622EE7C EQ PUSH2 0x3CB JUMPI DUP1 PUSH4 0xC6E8E38C EQ PUSH2 0x407 JUMPI DUP1 PUSH4 0xD0E30DB0 EQ PUSH2 0x434 JUMPI DUP1 PUSH4 0xECBEA24D EQ PUSH2 0x43E JUMPI DUP1 PUSH4 0xF19451D8 EQ PUSH2 0x468 JUMPI PUSH2 0x2B9 JUMP JUMPDEST DUP1 PUSH4 0x1977E938 EQ PUSH2 0x2BD JUMPI DUP1 PUSH4 0x2E1A7D4D EQ PUSH2 0x2E7 JUMPI DUP1 PUSH4 0x60464627 EQ PUSH2 0x30F JUMPI DUP1 PUSH4 0x6386C1C7 EQ PUSH2 0x339 JUMPI DUP1 PUSH4 0x7D882097 EQ PUSH2 0x377 JUMPI PUSH2 0x2B9 JUMP JUMPDEST CALLDATASIZE PUSH2 0x2B9 JUMPI PUSH0 CALLVALUE SUB PUSH2 0xDD JUMPI PUSH1 0x40 MLOAD PUSH32 0x1F2A200500000000000000000000000000000000000000000000000000000000 DUP2 MSTORE PUSH1 0x4 ADD PUSH1 0x40 MLOAD DUP1 SWAP2 SUB SWAP1 REVERT JUMPDEST PUSH7 0x38D7EA4C68000 CALLVALUE LT ISZERO PUSH2 0x132 JUMPI CALLVALUE PUSH7 0x38D7EA4C68000 PUSH1 0x40 MLOAD PUSH32 0x4A77F2FA00000000000000000000000000000000000000000000000000000000 DUP2 MSTORE PUSH1 0x4 ADD PUSH2 0x129 SWAP3 SWAP2 SWAP1 PUSH2 0xC2A JUMP JUMPDEST PUSH1 0x40 MLOAD DUP1 SWAP2 SUB SWAP1 REVERT JUMPDEST PUSH0 PUSH0 SLOAD PUSH32 0x0 PUSH2 0x160 SWAP2 SWAP1 PUSH2 0xC7E JUMP JUMPDEST SWAP1 POP DUP1 CALLVALUE GT ISZERO PUSH2 0x1A9 JUMPI CALLVALUE DUP2 PUSH1 0x40 MLOAD PUSH32 0x31728A0500000000000000000000000000000000000000000000000000000000 DUP2 MSTORE PUSH1 0x4 ADD PUSH2 0x1A0 SWAP3 SWAP2 SWAP1 PUSH2 0xC2A JUMP JUMPDEST PUSH1 0x40 MLOAD DUP1 SWAP2 SUB SWAP1 REVERT JUMPDEST CALLVALUE PUSH1 0x3 PUSH0 CALLER PUSH20 0xFFFFFFFFFFFFFFFFFFFFFFFFFFFFFFFFFFFFFFFF AND PUSH20 0xFFFFFFFFFFFFFFFFFFFFFFFFFFFFFFFFFFFFFFFF AND DUP2 MSTORE PUSH1 0x20 ADD SWAP1 DUP2 MSTORE PUSH1 0x20 ADD PUSH0 KECCAK256 PUSH0 DUP3 DUP3 SLOAD PUSH2 0x1F5 SWAP2 SWAP1 PUSH2 0xCB1 JUMP JUMPDEST SWAP3 POP POP DUP2 SWAP1 SSTORE POP CALLVALUE PUSH0 PUSH0 DUP3 DUP3 SLOAD PUSH2 0x20C SWAP2 SWAP1 PUSH2 0xCB1 JUMP JUMPDEST SWAP3 POP POP DUP2 SWAP1 SSTORE POP PUSH1 0x1 PUSH0 DUP2 SLOAD DUP1 SWAP3 SWAP2 SWAP1 PUSH2 0x225 SWAP1 PUSH2 0xCE4 JUMP JUMPDEST SWAP2 SWAP1 POP SSTORE POP CALLER PUSH20 0xFFFFFFFFFFFFFFFFFFFFFFFFFFFFFFFFFFFFFFFF AND PUSH32 0x90890809C654F11D6E72A28FA60149770A0D11EC6C92319D6CEB2BB0A4EA1A15 CALLVALUE PUSH1 0x3 PUSH0 CALLER PUSH20 0xFFFFFFFFFFFFFFFFFFFFFFFFFFFFFFFFFFFFFFFF AND PUSH20 0xFFFFFFFFFFFFFFFFFFFFFFFFFFFFFFFFFFFFFFFF AND DUP2 MSTORE PUSH1 0x20 ADD SWAP1 DUP2 MSTORE PUSH1 0x20 ADD PUSH0 KECCAK256 SLOAD PUSH1 0x40 MLOAD PUSH2 0x2AF SWAP3 SWAP2 SWAP1 PUSH2 0xC2A JUMP JUMPDEST PUSH1 0x40 MLOAD DUP1 SWAP2 SUB SWAP1 LOG2 STOP JUMPDEST PUSH0 PUSH0 REVERT JUMPDEST CALLVALUE DUP1 ISZERO PUSH2 0x2C8 JUMPI PUSH0 PUSH0 REVERT JUMPDEST POP PUSH2 0x2D1 PUSH2 0x492 JUMP JUMPDEST PUSH1 0x40 MLOAD PUSH2 0x2DE SWAP2 SWAP1 PUSH2 0xD2B JUMP JUMPDEST PUSH1 0x40 MLOAD DUP1 SWAP2 SUB SWAP1 RETURN JUMPDEST CALLVALUE DUP1 ISZERO PUSH2 0x2F2 JUMPI PUSH0 PUSH0 REVERT JUMPDEST POP PUSH2 0x30D PUSH1 0x4 DUP1 CALLDATASIZE SUB DUP2 ADD SWAP1 PUSH2 0x308 SWAP2 SWAP1 PUSH2 0xD72 JUMP JUMPDEST PUSH2 0x497 JUMP JUMPDEST STOP JUMPDEST CALLVALUE DUP1 ISZERO PUSH2 0x31A JUMPI PUSH0 PUSH0 REVERT JUMPDEST POP PUSH2 0x323 PUSH2 0x817 JUMP JUMPDEST PUSH1 0x40 MLOAD PUSH2 0x330 SWAP2 SWAP1 PUSH2 0xD2B JUMP JUMPDEST PUSH1 0x40 MLOAD DUP1 SWAP2 SUB SWAP1 RETURN JUMPDEST CALLVALUE DUP1 ISZERO PUSH2 0x344 JUMPI PUSH0 PUSH0 REVERT JUMPDEST POP PUSH2 0x35F PUSH1 0x4 DUP1 CALLDATASIZE SUB DUP2 ADD SWAP1 PUSH2 0x35A SWAP2 SWAP1 PUSH2 0xDF7 JUMP JUMPDEST PUSH2 0x81D JUMP JUMPDEST PUSH1 0x40 MLOAD PUSH2 0x36E SWAP4 SWAP3 SWAP2 SWAP1 PUSH2 0xE3C JUMP JUMPDEST PUSH1 0x40 MLOAD DUP1 SWAP2 SUB SWAP1 RETURN JUMPDEST CALLVALUE DUP1 ISZERO PUSH2 0x382 JUMPI PUSH0 PUSH0 REVERT JUMPDEST POP PUSH2 0x38B PUSH2 0x898 JUMP JUMPDEST PUSH1 0x40 MLOAD PUSH2 0x398 SWAP2 SWAP1 PUSH2 0xD2B JUMP JUMPDEST PUSH1 0x40 MLOAD DUP1 SWAP2 SUB SWAP1 RETURN JUMPDEST CALLVALUE DUP1 ISZERO PUSH2 0x3AC JUMPI PUSH0 PUSH0 REVERT JUMPDEST POP PUSH2 0x3B5 PUSH2 0x89E JUMP JUMPDEST PUSH1 0x40 MLOAD PUSH2 0x3C2 SWAP2 SWAP1 PUSH2 0xD2B JUMP JUMPDEST PUSH1 0x40 MLOAD DUP1 SWAP2 SUB SWAP1 RETURN JUMPDEST CALLVALUE DUP1 ISZERO PUSH2 0x3D6 JUMPI PUSH0 PUSH0 REVERT JUMPDEST POP PUSH2 0x3F1 PUSH1 0x4 DUP1 CALLDATASIZE SUB DUP2 ADD SWAP1 PUSH2 0x3EC SWAP2 SWAP1 PUSH2 0xDF7 JUMP JUMPDEST PUSH2 0x8C2 JUMP JUMPDEST PUSH1 0x40 MLOAD PUSH2 0x3FE SWAP2 SWAP1 PUSH2 0xD2B JUMP JUMPDEST PUSH1 0x40 MLOAD DUP1 SWAP2 SUB SWAP1 RETURN JUMPDEST CALLVALUE DUP1 ISZERO PUSH2 0x412 JUMPI PUSH0 PUSH0 REVERT JUMPDEST POP PUSH2 0x41B PUSH2 0x8D7 JUMP JUMPDEST PUSH1 0x40 MLOAD PUSH2 0x42B SWAP5 SWAP4 SWAP3 SWAP2 SWAP1 PUSH2 0xE71 JUMP JUMPDEST PUSH1 0x40 MLOAD DUP1 SWAP2 SUB SWAP1 RETURN JUMPDEST PUSH2 0x43C PUSH2 0x91E JUMP JUMPDEST STOP JUMPDEST CALLVALUE DUP1 ISZERO PUSH2 0x449 JUMPI PUSH0 PUSH0 REVERT JUMPDEST POP PUSH2 0x452 PUSH2 0xB36 JUMP JUMPDEST PUSH1 0x40 MLOAD PUSH2 0x45F SWAP2 SWAP1 PUSH2 0xD2B JUMP JUMPDEST PUSH1 0x40 MLOAD DUP1 SWAP2 SUB SWAP1 RETURN JUMPDEST CALLVALUE DUP1 ISZERO PUSH2 0x473 JUMPI PUSH0 PUSH0 REVERT JUMPDEST POP PUSH2 0x47C PUSH2 0xB5A JUMP JUMPDEST PUSH1 0x40 MLOAD PUSH2 0x489 SWAP2 SWAP1 PUSH2 0xD2B JUMP JUMPDEST PUSH1 0x40 MLOAD DUP1 SWAP2 SUB SWAP1 RETURN JUMPDEST PUSH0 SLOAD DUP2 JUMP JUMPDEST DUP1 PUSH0 DUP2 SUB PUSH2 0x4D1 JUMPI PUSH1 0x40 MLOAD PUSH32 0x1F2A200500000000000000000000000000000000000000000000000000000000 DUP2 MSTORE PUSH1 0x4 ADD PUSH1 0x40 MLOAD DUP1 SWAP2 SUB SWAP1 REVERT JUMPDEST PUSH1 0x3 PUSH0 CALLER PUSH20 0xFFFFFFFFFFFFFFFFFFFFFFFFFFFFFFFFFFFFFFFF AND PUSH20 0xFFFFFFFFFFFFFFFFFFFFFFFFFFFFFFFFFFFFFFFF AND DUP2 MSTORE PUSH1 0x20 ADD SWAP1 DUP2 MSTORE PUSH1 0x20 ADD PUSH0 KECCAK256 SLOAD DUP3 GT ISZERO PUSH2 0x592 JUMPI DUP2 PUSH1 0x3 PUSH0 CALLER PUSH20 0xFFFFFFFFFFFFFFFFFFFFFFFFFFFFFFFFFFFFFFFF AND PUSH20 0xFFFFFFFFFFFFFFFFFFFFFFFFFFFFFFFFFFFFFFFF AND DUP2 MSTORE PUSH1 0x20 ADD SWAP1 DUP2 MSTORE PUSH1 0x20 ADD PUSH0 KECCAK256 SLOAD PUSH1 0x40 MLOAD PUSH32 0xCF47918100000000000000000000000000000000000000000000000000000000 DUP2 MSTORE PUSH1 0x4 ADD PUSH2 0x589 SWAP3 SWAP2 SWAP1 PUSH2 0xC2A JUMP JUMPDEST PUSH1 0x40 MLOAD DUP1 SWAP2 SUB SWAP1 REVERT JUMPDEST PUSH32 0x0 DUP3 GT ISZERO PUSH2 0x619 JUMPI DUP2 PUSH32 0x0 PUSH1 0x40 MLOAD PUSH32 0xB945E2D800000000000000000000000000000000000000000000000000000000 DUP2 MSTORE PUSH1 0x4 ADD PUSH2 0x610 SWAP3 SWAP2 SWAP1 PUSH2 0xC2A JUMP JUMPDEST PUSH1 0x40 MLOAD DUP1 SWAP2 SUB SWAP1 REVERT JUMPDEST SELFBALANCE DUP3 GT ISZERO PUSH2 0x660 JUMPI DUP2 SELFBALANCE PUSH1 0x40 MLOAD PUSH32 0x26AF0C2400000000000000000000000000000000000000000000000000000000 DUP2 MSTORE PUSH1 0x4 ADD PUSH2 0x657 SWAP3 SWAP2 SWAP1 PUSH2 0xC2A JUMP JUMPDEST PUSH1 0x40 MLOAD DUP1 SWAP2 SUB SWAP1 REVERT JUMPDEST DUP2 PUSH1 0x3 PUSH0 CALLER PUSH20 0xFFFFFFFFFFFFFFFFFFFFFFFFFFFFFFFFFFFFFFFF AND PUSH20 0xFFFFFFFFFFFFFFFFFFFFFFFFFFFFFFFFFFFFFFFF AND DUP2 MSTORE PUSH1 0x20 ADD SWAP1 DUP2 MSTORE PUSH1 0x20 ADD PUSH0 KECCAK256 PUSH0 DUP3 DUP3 SLOAD PUSH2 0x6AC SWAP2 SWAP1 PUSH2 0xC7E JUMP JUMPDEST SWAP3 POP POP DUP2 SWAP1 SSTORE POP DUP2 PUSH0 PUSH0 DUP3 DUP3 SLOAD PUSH2 0x6C3 SWAP2 SWAP1 PUSH2 0xC7E JUMP JUMPDEST SWAP3 POP POP DUP2 SWAP1 SSTORE POP PUSH1 0x2 PUSH0 DUP2 SLOAD DUP1 SWAP3 SWAP2 SWAP1 PUSH2 0x6DC SWAP1 PUSH2 0xCE4 JUMP JUMPDEST SWAP2 SWAP1 POP SSTORE POP PUSH0 PUSH1 0x3 PUSH0 CALLER PUSH20 0xFFFFFFFFFFFFFFFFFFFFFFFFFFFFFFFFFFFFFFFF AND PUSH20 0xFFFFFFFFFFFFFFFFFFFFFFFFFFFFFFFFFFFFFFFF AND DUP2 MSTORE PUSH1 0x20 ADD SWAP1 DUP2 MSTORE PUSH1 0x20 ADD PUSH0 KECCAK256 SLOAD SWAP1 POP PUSH0 CALLER PUSH20 0xFFFFFFFFFFFFFFFFFFFFFFFFFFFFFFFFFFFFFFFF AND DUP5 PUSH1 0x40 MLOAD PUSH2 0x747 SWAP1 PUSH2 0xEE1 JUMP JUMPDEST PUSH0 PUSH1 0x40 MLOAD DUP1 DUP4 SUB DUP2 DUP6 DUP8 GAS CALL SWAP3 POP POP POP RETURNDATASIZE DUP1 PUSH0 DUP2 EQ PUSH2 0x781 JUMPI PUSH1 0x40 MLOAD SWAP2 POP PUSH1 0x1F NOT PUSH1 0x3F RETURNDATASIZE ADD AND DUP3 ADD PUSH1 0x40 MSTORE RETURNDATASIZE DUP3 MSTORE RETURNDATASIZE PUSH0 PUSH1 0x20 DUP5 ADD RETURNDATACOPY PUSH2 0x786 JUMP JUMPDEST PUSH1 0x60 SWAP2 POP JUMPDEST POP POP SWAP1 POP DUP1 PUSH2 0x7C1 JUMPI PUSH1 0x40 MLOAD PUSH32 0x90B8EC1800000000000000000000000000000000000000000000000000000000 DUP2 MSTORE PUSH1 0x4 ADD PUSH1 0x40 MLOAD DUP1 SWAP2 SUB SWAP1 REVERT JUMPDEST CALLER PUSH20 0xFFFFFFFFFFFFFFFFFFFFFFFFFFFFFFFFFFFFFFFF AND PUSH32 0xDF273CB619D95419A9CD0EC88123A0538C85064229BAA6363788F743FFF90DEB DUP6 DUP5 PUSH1 0x40 MLOAD PUSH2 0x809 SWAP3 SWAP2 SWAP1 PUSH2 0xC2A JUMP JUMPDEST PUSH1 0x40 MLOAD DUP1 SWAP2 SUB SWAP1 LOG2 POP POP POP POP JUMP JUMPDEST PUSH1 0x2 SLOAD DUP2 JUMP JUMPDEST PUSH0 PUSH0 PUSH0 PUSH1 0x3 PUSH0 DUP6 PUSH20 0xFFFFFFFFFFFFFFFFFFFFFFFFFFFFFFFFFFFFFFFF AND PUSH20 0xFFFFFFFFFFFFFFFFFFFFFFFFFFFFFFFFFFFFFFFF AND DUP2 MSTORE PUSH1 0x20 ADD SWAP1 DUP2 MSTORE PUSH1 0x20 ADD PUSH0 KECCAK256 SLOAD SWAP3 POP PUSH2 0x869 DUP5 PUSH2 0xB65 JUMP JUMPDEST SWAP2 POP PUSH32 0x0 DUP4 GT ISZERO SWAP1 POP SWAP2 SWAP4 SWAP1 SWAP3 POP JUMP JUMPDEST PUSH1 0x1 SLOAD DUP2 JUMP JUMPDEST PUSH32 0x0 DUP2 JUMP JUMPDEST PUSH1 0x3 PUSH1 0x20 MSTORE DUP1 PUSH0 MSTORE PUSH1 0x40 PUSH0 KECCAK256 PUSH0 SWAP2 POP SWAP1 POP SLOAD DUP2 JUMP JUMPDEST PUSH0 PUSH0 PUSH0 PUSH0 PUSH0 SLOAD SWAP4 POP PUSH1 0x1 SLOAD SWAP3 POP PUSH1 0x2 SLOAD SWAP2 POP PUSH0 SLOAD PUSH32 0x0 PUSH2 0x916 SWAP2 SWAP1 PUSH2 0xC7E JUMP JUMPDEST SWAP1 POP SWAP1 SWAP2 SWAP3 SWAP4 JUMP JUMPDEST CALLVALUE PUSH0 DUP2 SUB PUSH2 0x958 JUMPI PUSH1 0x40 MLOAD PUSH32 0x1F2A200500000000000000000000000000000000000000000000000000000000 DUP2 MSTORE PUSH1 0x4 ADD PUSH1 0x40 MLOAD DUP1 SWAP2 SUB SWAP1 REVERT JUMPDEST PUSH7 0x38D7EA4C68000 CALLVALUE LT ISZERO PUSH2 0x9AD JUMPI CALLVALUE PUSH7 0x38D7EA4C68000 PUSH1 0x40 MLOAD PUSH32 0x4A77F2FA00000000000000000000000000000000000000000000000000000000 DUP2 MSTORE PUSH1 0x4 ADD PUSH2 0x9A4 SWAP3 SWAP2 SWAP1 PUSH2 0xC2A JUMP JUMPDEST PUSH1 0x40 MLOAD DUP1 SWAP2 SUB SWAP1 REVERT JUMPDEST PUSH0 PUSH0 SLOAD PUSH32 0x0 PUSH2 0x9DB SWAP2 SWAP1 PUSH2 0xC7E JUMP JUMPDEST SWAP1 POP DUP1 CALLVALUE GT ISZERO PUSH2 0xA24 JUMPI CALLVALUE DUP2 PUSH1 0x40 MLOAD PUSH32 0x31728A0500000000000000000000000000000000000000000000000000000000 DUP2 MSTORE PUSH1 0x4 ADD PUSH2 0xA1B SWAP3 SWAP2 SWAP1 PUSH2 0xC2A JUMP JUMPDEST PUSH1 0x40 MLOAD DUP1 SWAP2 SUB SWAP1 REVERT JUMPDEST CALLVALUE PUSH1 0x3 PUSH0 CALLER PUSH20 0xFFFFFFFFFFFFFFFFFFFFFFFFFFFFFFFFFFFFFFFF AND PUSH20 0xFFFFFFFFFFFFFFFFFFFFFFFFFFFFFFFFFFFFFFFF AND DUP2 MSTORE PUSH1 0x20 ADD SWAP1 DUP2 MSTORE PUSH1 0x20 ADD PUSH0 KECCAK256 PUSH0 DUP3 DUP3 SLOAD PUSH2 0xA70 SWAP2 SWAP1 PUSH2 0xCB1 JUMP JUMPDEST SWAP3 POP POP DUP2 SWAP1 SSTORE POP CALLVALUE PUSH0 PUSH0 DUP3 DUP3 SLOAD PUSH2 0xA87 SWAP2 SWAP1 PUSH2 0xCB1 JUMP JUMPDEST SWAP3 POP POP DUP2 SWAP1 SSTORE POP PUSH1 0x1 PUSH0 DUP2 SLOAD DUP1 SWAP3 SWAP2 SWAP1 PUSH2 0xAA0 SWAP1 PUSH2 0xCE4 JUMP JUMPDEST SWAP2 SWAP1 POP SSTORE POP CALLER PUSH20 0xFFFFFFFFFFFFFFFFFFFFFFFFFFFFFFFFFFFFFFFF AND PUSH32 0x90890809C654F11D6E72A28FA60149770A0D11EC6C92319D6CEB2BB0A4EA1A15 CALLVALUE PUSH1 0x3 PUSH0 CALLER PUSH20 0xFFFFFFFFFFFFFFFFFFFFFFFFFFFFFFFFFFFFFFFF AND PUSH20 0xFFFFFFFFFFFFFFFFFFFFFFFFFFFFFFFFFFFFFFFF AND DUP2 MSTORE PUSH1 0x20 ADD SWAP1 DUP2 MSTORE PUSH1 0x20 ADD PUSH0 KECCAK256 SLOAD PUSH1 0x40 MLOAD PUSH2 0xB2A SWAP3 SWAP2 SWAP1 PUSH2 0xC2A JUMP JUMPDEST PUSH1 0x40 MLOAD DUP1 SWAP2 SUB SWAP1 LOG2 POP POP JUMP JUMPDEST PUSH32 0x0 DUP2 JUMP JUMPDEST PUSH7 0x38D7EA4C68000 DUP2 JUMP JUMPDEST PUSH0 PUSH0 PUSH1 0x3 PUSH0 DUP5 PUSH20 0xFFFFFFFFFFFFFFFFFFFFFFFFFFFFFFFFFFFFFFFF AND PUSH20 0xFFFFFFFFFFFFFFFFFFFFFFFFFFFFFFFFFFFFFFFF AND DUP2 MSTORE PUSH1 0x20 ADD SWAP1 DUP2 MSTORE PUSH1 0x20 ADD PUSH0 KECCAK256 SLOAD SWAP1 POP PUSH0 SELFBALANCE SWAP1 POP PUSH0 DUP3 SWAP1 POP PUSH32 0x0 DUP2 GT ISZERO PUSH2 0xBFB JUMPI PUSH32 0x0 SWAP1 POP JUMPDEST DUP2 DUP2 GT ISZERO PUSH2 0xC07 JUMPI DUP2 SWAP1 POP JUMPDEST DUP1 SWAP4 POP POP POP POP SWAP2 SWAP1 POP JUMP JUMPDEST PUSH0 DUP2 SWAP1 POP SWAP2 SWAP1 POP JUMP JUMPDEST PUSH2 0xC24 DUP2 PUSH2 0xC12 JUMP JUMPDEST DUP3 MSTORE POP POP JUMP JUMPDEST PUSH0 PUSH1 0x40 DUP3 ADD SWAP1 POP PUSH2 0xC3D PUSH0 DUP4 ADD DUP6 PUSH2 0xC1B JUMP JUMPDEST PUSH2 0xC4A PUSH1 0x20 DUP4 ADD DUP5 PUSH2 0xC1B JUMP JUMPDEST SWAP4 SWAP3 POP POP POP JUMP JUMPDEST PUSH32 0x4E487B7100000000000000000000000000000000000000000000000000000000 PUSH0 MSTORE PUSH1 0x11 PUSH1 0x4 MSTORE PUSH1 0x24 PUSH0 REVERT JUMPDEST PUSH0 PUSH2 0xC88 DUP3 PUSH2 0xC12 JUMP JUMPDEST SWAP2 POP PUSH2 0xC93 DUP4 PUSH2 0xC12 JUMP JUMPDEST SWAP3 POP DUP3 DUP3 SUB SWAP1 POP DUP2 DUP2 GT ISZERO PUSH2 0xCAB JUMPI PUSH2 0xCAA PUSH2 0xC51 JUMP JUMPDEST JUMPDEST SWAP3 SWAP2 POP POP JUMP JUMPDEST PUSH0 PUSH2 0xCBB DUP3 PUSH2 0xC12 JUMP JUMPDEST SWAP2 POP PUSH2 0xCC6 DUP4 PUSH2 0xC12 JUMP JUMPDEST SWAP3 POP DUP3 DUP3 ADD SWAP1 POP DUP1 DUP3 GT ISZERO PUSH2 0xCDE JUMPI PUSH2 0xCDD PUSH2 0xC51 JUMP JUMPDEST JUMPDEST SWAP3 SWAP2 POP POP JUMP JUMPDEST PUSH0 PUSH2 0xCEE DUP3 PUSH2 0xC12 JUMP JUMPDEST SWAP2 POP PUSH32 0xFFFFFFFFFFFFFFFFFFFFFFFFFFFFFFFFFFFFFFFFFFFFFFFFFFFFFFFFFFFFFFFF DUP3 SUB PUSH2 0xD20 JUMPI PUSH2 0xD1F PUSH2 0xC51 JUMP JUMPDEST JUMPDEST PUSH1 0x1 DUP3 ADD SWAP1 POP SWAP2 SWAP1 POP JUMP JUMPDEST PUSH0 PUSH1 0x20 DUP3 ADD SWAP1 POP PUSH2 0xD3E PUSH0 DUP4 ADD DUP5 PUSH2 0xC1B JUMP JUMPDEST SWAP3 SWAP2 POP POP JUMP JUMPDEST PUSH0 PUSH0 REVERT JUMPDEST PUSH2 0xD51 DUP2 PUSH2 0xC12 JUMP JUMPDEST DUP2 EQ PUSH2 0xD5B JUMPI PUSH0 PUSH0 REVERT JUMPDEST POP JUMP JUMPDEST PUSH0 DUP2 CALLDATALOAD SWAP1 POP PUSH2 0xD6C DUP2 PUSH2 0xD48 JUMP JUMPDEST SWAP3 SWAP2 POP POP JUMP JUMPDEST PUSH0 PUSH1 0x20 DUP3 DUP5 SUB SLT ISZERO PUSH2 0xD87 JUMPI PUSH2 0xD86 PUSH2 0xD44 JUMP JUMPDEST JUMPDEST PUSH0 PUSH2 0xD94 DUP5 DUP3 DUP6 ADD PUSH2 0xD5E JUMP JUMPDEST SWAP2 POP POP SWAP3 SWAP2 POP POP JUMP JUMPDEST PUSH0 PUSH20 0xFFFFFFFFFFFFFFFFFFFFFFFFFFFFFFFFFFFFFFFF DUP3 AND SWAP1 POP SWAP2 SWAP1 POP JUMP JUMPDEST PUSH0 PUSH2 0xDC6 DUP3 PUSH2 0xD9D JUMP JUMPDEST SWAP1 POP SWAP2 SWAP1 POP JUMP JUMPDEST PUSH2 0xDD6 DUP2 PUSH2 0xDBC JUMP JUMPDEST DUP2 EQ PUSH2 0xDE0 JUMPI PUSH0 PUSH0 REVERT JUMPDEST POP JUMP JUMPDEST PUSH0 DUP2 CALLDATALOAD SWAP1 POP PUSH2 0xDF1 DUP2 PUSH2 0xDCD JUMP JUMPDEST SWAP3 SWAP2 POP POP JUMP JUMPDEST PUSH0 PUSH1 0x20 DUP3 DUP5 SUB SLT ISZERO PUSH2 0xE0C JUMPI PUSH2 0xE0B PUSH2 0xD44 JUMP JUMPDEST JUMPDEST PUSH0 PUSH2 0xE19 DUP5 DUP3 DUP6 ADD PUSH2 0xDE3 JUMP JUMPDEST SWAP2 POP POP SWAP3 SWAP2 POP POP JUMP JUMPDEST PUSH0 DUP2 ISZERO ISZERO SWAP1 POP SWAP2 SWAP1 POP JUMP JUMPDEST PUSH2 0xE36 DUP2 PUSH2 0xE22 JUMP JUMPDEST DUP3 MSTORE POP POP JUMP JUMPDEST PUSH0 PUSH1 0x60 DUP3 ADD SWAP1 POP PUSH2 0xE4F PUSH0 DUP4 ADD DUP7 PUSH2 0xC1B JUMP JUMPDEST PUSH2 0xE5C PUSH1 0x20 DUP4 ADD DUP6 PUSH2 0xC1B JUMP JUMPDEST PUSH2 0xE69 PUSH1 0x40 DUP4 ADD DUP5 PUSH2 0xE2D JUMP JUMPDEST SWAP5 SWAP4 POP POP POP POP JUMP JUMPDEST PUSH0 PUSH1 0x80 DUP3 ADD SWAP1 POP PUSH2 0xE84 PUSH0 DUP4 ADD DUP8 PUSH2 0xC1B JUMP JUMPDEST PUSH2 0xE91 PUSH1 0x20 DUP4 ADD DUP7 PUSH2 0xC1B JUMP JUMPDEST PUSH2 0xE9E PUSH1 0x40 DUP4 ADD DUP6 PUSH2 0xC1B JUMP JUMPDEST PUSH2 0xEAB PUSH1 0x60 DUP4 ADD DUP5 PUSH2 0xC1B JUMP JUMPDEST SWAP6 SWAP5 POP POP POP POP POP JUMP JUMPDEST PUSH0 DUP2 SWAP1 POP SWAP3 SWAP2 POP POP JUMP JUMPDEST POP JUMP JUMPDEST PUSH0 PUSH2 0xECC PUSH0 DUP4 PUSH2 0xEB4 JUMP JUMPDEST SWAP2 POP PUSH2 0xED7 DUP3 PUSH2 0xEBE JUMP JUMPDEST PUSH0 DUP3 ADD SWAP1 POP SWAP2 SWAP1 POP JUMP JUMPDEST PUSH0 PUSH2 0xEEB DUP3 PUSH2 0xEC1 JUMP JUMPDEST SWAP2 POP DUP2 SWAP1 POP SWAP2 SWAP1 POP JUMP INVALID LOG2 PUSH5 0x6970667358 0x22 SLT KECCAK256 0xD2 PUSH28 0x7CC7558C65B37F4704738697120A61C002450E98DBBDEBC45CCCA74E 0xBF 0xEB PUSH5 0x736F6C6343 STOP ADDMOD 0x1E STOP CALLER "
		},
		"gasEstimates": {
			"creation": {
				"codeDepositCost": "776600",
				"executionCost": "infinite",
				"totalCost": "infinite"
			},
			"external": {
				"MINIMUM_DEPOSIT()": "435",
				"bankCap()": "infinite",
				"deposit()": "infinite",
				"getBankStats()": "infinite",
				"getUserInfo(address)": "infinite",
				"totalBankBalance()": "2425",
				"totalDeposits()": "2514",
				"totalWithdrawals()": "2470",
				"vaults(address)": "2824",
				"withdraw(uint256)": "infinite",
				"withdrawalLimit()": "infinite"
			},
			"internal": {
				"_calculateMaxWithdrawal(address)": "infinite"
			}
		},
		"methodIdentifiers": {
			"MINIMUM_DEPOSIT()": "f19451d8",
			"bankCap()": "ecbea24d",
			"deposit()": "d0e30db0",
			"getBankStats()": "c6e8e38c",
			"getUserInfo(address)": "6386c1c7",
			"totalBankBalance()": "1977e938",
			"totalDeposits()": "7d882097",
			"totalWithdrawals()": "60464627",
			"vaults(address)": "a622ee7c",
			"withdraw(uint256)": "2e1a7d4d",
			"withdrawalLimit()": "7ddfe78d"
		}
	},
	"abi": [
		{
			"inputs": [
				{
					"internalType": "uint256",
					"name": "_withdrawalLimit",
					"type": "uint256"
				},
				{
					"internalType": "uint256",
					"name": "_bankCap",
					"type": "uint256"
				}
			],
			"stateMutability": "nonpayable",
			"type": "constructor"
		},
		{
			"inputs": [
				{
					"internalType": "uint256",
					"name": "attempted",
					"type": "uint256"
				},
				{
					"internalType": "uint256",
					"name": "available",
					"type": "uint256"
				}
			],
			"name": "BankCapExceeded",
			"type": "error"
		},
		{
			"inputs": [
				{
					"internalType": "uint256",
					"name": "sent",
					"type": "uint256"
				},
				{
					"internalType": "uint256",
					"name": "minimum",
					"type": "uint256"
				}
			],
			"name": "DepositTooSmall",
			"type": "error"
		},
		{
			"inputs": [
				{
					"internalType": "uint256",
					"name": "requested",
					"type": "uint256"
				},
				{
					"internalType": "uint256",
					"name": "available",
					"type": "uint256"
				}
			],
			"name": "InsufficientBalance",
			"type": "error"
		},
		{
			"inputs": [
				{
					"internalType": "uint256",
					"name": "requested",
					"type": "uint256"
				},
				{
					"internalType": "uint256",
					"name": "available",
					"type": "uint256"
				}
			],
			"name": "InsufficientBankLiquidity",
			"type": "error"
		},
		{
			"inputs": [],
			"name": "TransferFailed",
			"type": "error"
		},
		{
			"inputs": [
				{
					"internalType": "uint256",
					"name": "requested",
					"type": "uint256"
				},
				{
					"internalType": "uint256",
					"name": "limit",
					"type": "uint256"
				}
			],
			"name": "WithdrawalLimitExceeded",
			"type": "error"
		},
		{
			"inputs": [],
			"name": "ZeroAmount",
			"type": "error"
		},
		{
			"anonymous": false,
			"inputs": [
				{
					"indexed": true,
					"internalType": "address",
					"name": "user",
					"type": "address"
				},
				{
					"indexed": false,
					"internalType": "uint256",
					"name": "amount",
					"type": "uint256"
				},
				{
					"indexed": false,
					"internalType": "uint256",
					"name": "newBalance",
					"type": "uint256"
				}
			],
			"name": "Deposit",
			"type": "event"
		},
		{
			"anonymous": false,
			"inputs": [
				{
					"indexed": true,
					"internalType": "address",
					"name": "user",
					"type": "address"
				},
				{
					"indexed": false,
					"internalType": "uint256",
					"name": "amount",
					"type": "uint256"
				},
				{
					"indexed": false,
					"internalType": "uint256",
					"name": "remainingBalance",
					"type": "uint256"
				}
			],
			"name": "Withdrawal",
			"type": "event"
		},
		{
			"inputs": [],
			"name": "MINIMUM_DEPOSIT",
			"outputs": [
				{
					"internalType": "uint256",
					"name": "",
					"type": "uint256"
				}
			],
			"stateMutability": "view",
			"type": "function"
		},
		{
			"inputs": [],
			"name": "bankCap",
			"outputs": [
				{
					"internalType": "uint256",
					"name": "",
					"type": "uint256"
				}
			],
			"stateMutability": "view",
			"type": "function"
		},
		{
			"inputs": [],
			"name": "deposit",
			"outputs": [],
			"stateMutability": "payable",
			"type": "function"
		},
		{
			"inputs": [],
			"name": "getBankStats",
			"outputs": [
				{
					"internalType": "uint256",
					"name": "totalBalance",
					"type": "uint256"
				},
				{
					"internalType": "uint256",
					"name": "depositsCount",
					"type": "uint256"
				},
				{
					"internalType": "uint256",
					"name": "withdrawalsCount",
					"type": "uint256"
				},
				{
					"internalType": "uint256",
					"name": "remainingCapacity",
					"type": "uint256"
				}
			],
			"stateMutability": "view",
			"type": "function"
		},
		{
			"inputs": [
				{
					"internalType": "address",
					"name": "user",
					"type": "address"
				}
			],
			"name": "getUserInfo",
			"outputs": [
				{
					"internalType": "uint256",
					"name": "userBalance",
					"type": "uint256"
				},
				{
					"internalType": "uint256",
					"name": "maxWithdrawal",
					"type": "uint256"
				},
				{
					"internalType": "bool",
					"name": "canWithdrawFully",
					"type": "bool"
				}
			],
			"stateMutability": "view",
			"type": "function"
		},
		{
			"inputs": [],
			"name": "totalBankBalance",
			"outputs": [
				{
					"internalType": "uint256",
					"name": "",
					"type": "uint256"
				}
			],
			"stateMutability": "view",
			"type": "function"
		},
		{
			"inputs": [],
			"name": "totalDeposits",
			"outputs": [
				{
					"internalType": "uint256",
					"name": "",
					"type": "uint256"
				}
			],
			"stateMutability": "view",
			"type": "function"
		},
		{
			"inputs": [],
			"name": "totalWithdrawals",
			"outputs": [
				{
					"internalType": "uint256",
					"name": "",
					"type": "uint256"
				}
			],
			"stateMutability": "view",
			"type": "function"
		},
		{
			"inputs": [
				{
					"internalType": "address",
					"name": "",
					"type": "address"
				}
			],
			"name": "vaults",
			"outputs": [
				{
					"internalType": "uint256",
					"name": "",
					"type": "uint256"
				}
			],
			"stateMutability": "view",
			"type": "function"
		},
		{
			"inputs": [
				{
					"internalType": "uint256",
					"name": "amount",
					"type": "uint256"
				}
			],
			"name": "withdraw",
			"outputs": [],
			"stateMutability": "nonpayable",
			"type": "function"
		},
		{
			"inputs": [],
			"name": "withdrawalLimit",
			"outputs": [
				{
					"internalType": "uint256",
					"name": "",
					"type": "uint256"
				}
			],
			"stateMutability": "view",
			"type": "function"
		},
		{
			"stateMutability": "payable",
			"type": "receive"
		}
	]
}